:100000000C94A7010C94CF010C94CF010C94EC0339
:100010000C94EC030C94EC030C94CF010C94CF01E2
:100020000C94CF010C94CF010C94CF010C94CF0110
:100030000C94CF010C94CF010C94CF010C94CF0100
:100040000C94EC0B0C94CF010C94EC0A0C94C60AA3
:100050000C94CF010C94CF010C94CF010C94CF01E0
:100060000C94CF010C94CF01000000002400270065
:100070002A000D0A4F534320646964206E6F742078
:100080007374617274000D0A58424F5820555342E0
:10009000204C696272617279205374617274656474
:1000A0000059005800420041005269676874004CD2
:1000B00065667400446F776E00557000526967681A
:1000C00074486174593A20005269676874486174D1
:1000D000583A20004C656674486174593A20004CC7
:1000E000656674486174583A20000D0A6765744467
:1000F0006576446573637220000D0A736574446508
:100100007654626C456E20000D0A736574436F6E01
:10011000662000205049443A20000D0A556E6B6E4F
:100120006F776E2044657669636520436F6E6E65F8
:1001300063746564202D205649443A20000D0A005E
:100140000D0A58626F782033363020496E6974206A
:100150004661696C65642C206572726F7220636FF2
:1001600064653A20000D0A58626F782033363020DB
:10017000436F6E74726F6C6C657220436F6E6E6548
:10018000637465640D0A000D0A73657441646472DA
:100190003A20000D0A54686973206C6962726172BA
:1001A00079206F6E6C7920737570706F7274732024
:1001B00058626F782033363020636F6E74726F6CC4
:1001C0006C6572732076696120555342000D0A599F
:1001D0006F75206861766520706C7567676564204F
:1001E000696E206120776972656C6573732058624F
:1001F0006F782033363020636F6E74726F6C6C656D
:1002000072202D20697420646F65736E27742073CB
:100210007570706F72742055534220636F6D6D75E9
:100220006E69636174696F6E000D0A6570696E6650
:100230006F206973206E756C6C000D0A41646472E6
:10024000657373206E6F7420666F756E64000D0A9F
:100250004164647265737320696E20757365000D67
:100260000A00285553423A3A496E5472616E7366D9
:100270006572292065702072657175657374656497
:1002800020000D0A00285553423A3A496E547261D3
:100290006E7366657229206164647220726571757F
:1002A000657374656420000D0A00285553423A3A7C
:1002B000496E5472616E736665722920536574418C
:1002C000646472657373204661696C656420000024
:1002D00002030405010000000800020100000304FD
:1002E00007000000000000000000010008000200FC
:1002F0000400200010004000800000000001000207
:1003000000200010004000800004000800000000F1
:1003100000250028002B00000000002300260029F3
:10032000000404040404040404020202020202039E
:1003300003030303030102040810204080010204A8
:1003400008102001020408102000E114821011247A
:100350001FBECFEFD8E0DEBFCDBF23E0A6E5B1E002
:1003600001C01D92AE32B207E1F711E0A0E0B1E0AA
:10037000E6ECFCE202C005900D92A635B107D9F774
:1003800011E0C6EAD1E004C02197FE010E944416A4
:10039000C53AD107C9F70E949E100C9456160C94CA
:1003A0000000DF92EF92FF920F931F93CF93DF93A2
:1003B000EC01E62EF12C85E0689FB0011124FE01CE
:1003C000E60FF71F8085182F177086FF21C001E008
:1003D00085E0D82E8FEF800F8F3008F001E0FE010E
:1003E000D09EE00DF11D1124808586958695869519
:1003F0008770811305C0602FCE010E94D101EACF22
:100400000F5F003161F78D81811302C011501D8390
:1004100085E08E9DF0018F9DF00D1124EC0FFD1FE6
:10042000108681E0818712862296D783C683DF916A
:10043000CF911F910F91FF90EF90DF900895FC01F5
:100440006134C1F43F969C01265A3F4F61E0AC01F4
:100450004E5F5F4FDF0112971C9211966C931082D2
:1004600013974D935C933596E217F30799F7FC01C8
:10047000158208953D9621E03081361303C0622F26
:100480000C94D1012F5F35962031B1F70895CF93A9
:10049000DF93FC01862F807809F051C0283008F0E6
:1004A0004FC0442321F09581973009F449C0EF01F2
:1004B0002D96A0E0B0E011969881911103C06623BB
:1004C00031F021C02596AF30B105A9F739C085E0DC
:1004D0008A9FE0018B9FD00D1124CE0FDF1F442394
:1004E00031F081E4888785818F5F858302C081E058
:1004F000888725E02A9FC0012B9F900D1124E80FCB
:10050000F91F80851DC06770660F660F660F442354
:1005100041F0606485818F5F85838770687F682B79
:1005200003C02770687B622B25E02A9FC0012B9FA8
:10053000900D1124E80FF91F6087862F01C080E01D
:10054000DF91CF910895611102C006960895FC01D4
:100550003D9621E03081361307C035E0239F800DA2
:10056000911D1124069608952F5F3596203191F73D
:1005700080E090E0089581E0089580E0089580E0B3
:100580000895089580E0089580E0089580E008953A
:1005900080E0089580E008952091980130919901BC
:1005A0002817390771F49091970180919601981757
:1005B00041F0E0919701F0E0EA5AFE4F808190E02F
:1005C00008958FEF9FEF089508951F93CF93DF93C2
:1005D000DC015C962D913C915D972115310539F434
:1005E00081E090E013969C938E9312973DC05196B4
:1005F000ED91FC91529750969C915097892F809540
:100600001FB75E964C915E9741FB772770F941FDCD
:100610006095F8944081772311F0492B01C048235D
:100620004083E9012197F1F748E0508160FF02C063
:10063000592B01C058235083E9012197F1F76695A2
:10064000415099F7772321F090818923808303C05B
:100650008081982B90831FBF5C968D919C915D97B4
:100660000197F1F721E030E0C901DF91CF911F91AF
:10067000089520919801309199012817390771F454
:10068000809196012091970190E0805C9F4F821BA2
:10069000910960E470E00E94FA15089580E090E00E
:1006A0000895209198013091990128173907B9F4DC
:1006B0009091970180919601981789F0E0919701A8
:1006C000F0E0EA5AFE4F80812091970130E02F5FE1
:1006D0003F4F2F7333272093970190E008958FEFBA
:1006E0009FEF0895089580E090E00895FC01208137
:1006F0002EBDDC0131969C01260F371FE217F30750
:1007000041F051910DB407FEFDCF4EB55EBD4D9346
:10071000F5CF61507109FC01E60FF71F0DB407FE1C
:10072000FDCF8EB5808308952A98089508958EBDD3
:1007300000000DB407FEFDCF8EB508958CBD9DBDA4
:100740000895613871055CF4E091AA01F091AB0164
:100750000190F081E02D682F8AEA91E009940895D4
:100760000F931F93CF93DF936138710574F4009753
:1007700061F08B01FC018491EF012196882329F01F
:10078000B8010E94A103FE01F6CFDF91CF911F9126
:100790000F9108950F931F93CF93C82F8B0190E073
:1007A00024E0959587952A95E1F720E3280F2A33D1
:1007B00010F4822F01C0895CB8010E94A103CF70A0
:1007C00080E38C0F8A3310F087E38C0FB801CF9150
:1007D0001F910F910C94A1031F920F920FB60F92CD
:1007E00011242F933F934F935F936F937F938F9336
:1007F0009F93AF93BF93EF93FF93E0919801F09194
:100800009901309709F451C0968DA685B7858585E5
:1008100091FF04C09C91892329F447C09C918923AE
:1008200009F043C0A389B4899C9185898095892367
:100830008C93868997890197F1F7608D718DA685D4
:10084000B785558538E020E0CB010197F1F7822F7D
:1008500090E095958795282F4C91452309F02068C5
:10086000315091F7868D81FD20958091960190E021
:1008700001968F73992730919701381749F0A0910D
:100880009601B0E0AA5ABE4F2C938093960103C004
:10089000868D8160868F828D938D0197F1F7A38974
:1008A000B4899C918589892B8C93FF91EF91BF919D
:1008B000AF919F918F917F916F915F914F913F91F8
:1008C0002F910F900FBE0F901F9018952A9A0895A0
:1008D0000F931F93CF93DF93C82FD62F8A0180E504
:1008E00091E00E949E030E9494038C2F82600E94DC
:1008F0009703CD2FD0E0209721F0BE01C8010E94C0
:100900007603C00FD11F0E946604CE01DF91CF9104
:100910001F910F9108951F93CF93DF9300D01F92E3
:10092000CDB7DEB7182F80E591E06B830E949E0360
:100930000E949403126019836B816A8362E070E005
:10094000CE0101960E9476030E9466040F900F90DC
:100950000F90DF91CF911F9108959F92AF92BF9218
:10096000CF92DF92EF92FF920F931F93CF93DF937B
:100970007C01C42F122F992493946C01C60ED11CB4
:10098000C60ED11C86E5C80ED11CA42EB12CABE23C
:10099000AA0EB11CAA0CBB1CAE0CBF1CF6018081B8
:1009A0009181DC01ED91FC910280F381E02D202FFB
:1009B000412F6C2F0995803EC9F4C1110BC061E035
:1009C00088EE0E948B0466E670E080E090E00E9472
:1009D000A60B16C0F50180819181DC01ED91FC919F
:1009E0000284F385E02D612F09950AC08D3031F422
:1009F0009FEF990D933008F040C016C081113DC0A3
:100A0000F60180819181DC01ED91FC910190F081F2
:100A1000E02D202F412F6C2F0995D82F8D3061F4B8
:100A20008FEF890D833050F464E670E080E090E051
:100A30000E94A60B9394B2CF8823F1F0C1110BC092
:100A400061E088EE0E948B0466E670E080E090E052
:100A50000E94A60B11C0EC2FF0E0BB96EE0FFF1F1B
:100A6000EE0DFF1D80819181DC01ED91FC910284EE
:100A7000F385E02D612F09958D2FDF91CF911F9187
:100A80000F91FF90EF90DF90CF90BF90AF909F902D
:100A900008951F93CF93DF931F92CDB7DEB7182F22
:100AA00080E591E00E949E030E949403812F0E94A2
:100AB000970380E00E94970389830E9466048981DE
:100AC0000F90DF91CF911F9108958F929F92AF92D7
:100AD000BF92CF92DF92EF92FF920F931F93CF932B
:100AE000DF93862E942E59010E94E00B6B017C014E
:100AF00028E8C20E23E1D21EE11CF11C00E010E048
:100B0000D0E0C0E098280E94E00BDC01CB018C19FA
:100B10009D09AE09BF09B7FF2DC0692D80EF0E9466
:100B20008B040E94E00BDC01CB018C199D09AE09FE
:100B3000BF09B7FF09C088EC0E94490587FFF1CFC4
:100B400060E888EC0E948B0488EF0E944905C82F5A
:100B5000CF70C43019F0CE3051F00CC00F5F1F4F72
:100B6000A114B10481F20A151B0569F603C0DF5F09
:100B7000D33049F68C2FDF91CF911F910F91FF90C9
:100B8000EF90DF90CF90BF90AF909F908F9008959F
:100B90002F923F924F925F926F927F928F929F928D
:100BA000AF92BF92CF92DF92EF92FF920F931F937B
:100BB000CF93DF93CDB7DEB729970FB6F894DEBF9A
:100BC0000FBECDBF1C01798768875B834A836901AB
:100BD000D9018D909C901197FB01F181F9831D92B1
:100BE0001C92DB0112968C9181FD02C060E101C074
:100BF00060E288EE0E948B048E2D90E0A0E0B0E0D1
:100C00008C839D83AE83BF83482C2A813B81A8853A
:100C1000B9854C9160E0C1010E946505F82EB6E0EF
:100C20008B1316C088EF0E9449058295817091E070
:100C30008927E885F985928180FB91F9928391FD5E
:100C400002C060E101C060E288EE0E948B04DDCF4B
:100C5000811164C088EC0E94490582FF5DC080E379
:100C60000E944905582E90E08816990608F4542CE5
:100C7000D6018D919C91652C712CF401E81BF90B28
:100C8000CF01F7FF02C080E090E053018615970581
:100C90000CF45C0180E591E00E949E030E949403A5
:100CA00088E00E949703A50160E070E0C8010E94FF
:100CB0004F16A114B10421F0B501C8010E947603BA
:100CC0000A0D1B1D0E94660464E088EC0E948B04E0
:100CD000D6018D919C911197680E791E6D927C9230
:100CE000B9815B1618F06814790460F088EF0E94EF
:100CF000490582958170E885F985928180FB91F99B
:100D000092830CC0EE2009F480CF6C817D818E81AE
:100D10009F810E94A60B79CF80EFF82E8F2D299608
:100D20000FB6F894DEBF0FBECDBFDF91CF911F91FC
:100D30000F91FF90EF90DF90CF90BF90AF909F907A
:100D40008F907F906F905F904F903F902F9008957D
:100D50002F923F924F925F926F927F928F929F92CB
:100D6000AF92BF92CF92DF92EF92FF920F931F93B9
:100D7000CF93DF93CDB7DEB768970FB6F894DEBF99
:100D80000FBECDBF2C014B8B322E202EFC2CCDA4C0
:100D9000DEA46FA478A81E861D861C861B868E0185
:100DA000055F1F4F9E01235F3F4F0E94400F81113F
:100DB00059C139822A82EB82FC82BE82AD8298863A
:100DC0008F82AE014F5F5F4F68E080E20E9468044F
:100DD0002B853C854B8960E1C2010E946505182F77
:100DE0008111FCC0232C221C2224221C61147104BA
:100DF00009F4E5C0AD84BE84222009F456C0D501B3
:100E000012968C911297826012968C93540133241F
:100E10003394A114B10409F444C0DA86C9864B8521
:100E20005C856D857E85E12C83019E01275F3F4FA8
:100E3000C2010E94C805182F863079F4ED84FE8423
:100E400088EF0E94490585FB882780F98325F701F3
:100E5000928180FB91F99283DCCF8111BFC029A9D7
:100E60003AA921153105A1F0D901ED91FC91119715
:100E70000190F081E02DC4018A199B09988B8F871E
:100E800069857A859E01215F3F4FA301CD010995B8
:100E900089859A85A81AB90A8C159D0508F0B9CFDD
:100EA0008EC0112309F490C099C0F5018281816040
:100EB0008283EB84FC8401818FEF800F803408F003
:100EC0008BC00E94E00B9B01AC0128573C4E4F4F5A
:100ED0005F4F2C8B3D8B4E8B5F8BD50112968C9187
:100EE00080FD02C060E401C060E888EE0E948B04CF
:100EF000202F30E03A8B298BC114D10409F44DC066
:100F0000460129893A892C153D0508F44901888E46
:100F1000A301682D80E10E946804682D88E30E9487
:100F20008B04D5016C91606280EF0E948B0488EC89
:100F30000E94490587FFFBCF60E888EC0E948B0484
:100F400088EF0E944905182F1F70212C312C00E0DA
:100F5000112371F00E94E00BDC01CB012C893D894B
:100F60004E895F89821B930BA40BB50BB7FD05C09F
:100F7000C818D908680C791CBFCF163089F11E300B
:100F800009F468C0143049F4BFEF2B1A3B0AE1148E
:100F9000F104F1F12E143F04D9F588EF0E944905C0
:100FA00085FB882780F9D50112969C91129780FBCA
:100FB00090F912969C93112309F450C00FC02B8511
:100FC0003C85211003C04CC02B853C8560EA4B89D1
:100FD000C2010E94650546C08AED44C0812F42C00F
:100FE00088EF0E94490585FB882780F9E1E08E277C
:100FF000D50112969C91129780FB90F912969C93C2
:1010000090FD02C060E401C060E888EE0E948B049D
:1010100060E088E30E948B04F301608180E10E941C
:101020008B04688D88E30E948B04D5016C9160620B
:1010300080EF0E948B0488EC0E94490587FFFBCF5C
:1010400060E888EC0E948B0488EF0E944905182F05
:101050001F707ECF0F5F0330D9F69FCF2B853C8565
:1010600060E8B5CF68960FB6F894DEBF0FBECDBF6F
:10107000DF91CF911F910F91FF90EF90DF90CF9074
:10108000BF90AF909F908F907F906F905F904F90A8
:101090003F902F9008951F93CF93DF9300D01F921E
:1010A000CDB7DEB7182F80E591E06B830E949E03D9
:1010B0000E949403126019836B816A8362E070E07E
:1010C000CE0101960E9476030E9466040F900F9055
:1010D0000F90DF91CF911F9108951F93CF93DF93CE
:1010E0001F92CDB7DEB7182F80E591E00E949E03D6
:1010F0000E949403812F0E94970380E00E9497032F
:1011000089830E94660489810F90DF91CF911F919E
:101110000895FC01538D448D252F30E0842F90E0FD
:10112000821B930B541710F0CF96089501970895E2
:10113000FC01918D828D981761F0828DDF01A80FDF
:10114000B11D5D968C91928D9F5F9F73928F90E001
:1011500008958FEF9FEF0895FC01918D828D981770
:1011600031F0828DE80FF11D858D90E008958FEFAD
:101170009FEF0895FC01918D228D892F90E0805C76
:101180009F4F821B91098F73992708958AEA91E0F6
:101190000E94BA0821E0892B09F420E0822F0895EB
:1011A000FC01848DDF01A80FB11DA35ABF4F2C9104
:1011B000848D90E001968F739927848FA689B789D3
:1011C0002C93A089B1898C9180648C93938D848DAC
:1011D000981306C00288F389E02D80818F7D80837B
:1011E0000895EF92FF920F931F93CF93DF93EC013B
:1011F00081E0888F9B8D8C8D981305C0E889F989D3
:10120000808185FD24C0F62E0B8D10E00F5F1F4FEF
:101210000F731127E02E8C8DE8120CC00FB607FC5F
:10122000FACFE889F989808185FFF5CFCE010E9448
:10123000D008F1CF8B8DFE01E80FF11DE35AFF4F6F
:10124000F0820B8FEA89FB898081806207C0EE897A
:10125000FF896083E889F98980818064808381E0E7
:1012600090E0DF91CF911F910F91FF90EF90089543
:10127000CF93DF93EC01888D8823C9F0EA89FB893D
:10128000808185FD05C0A889B9898C9186FD0FC034
:101290000FB607FCF5CF808185FFF2CFA889B98909
:1012A0008C9185FFEDCFCE010E94D008E7CFDF9172
:1012B000CF91089580E090E0892B29F00E94C60824
:1012C00081110C94000008953FB7F8948091A50116
:1012D0009091A601A091A701B091A80126B5A89B65
:1012E00005C02F3F19F00196A11DB11D3FBFBA2FB8
:1012F000A92F982F8827820F911DA11DB11DBC0118
:10130000CD0142E0660F771F881F991F4A95D1F7DC
:101310000895CF93DF93EC011A828B819C81DC01CD
:10132000ED91FC910480F581E02D6D8109951D8280
:10133000198A80E0DF91CF9108956E3584E07807B7
:1013400059F06D3A9BE1790739F06E3286E1780702
:1013500019F06F367E40A1F44E3882E0580791F0C4
:10136000463190EF590771F0413084E0580751F051
:1013700081E0433192E0590739F04F3E5E4B21F056
:1013800080E0089581E008950895FC018189089521
:10139000FC01858108950E944A168F929F92AF9218
:1013A000BF92CF92DF92EF92FF920F931F93CF9352
:1013B000DF9300D000D000D0CDB7DEB7FC0121898B
:1013C000222309F4CFC06C0180E290E09E838D83DC
:1013D0005F01F8E2AF0EB11CF601F184E580838075
:1013E00094801C821B821A8219828E010F5F1F4F0C
:1013F0009E012D5F3F4F4F2D6E2DC4010E94400F67
:10140000182F8823A1F161E870E08AEA92E00E9437
:10141000B00361E870E0812F0E94CA0361E870E0C8
:1014200087EA92E00E94B00361E870E085E892E00C
:101430000E94B00361E870E08E2D0E94CA0361E84B
:1014400070E082E892E00E94B00361E870E082E61A
:1014500092E00E94B00361E870E08F2D0E94CA0301
:1014600061E870E08FE592E00E94B0030CC0498112
:101470005A816B817C81E12C85019E012B5F3F4F5E
:10148000C4010E94C805AB2809F46CC0F60180A510
:10149000811168C081A5843109F064C022A583A5AB
:1014A00090E0A0E0B0E0DC0199278827B22B44A5AA
:1014B00050E0542F442725A5422B60E070E0842B98
:1014C000952BA62BB72B828B938BA48BB58B27A543
:1014D00030E0322F222746A5242B358F248F21A9D7
:1014E00030E0322F222740A9242B378F268F23A9C3
:1014F00030E0322F222742A9242B31A320A325A993
:1015000030E0322F222744A9242B33A322A30689BB
:101510001789208D318D80179107A207B30711F12C
:101520004D01AA24BB24B901A801409550956095AE
:101530007095AB016627772748215921538F428F39
:10154000011104C0882311F041E047A3111105C027
:10155000992319F021E0F60126A3F601868B978BDB
:10156000A08FB18F80E026960FB6F894DEBF0FBE35
:10157000CDBFDF91CF911F910F91FF90EF90DF9042
:10158000CF90BF90AF909F908F9008951F920F9231
:101590000FB60F9211242F933F934F935F936F9346
:1015A0007F938F939F93AF93BF93EF93FF938AEAB9
:1015B00091E00E94D008FF91EF91BF91AF919F9170
:1015C0008F917F916F915F914F913F912F910F90EC
:1015D0000FBE0F901F9018951F920F920FB60F928B
:1015E00011242F938F939F93EF93FF93E091BA0170
:1015F000F091BB018081E091C001F091C10182FDB9
:1016000012C090818091C3018F5F8F732091C401BC
:10161000821751F0E091C301F0E0E655FE4F958F3F
:101620008093C30101C08081FF91EF919F918F91C1
:101630002F910F900FBE0F901F90189590E0FC0116
:10164000EB52FD4F3491FC01EB5CFC4F2491FC010B
:10165000EF5DFC4FE491EE2309F43BC0332339F1F5
:10166000333091F038F43130A9F0323001F584B5DF
:101670008F7D12C0373091F03830A1F03430B9F49A
:10168000809180008F7D03C0809180008F77809350
:1016900080000DC084B58F7784BD09C08091B000F3
:1016A0008F7703C08091B0008F7D8093B000F0E011
:1016B000EE0FFF1FE35FFC4FA591B4918FB7F89435
:1016C000EC91611103C020952E2301C02E2B2C9389
:1016D0008FBF0895CF93DF9390E0FC01EB5CFC4F4C
:1016E0002491FC01EF5DFC4F8491882361F190E02F
:1016F000880F991FFC01E859FF4FC591D491FC0157
:10170000E35FFC4FA591B491611109C09FB7F894B4
:101710008881209582238883EC912E230BC0623030
:1017200061F49FB7F8943881822F80958323888352
:10173000EC912E2B2C939FBF06C08FB7F894E881B5
:101740002E2B28838FBFDF91CF9108958F929F9288
:10175000AF92BF92CF92DF92EF92FF926B017C012A
:101760000E9464094B015C01C114D104E104F1043D
:10177000F1F00E946409DC01CB0188199909AA09DA
:10178000BB09883E9340A105B10570F321E0C21A60
:10179000D108E108F10888EE880E83E0981EA11CAC
:1017A000B11CC114D104E104F10419F7DDCFFF909D
:1017B000EF90DF90CF90BF90AF909F908F90089563
:1017C0002FB7F8946091A1017091A2018091A301BB
:1017D0009091A4012FBF08951F920F920FB60F9200
:1017E00011242F933F938F939F93AF93BF93809137
:1017F000A1019091A201A091A301B091A401309107
:10180000A00123E0230F2D3720F40196A11DB11D67
:1018100005C026E8230F0296A11DB11D2093A0014B
:101820008093A1019093A201A093A301B093A4017E
:101830008091A5019091A601A091A701B091A80166
:101840000196A11DB11D8093A5019093A601A093BF
:10185000A701B093A801BF91AF919F918F913F9144
:101860002F910F900FBE0F901F9018958F929F92FF
:10187000AF92BF92CF92EF920F93FC011F921F92F3
:101880007F936F935F934F934A01A12CB12C82E019
:10189000C82EE12C09E021E2468165818381948193
:1018A0000E94A8060F900F900F900F900F900F902E
:1018B0000F91EF90CF90BF90AF909F908F90089531
:1018C000FB01FF27E153FD4FE491BC01685B7F4FB3
:1018D00021E0DB012C93119623E02C931196EC5F11
:1018E000EC9343E050E00C94360C2F923F924F92D1
:1018F0005F926F927F928F929F92AF92BF92CF92A0
:10190000DF92EF92FF920F931F93CF93DF93CDB7A8
:10191000DEB767970FB6F894DEBF0FBECDBF3C01B0
:10192000F62E4F8BD22EDC0113964D905C901497BF
:1019300015961C91112341F060E870E08EE492E06E
:101940000E94B00319EDB6C1D201ED91FC91019056
:10195000F081E02D60E0C20109951C01009739F487
:1019600060E870E08AE392E00E94B0039FC1FC014E
:101970000190F081E02DFE8BED8BEF2B41F460E8C0
:1019800070E089E292E00E94B00317ED93C19301E9
:101990002A5F3F4F3C8B2B8BDC0111963C932E939F
:1019A0001496DC921F921F92CE0101969F938F9303
:1019B0001F9282E18F9382E1882E912CA12CB12C71
:1019C000CC24C394E12C06E020E840E060E0F30181
:1019D000838194810E94A806082FED89FE89D10198
:1019E000ED93FC930F900F900F900F900F900F902E
:1019F00081111CC189849A84AB84BC84FEE58F1656
:101A0000F4E09F0681F02DEA82162BE1920659F050
:101A10003EE2831636E1930631F08FE688168EE0BB
:101A2000980609F013C19FE8A91692E0B90629F4B7
:101A300060E870E08DEC91E00EC0A9E1AA16A7E085
:101A4000BA0629F0B1E9AB16B2E0BB0639F460E89A
:101A500070E083E991E00E94B003F8C0EEE8AE16B2
:101A6000E2E0BE06A9F0F6E1AF16F0EFBF0681F0A6
:101A700021E0A21624E0B20659F033E1A31632E0C9
:101A8000B30631F08FEEA8168EEBB80609F0DEC073
:101A9000D201ED91FC910280F381E02D2F8940E08D
:101AA0006F2DC2010995F3018583882309F4FCC0D9
:101AB00098859783482F60E0838194810E942D1040
:101AC000082FD201ED91FC91D10114961C9288232C
:101AD000B1F00480F581E02DD30115966C91C2011F
:101AE0000995F301158260E870E087E891E00E94B3
:101AF000B00360E870E0802F0E94CA03D3C0019059
:101B0000F081E02DD30115966C91C20109950097E3
:101B100009F4CCC0FC01D482D30115960C91159721
:101B200013968D919C911497EB89FC89EF2B09F406
:101B3000BFC0602F0E94A302FC01892B09F47BC067
:101B400002832B893C893183208381E08383D30105
:101B500019968C93199790E21A969C931A9784E0A1
:101B60001B968C931B9722E01C962C931C971D961A
:101B70009C931D971E968C931E9715960C91159706
:101B8000602F13968D919C9114970E94A302FC01E3
:101B9000892B09F450C002832B893C89318320832F
:101BA00083E0838368EC70E080E090E00E94A60B05
:101BB0001F921F921F921F921F921F92812C912C95
:101BC000A12CB12CC12CEE24E39409E020E0D30138
:101BD00016964C91169715966C91159713968D91B4
:101BE0009C9114970E94A806082F0F900F900F90B9
:101BF0000F900F900F9060E870E0811124C085E68F
:101C000091E00E94B003D3011F96ED91FC91509793
:101C1000309711F0099505C061E070E0C3010E94A2
:101C2000600C81E0F3018283818B44C060E870E046
:101C30008AEE90E005C006ED60E870E089EF90E084
:101C40000E94B00316C088E091E0FACF60E870E02F
:101C50008AE191E00E94B003C4010E945D1060E837
:101C600070E083E191E00E94B003C5010E945D1025
:101C700001ED60E870E080E491E00E94B00360E86C
:101C800070E0802F0E94CA0360E870E08DE391E06D
:101C90000E94B003D301ED91FC910480F581E02D09
:101CA000C3010995102F06C014ED04C016ED02C043
:101CB00008EDC2CF812F67960FB6F894DEBF0FBE36
:101CC000CDBFDF91CF911F910F91FF90EF90DF90EB
:101CD000CF90BF90AF909F908F907F906F905F90CC
:101CE0004F903F902F900895CF92DF92EF92FF9206
:101CF0000F931F93CF93DF936C017A018B01C0E0A8
:101D0000D0E0CE15DF0589F0D8016D918D01D601A7
:101D1000ED91FC910190F081E02DC6010995892B90
:101D200011F47E0102C02196ECCFC701DF91CF9163
:101D30001F910F91FF90EF90DF90CF9008950F9338
:101D40001F93CF93DF938C01C0E0D0E0F801EC0F3C
:101D5000FD1F6491662371F0E091AA01F091AB013F
:101D60000190F081E02D8AEA91E00995892B11F02C
:101D70002196ECCFCE01DF91CF911F910F91089565
:101D800088EF0E946D08807C8034A1F018F48823CD
:101D900001F10895803819F0803CB9F0089588ED7C
:101DA0000E946D0881FD0BC069EC88ED0E944B0814
:101DB00082E00CC088ED0E946D0881FDF5CF6BECD0
:101DC00088ED0E944B0883E001C081E08093A90167
:101DD000089561ED88ED0E944B081092A9010895C5
:101DE000009769F0FC0101900020E9F73197AF01FD
:101DF000481B590BBC018AEA91E00C94740E80E0F8
:101E000090E00895CF93DF930E949F0EEC0186E44B
:101E100091E00E94F00E8C0F9D1FDF91CF910895ED
:101E20008830910539F480916E02882341F1109237
:101E30006E0208958930910539F480916F028823EC
:101E4000F1F010926F020895FC01FF27EE0FFF1FC3
:101E5000E751FD4F45915491209162023091630208
:101E6000BA016223732381E0672B09F480E0409577
:101E70005095242335233093630220936202089502
:101E80008F929F92BF92CF92DF92EF92FF920F9329
:101E90001F93CF93DF931F92CDB7DEB74C01B62EC1
:101EA000690149830E94A3027C014981009709F4DA
:101EB0004BC0DC01ED91FC911197309709F446C0BD
:101EC00013969C9180E0891731F02081241729F026
:101ED00033968F5FF8CFE0E0F0E0D601ED93FC930E
:101EE0003097B1F122812695269530E020313105D9
:101EF00014F02FE030E081E090E0A0E0B0E004C01A
:101F0000880F991FAA1FBB1F2A95D2F70197F801C6
:101F1000918380836B2D80EE0E948B0488ED0E945C
:101F20004905682FD70114968C91882339F0F40164
:101F3000EA58FF4F80818260682B01C0697F88ED7D
:101F40000E948B0480E005C086ED03C087ED01C0D0
:101F50008BED0F90DF91CF911F910F91FF90EF903C
:101F6000DF90CF90BF909F908F9008958F929F9217
:101F7000AF92BF920F931F93CF93DF93CDB7DEB78E
:101F8000A1970FB6F894DEBF0FBECDBF19A24230A5
:101F900008F44AE08E010F5D1F4F842E912CA12C76
:101FA000B12CA50194010E940E16E62FB901CA01B9
:101FB00001501109EA3014F4E05D01C0E95CD80178
:101FC000EC93232B242B252B61F7C8010E94F00EE4
:101FD000A1960FB6F894DEBF0FBECDBFDF91CF91B3
:101FE0001F910F91BF90AF909F908F900895CF92C7
:101FF000DF92EF92FF92CF93DF936C01990FEE087F
:10200000FF08F7FE1FC0E091AA01F091AB0101901B
:10201000F081E02D6DE28AEA91E00995EC016627F6
:102020007727CB016C197D098E099F094AE00E9430
:10203000B60F8C0F9D1FDF91CF91FF90EF90DF9037
:10204000CF9008954AE0C701B601DF91CF91FF908C
:10205000EF90DF90CF900C94B60F8F929F92AF923B
:10206000BF92CF92EF920F93CF931F921F921F9226
:102070001F921F921F92812C912CA12CB12CC12C4C
:10208000E42E05E020E040E00E94A806C82F6CE2A4
:1020900071E080E090E00E94A60B0F900F900F90EF
:1020A0000F900F900F908C2FCF910F91EF90CF90BA
:1020B000BF90AF909F908F9008950F931F93CF93F1
:1020C000DF938C01CCE0D0E098010C2E02C0369555
:1020D00027950A94E2F72F7090E3920F9A3310F449
:1020E000892F02C087E3820F60E870E00E94A1039D
:1020F0002497CC3F8FEFD80739F7DF91CF911F910D
:102100000F91089588E391E09093100380930F035B
:1021100080919801909199018F50934071F4E091D2
:102120002203F091230390818091240380958923D9
:10213000808310929901109298010895CF93DF93B4
:10214000CDB7DEB765970FB6F894DEBF0FBECDBF33
:10215000789484B5826084BD84B5816084BD85B582
:10216000826085BD85B5816085BD80916E0081608E
:1021700080936E0010928100809181008260809334
:102180008100809181008160809381008091800036
:102190008160809380008091B10084608093B10061
:1021A0008091B00081608093B00080917A0084605B
:1021B00080937A0080917A00826080937A00809187
:1021C0007A00816080937A0080917A0080688093A1
:1021D0007A001092C100E091BA01F091BB0182E057
:1021E0008083E091B601F091B7011082E091B801CF
:1021F000F091B90180E180831092C201E091BE01AB
:10220000F091BF0186E08083E091BC01F091BD01B7
:10221000808180618083E091BC01F091BD0180816B
:1022200088608083E091BC01F091BD01808180686D
:102230008083E091BC01F091BD0180818F7D80831E
:10224000229A0E9466041FB7F89480919A01811126
:1022500027C0EBE2F3E08491EFE3F3E09491E82F01
:10226000F0E0EE0FFF1FE859FF4FA591B491EC91FC
:10227000E92321F461E08AE00E941E0B61E08AE01C
:102280000E946A0B8CB580618CBD8CB580648CBD5E
:1022900061E08DE00E946A0B61E08BE00E946A0BB6
:1022A00080919A018F5F80939A011FBF229A0E94AA
:1022B0006604219868E188E80E944B0860E288E79C
:1022C0000E944B0860E088E70E944B0801E010E0A4
:1022D0000115110509F470C388E60E946D080F5FAF
:1022E0001F4F80FFF5CF61EC88ED0E944B0860E640
:1022F00080ED0E944B0864E088EE0E944B0888EE57
:102300000E946D0882FFFBCF0E94C00E60E288EC45
:102310000E944B0861E080E80E944B0886E890E04C
:102320000E949F0E38E0F32E1E0123E1220E311C85
:1023300019990DC088EC0E94490585FF04C00E94D0
:10234000C00E60E201C060E088EC0E948B048091C6
:10235000A901813039F050F0823089F0833049F59D
:1023600011E00EC083E18093470223C080914702B1
:10237000807F8031F1F091E1909347021AC010E024
:1023800080914702807F8031A9F40E94E00BDC013C
:10239000CB0188539F4FAF4FBF4F80939C019093C9
:1023A0009D01A0939E01B0939F0180E2809347021C
:1023B00001C010E02EEE622E22E0722E5301D501F4
:1023C0008D919D915D01009739F0DC01ED91FC91BB
:1023D0000680F781E02D0995BEE0AB16B3E0BB06A1
:1023E00071F780914702803409F446C050F480327E
:1023F00031F18033C9F1813109F087C110920E03A8
:102400000AC0813509F461C0803809F473C0803591
:1024100009F07BC142C0F301819191913F01009786
:1024200039F0DC01ED91FC910480F581E02D0995F6
:10243000BEE06B16B3E07B0671F7E2E164C10E9477
:10244000E00B00919C0110919D0120919E01309123
:102450009F01DC01CB01801B910BA20BB30BB7FDDD
:1024600054C180E38093470261E088EE0E948B04B0
:1024700080E48093470249C188EE0E94490580FDAF
:1024800044C188ED0E944905682F686088ED0E946C
:102490008B04F0E5F093470238C188EC0E944905AF
:1024A00086FF33C181E5809347020E94E00BDC0187
:1024B000CB014496A11DB11D80939C0190939D0179
:1024C000A0939E01B0939F0120C10E94E00B8090D9
:1024D0009C0190909D01A0909E01B0909F01DC0115
:1024E000CB0188199909AA09BB09B7FD0EC180E87B
:1024F000809347021B8AFC8A8CE38D8B8EE992E0E5
:10250000892B11F486EDF8C040909E0250909F02F6
:1025100030929F0220929E021093A2021F921F925D
:10252000A1E0B0E0AC0FBD1FBF93AF931F92B2E12B
:10253000BF9392E1892E912CA12CB12CCC24C39471
:10254000E12C06E020E840E060E088E992E00E94AB
:10255000A80650929F0240929E020F900F900F90FB
:102560000F900F900F908111C3C089849A844B847F
:102570005C84CD80DE808EEEA82E82E0B82EF50140
:1025800080819181009789F1DC01ED91FC910084BB
:10259000F185E02D0995811128C0F5018081918197
:1025A000DC01ED91FC910088F189E02D6D2D0995FC
:1025B0008823D9F0F50180819181DC01ED91FC91B6
:1025C0000484F585E02DA201B4010995811185C02F
:1025D000F50180819181DC01ED91FC910684F78504
:1025E000E02D6C2D0995811178C0E394B2E0AB0E1B
:1025F000B11CE0E1EE12C3CFE12CD3018D919C918F
:10260000009799F1DC01ED91FC910084F185E02DBA
:10261000099581112AC0F30180819181DC01ED913E
:10262000FC910088F189E02D6D2D0995882309F42E
:1026300053C1F30180819181DC01ED91FC9104840F
:10264000F585E02DA201B401099581110EC0F301B9
:1026500080819181DC01ED91FC910684F785E02D6C
:102660006C2D0995882309F437C1E394B2E06B0E11
:10267000711CE0E1EE12C1CF80919E0290919F0209
:10268000892B39F11093A20220E040E060E088E954
:1026900092E00E944702E82E8823E9F0682F88E93B
:1026A00092E00E94A302009709F42CCFDC0114965B
:1026B0001C934E2D60E088E992E00E942D10182FA7
:1026C000882301F16E2D88E992E00E941F02812F7C
:1026D0000FC087ED11C084ED0FC0012F20E040E056
:1026E0006E2D88E992E00E94AD04813D09F47DCF12
:1026F000882341F0823D49F080939B01B0EAB0937A
:10270000470203C0E0E9E093470280914A02882330
:1027100009F4D9C080915A0290915B02911103C0D3
:10272000882309F4E7C089E491E00E94F00E6091EB
:102730005B0270E080E090E04AE00E94B60F8EE419
:1027400091E00E94F00E80915A0290915B02A0915C
:102750005C02B0915D02BC01CD01772788279927E3
:102760004AE00E94B60F86E491E00E94F00E80914C
:102770005A0290915B0210929002F0929102109294
:102780009202909393028093940210929502109279
:1027900096021092970248E050E060E972E088E407
:1027A00092E00E94360C8091640290916502845BF5
:1027B000924E89399A4308F0A8C0809166029091A0
:1027C0006702845B924E89399A4308F0ACC08091CD
:1027D000680290916902845B924E89399A4308F0AD
:1027E000A2C080916A0290916B02845B924E8939FB
:1027F0009A4308F098C080E090E00E94100F882370
:1028000051F061E070E088E492E00E94600C89EB96
:1028100090E00E94020F82E090E00E94100F882357
:1028200051F064E070E088E492E00E94600C84EB78
:1028300090E00E94020F83E090E00E94100F882336
:1028400051F063E070E088E492E00E94600C8FEA4F
:1028500090E00E94020F81E090E00E94100F882318
:1028600051F062E070E088E492E00E94600C89EA36
:1028700090E00E94020F8DE090E00E94100F8823EC
:1028800021F087EA90E00E94020F8CE090E00E9425
:10289000100F882321F085EA90E00E94020F8EE05D
:1028A00090E00E94100F882321F083EA90E00E94BC
:1028B000020F8FE090E00E94100F882321F081EA40
:1028C00090E00E94020F61E070E080E090E00E94E2
:1028D000A60B0E945A092CCD012F20E040E06E2D5E
:1028E00088E992E00E94AD04982F977F913D09F00E
:1028F000FFCEBBCE10929002F09291021092920203
:10290000109293021092940240CF8FED90E00E94BB
:102910009F0E80916402909165020E94F70F84E5FA
:1029200091E00E94F00E8091660290916702845BB4
:10293000924E89399A43B8F4809168029091690265
:10294000845B924E89399A43E8F480916A029091AF
:102950006B02845B924E89399A4318F586E491E0C4
:102960000E94F00E48CF84ED90E00E949F0E80916F
:102970006602909167020E94F70F84E591E00E9441
:10298000F00EDACF88EC90E00E949F0E80916802F2
:10299000909169020E94F70F84E591E00E94F00E89
:1029A000D4CF8CEB90E00E949F0E80916A029091B0
:1029B0006B020E94F70FD2CF82E790E00E949F0E39
:1029C000FFCF1092AD011092AC0188EE93E0A0E031
:1029D000B0E08093AE019093AF01A093B001B093AB
:1029E000B10124E031E03093AB012093AA0125EC42
:1029F00030E03093B7012093B60124EC30E03093FF
:102A0000B9012093B80120EC30E03093BB01209352
:102A1000BA0121EC30E03093BD012093BC0122ECDF
:102A200030E03093BF012093BE0126EC30E03093BC
:102A3000C1012093C0011092C3011092C4011092F1
:102A4000C5011092C60110921203109211038093D7
:102A5000130390931403A0931503B093160388E314
:102A600091E09093100380930F031092260310922D
:102A70002503109228031092270310922A03109224
:102A8000290310922C0310922B0360912D036E7F6B
:102A90006D7F60932D036695617081E0682783E008
:102AA0000E941E0B61E083E00E946A0BE8E3F3E002
:102AB000E491E0931F03E4E2F3E0E491F0E0EE0F31
:102AC000FF1FE35FFC4F85919491909321038093C6
:102AD000200360E082E00E946A0B80912D0381FD5B
:102AE00004C061E082E00E941E0B82E080931B0321
:102AF000E7E3F3E0E491E0931C03E3E2F3E0E49125
:102B0000F0E0EE0FFF1FE95EFC4F859194919093EA
:102B10001E0380931D038EE291E0909399028093AF
:102B2000980210929D021092A00281E08093A1026F
:102B30001092A2028AE992E090939F0280939E02F3
:102B400010929A0288E080939B028CE380939C020F
:102B500080E090E041E02AE932E0FC01E856FD4FD8
:102B60001586468717863487238705968B3491050B
:102B7000A1F710920E0381E18093470286E191E074
:102B8000909349028093480288E992E090934C0226
:102B900080934B0210924D021092590210924E02F5
:102BA00088E080934F028CE3809350021092510290
:102BB0001092520284E080935302109254021092B9
:102BC000550280935602EEEEF2E080E090E0219113
:102BD0003191232B51F4880F991FFC01E251FD4FD5
:102BE00088E492E091838083089501968031910575
:102BF00071F7089597FB072E16F4009407D077FD20
:102C000009D00E94301607FC05D03EF490958195BE
:102C10009F4F0895709561957F4F0895A1E21A2EF8
:102C2000AA1BBB1BFD010DC0AA1FBB1FEE1FFF1F70
:102C3000A217B307E407F50720F0A21BB30BE40BC0
:102C4000F50B661F771F881F991F1A9469F7609507
:102C50007095809590959B01AC01BD01CF010895C1
:102C6000AA1BBB1B51E107C0AA1FBB1FA617B707B2
:102C700010F0A61BB70B881F991F5A95A9F78095CE
:102C80009095BC01CD010895EE0FFF1F0590F491C2
:102C9000E02D099481E090E0F8940C945616DC0144
:102CA00001C06D9341505040E0F7089511E0C6EA2D
:102CB000D1E004C0FE010E9444162196C73AD10714
:062CC000C9F7F894FFCFF4
:102CC60000000000F108740E89083809BA0898084F
:102CD600AC0800000000750CC8028909CD09C809B6
:102CE600C1029D09BD02BB02C50900000000A30286
:102CF60047021F0200000000E502740E7303E4029F
:102D060039035103CC020D0A004C323A2000095215
:062D1600323A2000090022
:107E0000112484B714BE81FFF0D085E080938100F7
:107E100082E08093C00088E18093C10086E0809377
:107E2000C20080E18093C4008EE0C9D0259A86E02C
:107E300020E33CEF91E0309385002093840096BBD3
:107E4000B09BFECF1D9AA8958150A9F7CC24DD24C4
:107E500088248394B5E0AB2EA1E19A2EF3E0BF2EE7
:107E6000A2D0813461F49FD0082FAFD0023811F036
:107E7000013811F484E001C083E08DD089C08234E0
:107E800011F484E103C0853419F485E0A6D080C0E4
:107E9000853579F488D0E82EFF2485D0082F10E0AE
:107EA000102F00270E291F29000F111F8ED06801E7
:107EB0006FC0863521F484E090D080E0DECF843638
:107EC00009F040C070D06FD0082F6DD080E0C81688
:107ED00080E7D80618F4F601B7BEE895C0E0D1E017
:107EE00062D089930C17E1F7F0E0CF16F0E7DF06D8
:107EF00018F0F601B7BEE89568D007B600FCFDCFD4
:107F0000A601A0E0B1E02C9130E011968C91119780
:107F100090E0982F8827822B932B1296FA010C0160
:107F200087BEE89511244E5F5F4FF1E0A038BF0790
:107F300051F7F601A7BEE89507B600FCFDCF97BE46
:107F4000E89526C08437B1F42ED02DD0F82E2BD052
:107F50003CD0F601EF2C8F010F5F1F4F84911BD097
:107F6000EA94F801C1F70894C11CD11CFA94CF0C13
:107F7000D11C0EC0853739F428D08EE10CD085E9AC
:107F80000AD08FE07ACF813511F488E018D01DD067
:107F900080E101D065CF982F8091C00085FFFCCF94
:107FA0009093C60008958091C00087FFFCCF809118
:107FB000C00084FD01C0A8958091C6000895E0E648
:107FC000F0E098E1908380830895EDDF803219F02E
:107FD00088E0F5DFFFCF84E1DECF1F93182FE3DFCA
:107FE0001150E9F7F2DF1F91089580E0E8DFEE27F6
:047FF000FF270994CA
:027FFE00040479
:0400000300007E007B
:00000001FF