:100000000C94AC040C94D4040C94D4040C943A0DC9
:100010000C943A0D0C943A0D0C94D4040C94D40422
:100020000C94D4040C94D4040C94D4040C94D404F0
:100030000C94D4040C94D4040C94D4040C94D404E0
:100040000C94EA080C94D4040C94EA070C94C407AA
:100050000C94D4040C94D4040C94D4040C94D404C0
:100060000C94D4040C94D404000000002400270055
:100070002A000D0A4F534320646964206E6F742078
:100080007374617274000D0A58424F5820555342E0
:10009000204C696272617279205374617274656474
:1000A00000000100080002000400200010004000D1
:1000B00080000000000100020020001000400080CD
:1000C0000004000800000203040501526967687417
:1000D000486174593A2000526967687448617458DD
:1000E0003A20004C656674486174593A20004C65AA
:1000F0006674486174583A20004261636B0053741F
:10010000617274000000000800020100000304078F
:1001100000000000000000000000C1C081C14001DB
:1001200001C3C003800241C201C6C006800741C7A7
:100130000005C1C581C4400401CCC00C800D41CD77
:10014000000FC1CF81CE400E000AC1CA81CB400B47
:1001500001C9C009800841C801D8C018801941D917
:10016000001BC1DB81DA401A001EC1DE81DF401FA7
:1001700001DDC01D801C41DC0014C1D481D54015B7
:1001800001D7C017801641D601D2C012801341D3C7
:100190000011C1D181D0401001F0C030803141F157
:1001A0000033C1F381F240320036C1F681F74037A7
:1001B00001F5C035803441F4003CC1FC81FD403D77
:1001C00001FFC03F803E41FE01FAC03A803B41FB47
:1001D0000039C1F981F840380028C1E881E9402997
:1001E00001EBC02B802A41EA01EEC02E802F41EFA7
:1001F000002DC1ED81EC402C01E4C024802541E5B7
:100200000027C1E781E640260022C1E281E34023C6
:1002100001E1C021802041E001A0C060806141A1D6
:100220000063C1A381A240620066C1A681A74067A6
:1002300001A5C065806441A4006CC1AC81AD406D76
:1002400001AFC06F806E41AE01AAC06A806B41AB46
:100250000069C1A981A840680078C1B881B9407916
:1002600001BBC07B807A41BA01BEC07E807F41BFA6
:10027000007DC1BD81BC407C01B4C074807541B5B6
:100280000077C1B781B640760072C1B281B34073C6
:1002900001B1C071807041B00050C1908191405156
:1002A0000193C053805241920196C05680574197A6
:1002B0000055C19581944054019CC05C805D419D76
:1002C000005FC19F819E405E005AC19A819B405B46
:1002D0000199C059805841980188C0488049418996
:1002E000004BC18B818A404A004EC18E818F404FA6
:1002F000018DC04D804C418C0044C18481854045B6
:100300000187C047804641860182C04280434183C5
:100310000041C1818180404000000190016000F0F7
:1003200002C0035003A0023007C0065006A00730E9
:1003300005000490046005F00DC00C500CA00D30B9
:100340000F000E900E600FF00A000B900B600AF089
:1003500008C0095009A0083019C0185018A0193059
:100360001B001A901A601BF01E001F901F601EF0E9
:100370001CC01D501DA01C3014001590156014F0F9
:1003800016C0175017A0163013C0125012A0133009
:1003900011001090106011F031C0305030A0313099
:1003A00033003290326033F036003790376036F0E9
:1003B00034C0355035A034303C003D903D603CF0B9
:1003C0003EC03F503FA03E303BC03A503AA03B3089
:1003D00039003890386039F028002990296028F0D9
:1003E0002AC02B502BA02A302FC02E502EA02F30E9
:1003F0002D002C902C602DF025C0245024A02530F9
:1004000027002690266027F022002390236022F008
:1004100020C0215021A0203061C0605060A0613018
:1004200063006290626063F066006790676066F0E8
:1004300064C0655065A064306C006D906D606CF0B8
:100440006EC06F506FA06E306BC06A506AA06B3088
:1004500069006890686069F078007990796078F058
:100460007AC07B507BA07A307FC07E507EA07F30E8
:100470007D007C907C607DF075C0745074A07530F8
:1004800077007690766077F072007390736072F008
:1004900070C0715071A0703050005190516050F098
:1004A00052C0535053A0523057C0565056A05730E8
:1004B00055005490546055F05DC05C505CA05D30B8
:1004C0005F005E905E605FF05A005B905B605AF088
:1004D00058C0595059A0583049C0485048A04930D8
:1004E0004B004A904A604BF04E004F904F604EF0E8
:1004F0004CC04D504DA04C3044004590456044F0F8
:1005000046C0475047A0463043C0425042A0433007
:1005100041004090406041F0000051C0A1C0F00097
:1005200041C11001E001B1C181C2D002200271C2FB
:10053000C00391C361C3300301C55005A005F1C5D7
:10054000400411C4E1C4B0048007D1C721C77007BB
:10055000C1C69006600631C601CA500AA00AF1CA97
:10056000400B11CBE1CBB00B8008D1C821C870087B
:10057000C1C99009600931C9000F51CFA1CFF00F57
:1005800041CE100EE00EB1CE81CDD00D200D71CD3B
:10059000C00C91CC61CC300C01D45014A014F1D417
:1005A000401511D5E1D5B0158016D1D621D67016DB
:1005B000C1D79017601731D7001151D1A1D1F011D7
:1005C00041D01010E010B1D081D3D013201371D3DB
:1005D000C01291D261D23012001E51DEA1DEF01E97
:1005E00041DF101FE01FB1DF81DCD01C201C71DC5B
:1005F000C01D91DD61DD301D01DB501BA01BF1DB57
:10060000401A11DAE1DAB01A8019D1D921D970195A
:10061000C1D89018601831D801E85028A028F1E816
:10062000402911E9E1E9B029802AD1EA21EA702ABA
:10063000C1EB902B602B31EB002D51EDA1EDF02D96
:1006400041EC102CE02CB1EC81EFD02F202F71EF7A
:10065000C02E91EE61EE302E002251E2A1E2F02296
:1006600041E31023E023B1E381E0D020202071E0BA
:10067000C02191E161E1302101E75027A027F1E796
:10068000402611E6E1E6B0268025D1E521E570257A
:10069000C1E49024602431E4003C51FCA1FCF03C16
:1006A00041FD103DE03DB1FD81FED03E203E71FE9A
:1006B000C03F91FF61FF303F01F95039A039F1F996
:1006C000403811F8E1F8B038803BD1FB21FB703B9A
:1006D000C1FA903A603A31FA01F65036A036F1F696
:1006E000403711F7E1F7B0378034D1F421F470349A
:1006F000C1F59035603531F5003351F3A1F3F03396
:1007000041F21032E032B1F281F1D031203171F199
:10071000C03091F061F03030000001FC01B80044BD
:10072000013000CC008801740260039C03D80224CD
:10073000035002AC02E8031404C0053C05780484AD
:1007400005F0040C044805B406A0075C071806E48D
:100750000790066C062807D40BC00A3C0A780B8465
:100760000AF00B0C0B480AB409A0085C081809E44D
:100770000890096C092808D40F000EFC0EB80F442D
:100780000E300FCC0F880E740D600C9C0CD80D240D
:100790000C500DAC0DE80C1415C0143C14781584E5
:1007A00014F0150C154814B417A0165C161817E4AD
:1007B0001690176C172816D4110010FC10B81144AD
:1007C000103011CC118810741360129C12D81324AD
:1007D000125013AC13E812141E001FFC1FB81E4465
:1007E0001F301ECC1E881F741C601D9C1DD81C242D
:1007F0001D501CAC1CE81D141AC01B3C1B781A842D
:100800001BF01A0C1A481BB418A0195C191818E42C
:100810001990186C182819D429C0283C28782984E4
:1008200028F0290C294828B42BA02A5C2A182BE48C
:100830002A902B6C2B282AD42D002CFC2CB82D446C
:100840002C302DCC2D882C742F602E9C2ED82F244C
:100850002E502FAC2FE82E14220023FC23B8224464
:10086000233022CC228823742060219C21D820248C
:10087000215020AC20E8211426C0273C277826846C
:1008800027F0260C264827B424A0255C251824E44C
:100890002590246C242825D43C003DFC3DB83C44E4
:1008A0003D303CCC3C883D743E603F9C3FD83E246C
:1008B0003F503EAC3EE83F1438C0393C397838846C
:1008C00039F0380C384839B43AA03B5C3B183AE46C
:1008D0003B903A6C3A283BD437C0363C3678378464
:1008E00036F0370C374836B435A0345C341835E46C
:1008F0003490356C352834D4330032FC32B833446C
:10090000323033CC338832743160309C30D831246B
:10091000305031AC31E830140000000025002800D0
:100920002B0000000000230026002900040404041A
:100930000404040402020202020203030303030389
:100940000102040810204080010204081020010266
:10095000040810206C195C1911241FBECFEFD8E0D9
:10096000DEBFCDBF23E0ACE8B1E001C01D92AC36E4
:10097000B207E1F711E0A0E0B1E0E4E4FCE302C07B
:1009800005900D92AC38B107D9F714E0CBEAD4E06A
:1009900004C02197FE010E94CD1CCA3AD107C9F7B5
:1009A0000E9472140C94151E0C940000FC01538DCF
:1009B000448D252F30E0842F90E0821B930B541739
:1009C00010F0CF96089501970895FC01918D828DC6
:1009D000981761F0828DDF01A80FB11D5D968C9193
:1009E000928D9F5F9F73928F90E008958FEF9FEF9E
:1009F0000895FC01918D828D981731F0828DE80F5A
:100A0000F11D858D90E008958FEF9FEF0895FC0113
:100A1000918D228D892F90E0805C9F4F821B9109E0
:100A20008F73992708958CED91E00E94070521E0CE
:100A3000892B09F420E0822F0895FC01848DDF01C9
:100A4000A80FB11DA35ABF4F2C91848D90E0019641
:100A50008F739927848FA689B7892C93A089B18930
:100A60008C9180648C93938D848D981306C002883A
:100A7000F389E02D80818F7D80830895EF92FF922E
:100A80000F931F93CF93DF93EC0181E0888F9B8DB1
:100A90008C8D981305C0E889F989808185FD24C073
:100AA000F62E0B8D10E00F5F1F4F0F731127E02EF6
:100AB0008C8DE8120CC00FB607FCFACFE889F989D3
:100AC000808185FFF5CFCE010E941D05F1CF8B8D72
:100AD000FE01E80FF11DE35AFF4FF0820B8FEA8908
:100AE000FB898081806207C0EE89FF896083E88985
:100AF000F98980818064808381E090E0DF91CF91EB
:100B00001F910F91FF90EF900895CF93DF93EC0129
:100B1000888D8823C9F0EA89FB89808185FD05C01D
:100B2000A889B9898C9186FD0FC00FB607FCF5CF57
:100B3000808185FFF2CFA889B9898C9185FFEDCF9F
:100B4000CE010E941D05E7CFDF91CF91089580E08F
:100B500090E0892B29F00E94130581110C9400006C
:100B600008953FB7F8948091970190919801A091D2
:100B70009901B0919A0126B5A89B05C02F3F19F0A5
:100B80000196A11DB11D3FBFBA2FA92F982F88270D
:100B9000820F911DA11DB11DBC01CD0142E0660F68
:100BA000771F881F991F4A95D1F70895CF93DF9338
:100BB000EC011A828B819C81DC01ED91FC91048017
:100BC000F581E02D6D8109951D82198A80E0DF9104
:100BD000CF9108956E3584E0780759F06D3A9BE126
:100BE000790739F06E3286E1780719F06F367E406A
:100BF000A1F44E3882E0580791F0463190EF590742
:100C000071F0413084E0580751F081E0433192E0C7
:100C1000590739F04F3E5E4B21F080E0089581E0A6
:100C200008950895FC0181890895FC018581089546
:100C3000DF92EF92FF920F931F93CF93DF93EC011C
:100C4000E62EF12C85E0689FB0011124FE01E60F2D
:100C5000F71F8085182F177086FF21C001E085E0FF
:100C6000D82E8FEF800F8F3008F001E0FE01D09E6C
:100C7000E00DF11D112480858695869586958770F7
:100C8000811305C0602FCE010E941806EACF0F5FC6
:100C9000003161F78D81811302C011501D8385E001
:100CA0008E9DF0018F9DF00D1124EC0FFD1F10861D
:100CB00081E0818712862296D783C683DF91CF9108
:100CC0001F910F91FF90EF90DF900895FC01613428
:100CD000C1F43F969C01265A3F4F61E0AC014E5F44
:100CE0005F4FDF0112971C9211966C93108213973D
:100CF0004D935C933596E217F30799F7FC01158243
:100D000008953D9621E03081361303C0622F0C9484
:100D100018062F5F35962031B1F70895CF93DF93F2
:100D2000FC01862F807809F051C0283008F04FC0B0
:100D3000442321F09581973009F449C0EF012D96A5
:100D4000A0E0B0E011969881911103C0662331F0C4
:100D500021C02596AF30B105A9F739C085E08A9F3B
:100D6000E0018B9FD00D1124CE0FDF1F442331F003
:100D700081E4888785818F5F858302C081E08887D1
:100D800025E02A9FC0012B9F900D1124E80FF91F29
:100D900080851DC06770660F660F660F442341F0A3
:100DA000606485818F5F85838770687F682B03C04F
:100DB0002770687B622B25E02A9FC0012B9F900D36
:100DC0001124E80FF91F6087862F01C080E0DF91B2
:100DD000CF910895611102C006960895FC013D96D9
:100DE00021E03081361307C035E0239F800D911D2F
:100DF0001124069608952F5F3596203191F780E0F3
:100E000090E008950E94001E8F929F92AF92BF9231
:100E1000CF92DF92EF920F931F93CF93DF9300D087
:100E200000D000D0CDB7DEB7FC012189222309F420
:100E300098C06C0180E290E09E838D835F01F8E2B0
:100E4000AF0EB11CF60141856581838094801C82C0
:100E50001B821A8219828E010F5F1F4F9E012D5F28
:100E60003F4FC4010E94A11381110CC049815A81D6
:100E70006B817C81E12C85019E012B5F3F4FC4017A
:100E80000E94F70DAB2809F46CC0F60180A5811112
:100E900068C081A5843109F064C022A583A590E0D3
:100EA000A0E0B0E0DC0199278827B22B44A550E0F0
:100EB000542F442725A5422B60E070E0842B952B0E
:100EC000A62BB72B828B938BA48BB58B27A530E0F9
:100ED000322F222746A5242B358F248F21A930E0DD
:100EE000322F222740A9242B378F268F23A930E0C9
:100EF000322F222742A9242B31A320A325A930E099
:100F0000322F222744A9242B33A322A30689178931
:100F1000208D318D80179107A207B30711F14D0184
:100F2000AA24BB24B901A8014095509560957095FD
:100F3000AB016627772748215921538F428F011132
:100F400004C0882311F041E047A3111105C0992383
:100F500019F021E0F60126A3F601868B978BA08F6E
:100F6000B18F80E026960FB6F894DEBF0FBECDBFDE
:100F7000DF91CF911F910F91EF90DF90CF90BF90B5
:100F8000AF909F908F9008951F920F920FB60F927F
:100F900011242F933F934F935F936F937F938F937E
:100FA0009F93AF93BF93EF93FF938CED91E00E94DB
:100FB0001D05FF91EF91BF91AF919F918F917F910F
:100FC0006F915F914F913F912F910F900FBE0F90B6
:100FD0001F9018951F920F920FB60F9211242F9306
:100FE0008F939F93EF93FF93E091EC01F091ED01CC
:100FF0008081E091F201F091F30182FD12C09081B5
:101000008091F5018F5F8F732091F601821751F067
:10101000E091F501F0E0E452FE4F958F8093F501E9
:1010200001C08081FF91EF919F918F912F910F903F
:101030000FBE0F901F90189590E0FC01EC5FFE4FE3
:101040003491FC01E05CF64F2491FC01E45DF64F25
:10105000E491EE2309F43BC0332339F1333091F0AE
:1010600038F43130A9F0323001F584B58F7D12C0EB
:10107000373091F03830A1F03430B9F480918000ED
:101080008F7D03C0809180008F77809380000DC09A
:1010900084B58F7784BD09C08091B0008F7703C07D
:1010A0008091B0008F7D8093B000F0E0EE0FFF1FC5
:1010B000E85EF64FA591B4918FB7F894EC91611169
:1010C00003C020952E2301C02E2B2C938FBF089593
:1010D000CF93DF9390E0FC01E05CF64F2491FC019C
:1010E000E45DF64F8491882361F190E0880F991FA9
:1010F000FC01E859FF4FC591D491FC01E85EF64F21
:10110000A591B491611109C09FB7F8948881209589
:1011100082238883EC912E230BC0623061F49FB749
:10112000F8943881822F809583238883EC912E2B2D
:101130002C939FBF06C08FB7F894E8812E2B28838D
:101140008FBFDF91CF9108958F929F92AF92BF9200
:10115000CF92DF92EF92FF926B017C010E94B1056A
:101160004B015C01C114D104E104F104F1F00E94CF
:10117000B105DC01CB0188199909AA09BB09883E90
:101180009340A105B10570F321E0C21AD108E1082E
:10119000F10888EE880E83E0981EA11CB11CC114D2
:1011A000D104E104F10419F7DDCFFF90EF90DF9057
:1011B000CF90BF90AF909F908F9008952FB7F894E5
:1011C00060919301709194018091950190919601A5
:1011D0002FBF08951F920F920FB60F9211242F93D5
:1011E0003F938F939F93AF93BF938091930190917F
:1011F0009401A0919501B09196013091920123E064
:10120000230F2D3720F40196A11DB11D05C026E83E
:10121000230F0296A11DB11D20939201809393018B
:1012200090939401A0939501B093960180919701BA
:1012300090919801A0919901B0919A010196A11DF8
:10124000B11D8093970190939801A0939901B09359
:101250009A01BF91AF919F918F913F912F910F90E4
:101260000FBE0F901F9018959C01E62F842F5AE017
:10127000652F0E94771C2E0F311DF9013197905D6B
:10128000908331970E94771C905D908331970E94E4
:10129000771C905D908308958F929F92AF92BF923A
:1012A000CF92EF920F93FC011F921F927F936F9347
:1012B0005F934F934A01A12CB12C82E0C82EE12C00
:1012C00009E021E246816581838194810E94D70EE5
:1012D0000F900F900F900F900F900F900F91EF9035
:1012E000CF90BF90AF909F908F9008952F923F9294
:1012F0004F925F926F927F928F929F92AF92BF9226
:10130000CF92DF92EF92FF920F931F93CF93DF93D1
:10131000CDB7DEB767970FB6F894DEBF0FBECDBF6F
:10132000DC0113964D905C90149715961C91111149
:101330005EC1F22E4F8BD62E3C01D201ED91FC9175
:101340000190F081E02D60E0C20109951C01009739
:1013500011F416ED54C1FC010190F081E02DFE8BDB
:10136000ED8BEF2B09F445C193012A5F3F4F3C8B76
:101370002B8BDC0111963C932E931496FC921F92BA
:101380001F92CE0101969F938F931F9282E18F93BC
:1013900092E1892E912CA12CB12CCC24C394E12C68
:1013A00006E020E840E060E0F301838194810E9440
:1013B000D70E082FED89FE89D101ED93FC930F9094
:1013C0000F900F900F900F900F90811106C12985FB
:1013D0003A858B859C852E35F4E03F0761F02D3AE8
:1013E0004BE1340741F02E32A6E13A0721F02F36C7
:1013F0003E4009F0EFC08F38E2E09E0709F4EAC0F2
:101400008931F7E09F0709F4E5C0813922E09207AE
:1014100009F4E0C08E3832E0930781F0863140EF66
:10142000940761F08130A4E09A0741F08331B2E083
:101430009B0721F08F3E9E4B09F0CCC0D201ED916D
:10144000FC910280F381E02D2F8940E06D2DC201D7
:101450000995F3018583882309F4CDC09885978386
:10146000482F60E0838194810E941714082FD201D5
:10147000ED91FC91D10114961C92882359F00480BF
:10148000F581E02DD30115966C91C2010995F30108
:101490001582ABC00190F081E02DD30115966C91BF
:1014A000C2010995009709F454CFFC01F482D301DD
:1014B00015960C91159713968D919C911497EB8925
:1014C000FC89EF2B09F499C0602F0E94EA06FC0109
:1014D000892B09F481C002832B893C8931832083C5
:1014E000DD24D394D382D3011996DC92199783E03B
:1014F000F82E90E21A969C931A9784E01B968C9390
:101500001B9722E01C962C931C971D969C931D976D
:101510001E968C931E9715960C911597602F139617
:101520008D919C9114970E94EA06FC01892B09F485
:1015300053C002832B893C8931832083F38268EC7A
:1015400070E080E090E00E94A4081F921F921F921A
:101550001F921F921F92812C912CA12CB12CC12C77
:10156000EE24E39409E020E0D30116964C911697FF
:1015700015966C91159713968D919C9114970E94D6
:10158000D70E082F0F900F900F900F900F900F9085
:10159000811123C0D3011F96ED91FC915097309794
:1015A00011F0099512C0E6ECF0E0E491B301685B3C
:1015B0007F4FDB01DC921196FC921196EC5FEC936D
:1015C00043E050E0C3010E944C0981E0F3018283B3
:1015D000818B15C001ED01C006EDD301ED91FC91A9
:1015E0000480F581E02DC3010995102F08C019ED85
:1015F00006C017ED04C014ED02C008EDEECF812F38
:1016000067960FB6F894DEBF0FBECDBFDF91CF91C6
:101610001F910F91FF90EF90DF90CF90BF90AF9010
:101620009F908F907F906F905F904F903F902F9002
:1016300008950F931F93CF93DF93C82FD62F8A015E
:1016400080E591E00E94F40D0E94E80D8C2F8260ED
:101650000E94ED0DCD2FD0E0209721F0BE01C801F2
:101660000E94CA0DC00FD11F0E94EA0D0E94EC0D0E
:10167000CE01DF91CF911F910F9108951F93CF93CA
:10168000DF9300D01F92CDB7DEB7182F80E591E031
:101690006B830E94F40D0E94E80D126019836B8128
:1016A0006A8362E070E0CE0101960E94CA0D0E943A
:1016B000EA0D0E94EC0D0F900F900F90DF91CF91EB
:1016C0001F9108951F93CF93DF931F92CDB7DEB77D
:1016D000182F80E591E00E94F40D0E94E80D812F03
:1016E0000E94ED0D80E00E94ED0D89830E94EA0DBD
:1016F0000E94EC0D89810F90DF91CF911F91089589
:1017000081E0089580E0089580E00895089580E0E4
:10171000089580E0089580E0089580E0089580E0D5
:10172000089520917B0230917C022817390771F4CB
:101730009091790280917A02981741F0E0917902B4
:10174000F0E0E556FE4F808190E008958FEF9FEF27
:10175000089508951F93CF93DF93DC015C962D913C
:101760003C915D972115310539F481E090E01396A5
:101770009C938E9312973DC05196ED91FC91529798
:1017800050969C915097892F80951FB75E964C91EB
:101790005E9741FB772770F941FD6095F894408191
:1017A000772311F0492B01C048234083E901219799
:1017B000F1F748E0508160FF02C0592B01C0582367
:1017C0005083E9012197F1F76695415099F7772306
:1017D00021F090818923808303C08081982B90839E
:1017E0001FBF5C968D919C915D970197F1F721E069
:1017F00030E0C901DF91CF911F91089520917B02C4
:1018000030917C022817390771F480917A02209177
:10181000790290E0805C9F4F821B910960E470E048
:101820000E94831C089580E090E0089520917B023F
:1018300030917C0228173907B9F490917902809190
:101840007A02981789F0E0917902F0E0E556FE4FB0
:1018500080812091790230E02F5F3F4F2F73332733
:101860002093790290E008958FEF9FEF08950895F7
:1018700080E090E008958F929F92AF92BF92CF92B6
:10188000DF92EF92FF920F931F93CF93DF93862EF9
:10189000942E59010E94DE086B017C0128E8C20EDB
:1018A00023E1D21EE11CF11C00E010E0D0E0C0E01A
:1018B00098280E94DE08DC01CB018C199D09AE0935
:1018C000BF09B7FF2DC0692D80EF0E943E0B0E941B
:1018D000DE08DC01CB018C199D09AE09BF09B7FFF9
:1018E00009C088EC0E94620B87FFF1CF60E888ECAA
:1018F0000E943E0B88EF0E94620BC82FCF70C4304D
:1019000019F0CE3051F00CC00F5F1F4FA114B1047D
:1019100081F20A151B0569F603C0DF5FD33049F673
:101920008C2FDF91CF911F910F91FF90EF90DF905F
:10193000CF90BF90AF909F908F9008959F92AF925D
:10194000BF92CF92DF92EF92FF920F931F93CF93AC
:10195000DF937C01C42F122F992493946C01C60E3F
:10196000D11CC60ED11C86E5C80ED11CA42EB12CEC
:10197000ABE2AA0EB11CAA0CBB1CAE0CBF1CF6013C
:1019800080819181DC01ED91FC910280F381E02D59
:10199000202F412F6C2F0995803EC9F4C1110BC037
:1019A00061E088EE0E943E0B66E670E080E090E029
:1019B0000E94A40816C0F50180819181DC01ED919F
:1019C000FC910284F385E02D612F09950AC08D30CA
:1019D00031F49FEF990D933008F040C016C081118B
:1019E0003DC0F60180819181DC01ED91FC91019077
:1019F000F081E02D202F412F6C2F0995D82F8D30AD
:101A000061F48FEF890D833050F464E670E080E07C
:101A100090E00E94A4089394B2CF8823F1F0C11102
:101A20000BC061E088EE0E943E0B66E670E080E04D
:101A300090E00E94A40811C0EC2FF0E0BB96EE0FDE
:101A4000FF1FEE0DFF1D80819181DC01ED91FC9166
:101A50000284F385E02D612F09958D2FDF91CF91C1
:101A60001F910F91FF90EF90DF90CF90BF90AF90BC
:101A70009F9008951F920F920FB60F9211242F93EB
:101A80003F934F935F936F937F938F939F93AF9306
:101A9000BF93EF93FF93E0917B02F0917C0230972C
:101AA00009F451C0968DA685B785858591FF04C040
:101AB0009C91892329F447C09C91892309F043C054
:101AC000A389B4899C918589809589238C93868983
:101AD00097890197F1F7608D718DA685B78555853A
:101AE00038E020E0CB010197F1F7822F90E0959547
:101AF0008795282F4C91452309F02068315091F7A4
:101B0000868D81FD209580917A0290E001968F73F9
:101B1000992730917902381749F0A0917A02B0E004
:101B2000A556BE4F2C9380937A0203C0868D8160A8
:101B3000868F828D938D0197F1F7A389B4899C914B
:101B40008589892B8C93FF91EF91BF91AF919F91E4
:101B50008F917F916F915F914F913F912F910F9056
:101B60000FBE0F901F901895E0917B02F0917C02C0
:101B7000E817F90769F4A389B4899C918589809550
:101B800089238C9310927C0210927B0281E008954D
:101B900080E00895FC0120812EBDDC0131969C017E
:101BA000260F371FE217F30741F051910DB407FEDE
:101BB000FDCF4EB55EBD4D93F5CF61507109FC016F
:101BC000E60FF71F0DB407FEFDCF8EB58083089595
:101BD0002A9808952A9A089508958EBD00000DB49C
:101BE00007FEFDCF8EB508958CBD9DBD08952F9243
:101BF0003F924F925F926F927F928F929F92AF929D
:101C0000BF92CF92DF92EF92FF920F931F93CF93E9
:101C1000DF93CDB7DEB729970FB6F894DEBF0FBEBE
:101C2000CDBF1C01798768875B834A836901D9012D
:101C30008D909C901197FB01F181F9831D921C926C
:101C4000DB0112968C9181FD02C060E101C060E26F
:101C500088EE0E943E0B8E2D90E0A0E0B0E08C83D9
:101C60009D83AE83BF83482C2A813B81A885B9859B
:101C70004C9160E0C1010E943B0CF82EB6E08B1342
:101C800016C088EF0E94620B8295817091E08927CF
:101C9000E885F985928180FB91F9928391FD02C0DC
:101CA00060E101C060E288EE0E943E0BDDCF811151
:101CB00064C088EC0E94620B82FF5DC080E30E94DA
:101CC000620B582E90E08816990608F4542CD60121
:101CD0008D919C91652C712CF401E81BF90BCF01BF
:101CE000F7FF02C080E090E05301861597050CF4E1
:101CF0005C0180E591E00E94F40D0E94E80D88E00F
:101D00000E94ED0DA50160E070E0C8010E94051E73
:101D1000A114B10421F0B501C8010E94CA0D0A0D39
:101D20001B1D0E94EA0D64E088EC0E943E0BD60168
:101D30008D919C911197680E791E6D927C92B9815C
:101D40005B1618F06814790460F088EF0E94620B4B
:101D500082958170E885F985928180FB91F9928363
:101D60000CC0EE2009F480CF6C817D818E819F8133
:101D70000E94A40879CF80EFF82E8F2D29960FB6F8
:101D8000F894DEBF0FBECDBFDF91CF911F910F91B1
:101D9000FF90EF90DF90CF90BF90AF909F908F908B
:101DA0007F906F905F904F903F902F9008952F926B
:101DB0003F924F925F926F927F928F929F92AF92DB
:101DC000BF92CF92DF92EF92FF920F931F93CF9328
:101DD000DF93CDB7DEB768970FB6F894DEBF0FBEBE
:101DE000CDBF2C014B8B322E202EFC2CCDA4DEA49B
:101DF0006FA478A81E861D861C861B868E01055F33
:101E00001F4F9E01235F3F4F0E94A113811159C1B3
:101E100039822A82EB82FC82BE82AD8298868F82D2
:101E2000AE014F5F5F4F68E080E20E94190B2B8587
:101E30003C854B8960E1C2010E943B0C182F811147
:101E4000FCC0232C221C2224221C6114710409F4DE
:101E5000E5C0AD84BE84222009F456C0D501129697
:101E60008C911297826012968C9354013324339490
:101E7000A114B10409F444C0DA86C9864B855C8597
:101E80006D857E85E12C83019E01275F3F4FC20156
:101E90000E94F70D182F863079F4ED84FE8488EFC8
:101EA0000E94620B85FB882780F98325F7019281C8
:101EB00080FB91F99283DCCF8111BFC029A93AA997
:101EC00021153105A1F0D901ED91FC9111970190F7
:101ED000F081E02DC4018A199B09988B8F87698551
:101EE0007A859E01215F3F4FA301CD010995898528
:101EF0009A85A81AB90A8C159D0508F0B9CF8EC02D
:101F0000112309F490C099C0F50182818160828318
:101F1000EB84FC8401818FEF800F803408F08BC04C
:101F20000E94DE089B01AC0128573C4E4F4F5F4F8B
:101F30002C8B3D8B4E8B5F8BD50112968C9180FD47
:101F400002C060E401C060E888EE0E943E0B202FD2
:101F500030E03A8B298BC114D10409F44DC04601FD
:101F600029893A892C153D0508F44901888EA30179
:101F7000682D80E10E94190B682D88E30E943E0BBA
:101F8000D5016C91606280EF0E943E0B88EC0E944C
:101F9000620B87FFFBCF60E888EC0E943E0B88EF66
:101FA0000E94620B182F1F70212C312C00E011238E
:101FB00071F00E94DE08DC01CB012C893D894E893D
:101FC0005F89821B930BA40BB50BB7FD05C0C81826
:101FD000D908680C791CBFCF163089F11E3009F47E
:101FE00068C0143049F4BFEF2B1A3B0AE114F10426
:101FF000F1F12E143F04D9F588EF0E94620B85FBA6
:10200000882780F9D50112969C91129780FB90F950
:1020100012969C93112309F450C00FC02B853C8568
:10202000211003C04CC02B853C8560EA4B89C2015E
:102030000E943B0C46C08AED44C0812F42C088EF0D
:102040000E94620B85FB882780F9E1E08E27D5018D
:1020500012969C91129780FB90F912969C9390FD9A
:1020600002C060E401C060E888EE0E943E0B60E0C0
:1020700088E30E943E0BF301608180E10E943E0BE9
:10208000688D88E30E943E0BD5016C91606280EF01
:102090000E943E0B88EC0E94620B87FFFBCF60E83A
:1020A00088EC0E943E0B88EF0E94620B182F1F7075
:1020B0007ECF0F5F0330D9F69FCF2B853C8560E83C
:1020C000B5CF68960FB6F894DEBF0FBECDBFDF91D7
:1020D000CF911F910F91FF90EF90DF90CF90BF9025
:1020E000AF909F908F907F906F905F904F903F90B8
:1020F0002F9008951F93CF93DF9300D01F92CDB7F9
:10210000DEB7182F80E591E06B830E94F40D0E94EA
:10211000E80D126019836B816A8362E070E0CE0182
:1021200001960E94CA0D0E94EA0D0F900F900F9029
:10213000DF91CF911F9108951F93CF93DF931F924B
:10214000CDB7DEB7182F80E591E00E94F40D0E9414
:10215000E80D812F0E94ED0D80E00E94ED0D898336
:102160000E94EA0D89810F90DF91CF911F91089510
:10217000009769F0FC0101900020E9F73197AF0169
:10218000481B590BBC018CED91E00C94471480E086
:1021900090E00895CF93DF93C0E1D7E280917E0273
:1021A00090917F02DC01ED91FC910084F185E02D9E
:1021B0000995892B61F080917E0290917F02DC016C
:1021C000ED91FC910284F385E02D099507C02197DC
:1021D00029F78AE791E00E94B8108FEFDF91CF9145
:1021E0000895CF92DF92EF92FF920F931F93CF93B8
:1021F000DF93CDB7DEB7CF5FD1090FB6F894DEBF5E
:102200000FBECDBF0E94CA108E010F5F1F4F9FEF00
:10221000F80111929A95E9F76801E82EF12CC601B0
:10222000801B910B8E159F0534F40E94CA10F60195
:1022300081936F01F4CF0E94CA100E94CA1069E80E
:1022400071E0C8010E940C1E21E0892B09F020E0FA
:10225000822FC150DF4F0FB6F894DEBF0FBECDBF47
:10226000DF91CF911F910F91FF90EF90DF90CF9072
:1022700008950F931F93CF93DF938C01C0E0D0E0BC
:10228000F801EC0FFD1F6491662371F0E091DC0111
:10229000F091DD010190F081E02D8CED91E0099548
:1022A000892B11F02196ECCFCE01DF91CF911F91B8
:1022B0000F91089588EF0E949C10807C8034A1F0DB
:1022C00018F4882301F10895803819F0803CB9F0A2
:1022D000089588ED0E949C1081FD0BC069EC88ED8B
:1022E0000E947A1082E00CC088ED0E949C1081FD53
:1022F000F5CF6BEC88ED0E947A1083E001C081E09D
:102300008093DB01089561ED88ED0E947A101092B0
:10231000DB0108954F925F926F927F928F929F920E
:10232000AF92BF92CF92DF92EF92FF920F931F93E3
:10233000CF93DF935C01162FC62ED12CC6010196D8
:102340000E94D31C7C0180917E0290917F02DC016F
:10235000ED91FC910190F081E02D612F0995CE2D3A
:10236000DF2D19938501C8018A199B098C159D05DC
:102370009CF480917E0290917F024801DC01ED91F6
:10238000FC910190F081E02DD8016D918D010995AE
:10239000F40180818993E7CFC601B7010FEF1FEFEA
:1023A000DC011196FB019B0123703327232BD1F015
:1023B0008F3F2FEF920791F0A12FBB276F5F7F4FC9
:1023C0002081F801FF27E227EE0FFF1FE85EFE4F96
:1023D000059114910A271B270197E2CFEB01A0E09A
:1023E000B0E001C0EB01CD018031910508F4DAC005
:1023F000409788809980AA80BB8008251925F8011C
:10240000FF27EE0FFF1FE85EF84F25913491E12F73
:10241000FF27EE0FFF1FE85EFA4F059114914A2C3B
:10242000512C612C712C4FEF541A640A740AF2017A
:10243000EE0FFF1FE85EFE4F459154918B2C9924BF
:10244000AA24BB24F401EE0FFF1FE85EFE4FC590E7
:10245000D4908C809D80AE80BF8020273127282596
:102460003925242735272C253D25F901FF27EE0F97
:10247000FF1FE85EF84F45915491E32FFF27EE0FC1
:10248000FF1FE85EFA4F059114914A2C512C612CE4
:10249000712CEFEF5E1A6E0A7E0AF201EE0FFF1F3B
:1024A000E85EFE4F259134918B2C9924AA24BB24FD
:1024B000F401EE0FFF1FE85EFE4FC590D4908884B4
:1024C0009984AA84BB84402751274825592524276D
:1024D00035272C253D25F901FF27EE0FFF1FE85E6C
:1024E000F84FC590D490E32FFF27EE0FFF1FE85E53
:1024F000FA4F459154910A2D10E020E030E01F5F23
:102500002F4F3F4FF801EE0FFF1FE85EFE4F259162
:1025100034918B2C9924AA24BB24F401EE0FFF1FC5
:10252000E85EFE4F059114918C849D84AE84BF8437
:10253000C426D526C824D9242C253D25202731277B
:10254000F901FF27EE0FFF1FE85EF84F0591149188
:10255000E32FFF27EE0FFF1FE85EFA4F45915491DE
:102560004A2C512C612C712CFFEF5F1A6F0A7F0AE5
:10257000F201EE0FFF1FE85EFE4F259134918B2C88
:102580009924AA24BB24F401EE0FFF1FE85EFE4F3E
:10259000C590D49004271527022713270C251D2545
:1025A000609622CFED01C07FC60FD71FAF70BB274B
:1025B000AC0FBD1FCA17DB0779F0812F992729912E
:1025C000F801FF27E227EE0FFF1FE85EFE4F05919F
:1025D000149108271927EECF1093810200938002EF
:1025E00080917E0290917F02DC01ED91FC9101903F
:1025F000F081E02D602F099580917E0290917F02FD
:10260000DC01ED91FC910190F081E02D612F0995A5
:10261000C701DF91CF911F910F91FF90EF90DF9055
:10262000CF90BF90AF909F908F907F906F905F9072
:102630004F900C94681DCF930E94F110C82F0E94F8
:10264000F110C11101C080E0CF9108958F929F9247
:10265000AF92BF92CF92DF92EF92FF920F931F93B0
:10266000CF93DF93CDB7DEB7A1970FB6F894DEBF57
:102670000FBECDBF6C01990FEE08FF08F7FE31C009
:10268000E091DC01F091DD010190F081E02D6DE23F
:102690008CED91E009958C0122273327A9012C1993
:1026A0003D094E095F0919A2CE0181967C019AE08D
:1026B000892E912CA12CB12CCA01B901A50194013C
:1026C0000E94971C605DF70162937F01211531051F
:1026D0004105510589F7CF010E94B810800F911F65
:1026E0001DC0A701960119A28E010F5D1F4F8AE040
:1026F000C82ED12CE12CF12CCA01B901A7019601F9
:102700000E94971C605DF80162938F0121153105CD
:102710004105510589F7CF010E94B810A1960FB667
:10272000F894DEBF0FBECDBFDF91CF911F910F9107
:10273000FF90EF90DF90CF90BF90AF909F908F90E1
:1027400008958F929F92BF92CF92DF92EF92FF9265
:102750000F931F93CF93DF931F92CDB7DEB74C013A
:10276000B62E690149830E94EA067C0149810097DF
:1027700009F44BC0DC01ED91FC911197309709F4FD
:1027800046C013969C9180E0891731F02081241770
:1027900029F033968F5FF8CFE0E0F0E0D601ED93BB
:1027A000FC933097B1F122812695269530E02031B7
:1027B000310514F02FE030E081E090E0A0E0B0E0DF
:1027C00004C0880F991FAA1FBB1F2A95D2F7019733
:1027D000F801918380836B2D80EE0E943E0B88ED83
:1027E0000E94620B682FD70114968C91882339F0D0
:1027F000F401EA58FF4F80818260682B01C0697F35
:1028000088ED0E943E0B80E005C086ED03C087ED99
:1028100001C08BED0F90DF91CF911F910F91FF9031
:10282000EF90DF90CF90BF909F908F9008958F9200
:102830009F92AF92BF92CF92EF920F93CF931F923E
:102840001F921F921F921F921F92812C912CA12CDC
:10285000B12CC12CE42E05E020E040E00E94D70E10
:10286000C82F6CE271E080E090E00E94A4080F9015
:102870000F900F900F900F900F908C2FCF910F9182
:10288000EF90CF90BF90AF909F908F900895CF9290
:10289000DF92EF92FF920F931F93CF93DF936C0120
:1028A0007A018B01C0E0D0E0CE15DF0589F0D801B8
:1028B0006D918D01D601ED91FC910190F081E02D9B
:1028C000C6010995892B11F47E0102C02196ECCF37
:1028D000C701DF91CF911F910F91FF90EF90DF9093
:1028E000CF900895CF93DF93CDB7DEB765970FB63E
:1028F000F894DEBF0FBECDBF789484B5826084BDEE
:1029000084B5816084BD85B5826085BD85B58160F3
:1029100085BD80916E00816080936E001092810071
:10292000809181008260809381008091810081602C
:1029300080938100809180008160809380008091ED
:10294000B10084608093B1008091B0008160809379
:10295000B00080917A00846080937A0080917A0040
:10296000826080937A0080917A00816080937A00FF
:1029700080917A00806880937A001092C100E09183
:10298000EC01F091ED0182E08083E091E801F091AB
:10299000E9011082E091EA01F091EB0180E180838E
:1029A0001092F401E091F001F091F10186E0808352
:1029B000E091EE01F091EF01808180618083E091F0
:1029C000EE01F091EF01808188608083E091EE015B
:1029D000F091EF01808180688083E091EE01F091B9
:1029E000EF0180818F7D8083229A0E94EA0D1FB7BC
:1029F000F89480918C01811127C0E6E3F9E084917D
:102A0000EAE4F9E09491E82FF0E0EE0FFF1FE859B7
:102A1000FF4FA591B491EC91E92321F461E08AE0A4
:102A20000E941C0861E08AE00E9468088CB5806101
:102A30008CBD8CB580648CBD61E08DE00E9468081F
:102A400061E08BE00E94680880918C018F5F809329
:102A50008C011FBF229A0E94EA0D219868E188E844
:102A60000E947A1060E288E70E947A1060E088E7AE
:102A70000E947A1001E010E00115110509F417C455
:102A800088E60E949C100F5F1F4F80FFF5CF61EC1E
:102A900088ED0E947A1060E680ED0E947A1064E072
:102AA00088EE0E947A1088EE0E949C1082FFFBCF75
:102AB0000E945A1160E288EC0E947A1061E080E87E
:102AC0000E947A1086E890E00E94391138E0D32EF7
:102AD0001E0123E1220E311C19990DC088EC0E94C1
:102AE000620B85FF04C00E945A1160E201C060E0E1
:102AF00088EC0E943E0B8091DB01813039F050F070
:102B0000823089F0833049F511E00EC083E1809373
:102B10007D0223C080917D02807F8031F1F091E1C0
:102B200090937D021AC010E080917D02807F8031F9
:102B3000A9F40E94DE08DC01CB0188539F4FAF4F00
:102B4000BF4F80938E0190938F01A0939001B0931B
:102B5000910180E280937D0201C010E027E4622EA3
:102B600023E0722E4301D4018D919D914D01009778
:102B700039F0DC01ED91FC910680F781E02D09959B
:102B8000B7E68B16B3E09B0671F780917D02803427
:102B900009F444C050F4803231F18033C9F18131FD
:102BA00009F083C1109267030AC0813509F45FC040
:102BB000803809F471C0803509F077C140C0F30155
:102BC000819191913F01009739F0DC01ED91FC91E9
:102BD0000480F581E02D0995B7E66B16B3E07B061E
:102BE00071F782E160C10E94DE0800918E011091B0
:102BF0008F012091900130919101DC01CB01801B6C
:102C0000910BA20BB30BB7FD50C180E380937D0203
:102C100061E088EE0E943E0B80E445C188EE0E9490
:102C2000620B80FD42C188ED0E94620B682F6860D4
:102C300088ED0E943E0BE0E5E0937D0236C188EC12
:102C40000E94620B86FF31C181E580937D020E9464
:102C5000DE08DC01CB014496A11DB11D80938E01DD
:102C600090938F01A0939001B09391011EC10E9497
:102C7000DE0880908E0190908F01A0909001B0901E
:102C80009101DC01CB0188199909AA09BB09B7FD9B
:102C90000CC180E880937D021B8ADC8A8CE38D8BDB
:102CA00087EF92E0892B11F486EDF8C04090F7028F
:102CB0005090F8023092F8022092F7021093FB0233
:102CC0001F921F92A1E0B0E0AC0FBD1FBF93AF9366
:102CD0001F9282E18F9392E1892E912CA12CB12C2D
:102CE000CC24C394E12C06E020E840E060E081EFD2
:102CF00092E00E94D70E5092F8024092F7020F9095
:102D00000F900F900F900F900F908111C3C0A98466
:102D1000BA848B849C84CD80FE8087E4482E83E037
:102D2000582EF20180819181009789F1DC01ED91AB
:102D3000FC910084F185E02D0995811128C0F201F4
:102D400080819181DC01ED91FC910088F189E02D79
:102D50006F2D09958823D9F0F20180819181DC01E2
:102D6000ED91FC910484F585E02DA401B501099550
:102D7000811185C0F20180819181DC01ED91FC918E
:102D80000684F785E02D6C2D0995811178C0E394B8
:102D9000B2E04B0E511CE0E1EE12C3CFE12CD301A7
:102DA0008D919C91009799F1DC01ED91FC9100844B
:102DB000F185E02D099581112AC0F301808191816F
:102DC000DC01ED91FC910088F189E02D6F2D0995D2
:102DD000882309F418C2F30180819181DC01ED910F
:102DE000FC910484F585E02DA401B50109958111BC
:102DF0000EC0F30180819181DC01ED91FC9106848C
:102E0000F785E02D6C2D0995882309F4FCC1E39426
:102E1000B2E06B0E711CE0E1EE12C1CF8091F702BF
:102E20009091F802892B39F11093FB0220E040E0E9
:102E300060E081EF92E00E948E06E82E8823E9F0A0
:102E4000682F81EF92E00E94EA06009709F42CCFE8
:102E5000DC0114961C934E2D60E081EF92E00E94FD
:102E60001714182F8823F1F06E2D81EF92E00E9445
:102E70006606812F0FC087ED11C084ED0FC0012FB2
:102E800020E040E06E2D81EF92E00E949E0C813D9B
:102E900009F47DCF882331F0823D39F080938D0194
:102EA00080EA01C080E980937D028091A30288239B
:102EB00009F4A0C11092E902D092EA021092EB024A
:102EC0001092EC021092ED021092EE021092EF02BC
:102ED0001092F00248E050E069EE72E081EA92E080
:102EE0000E944C09EBEAF0E0459154918091BB02BD
:102EF0009091BC029A012095309528233923309374
:102F0000BC022093BB0284239523892B01F1B1E0FD
:102F1000B093E90283E08093EA028DE08093EB02B4
:102F200043E050E069EE72E081EA92E00E944C09D1
:102F30008EEF90E00E94391185E791E00E94B81071
:102F400063E080E091E00E948A110E941B13E9EA8D
:102F5000F0E0459154918091BB029091BC029A019E
:102F600020953095282339233093BC022093BB024F
:102F700084239523892B11F1EAECF0E08491F1E0B0
:102F8000F093E90293E09093EA028093EB0243E02E
:102F900050E069EE72E081EA92E00E944C0989EF0C
:102FA00090E00E94391185E791E00E94B81062E03C
:102FB00083E091E00E948A110E941B138091BD0260
:102FC0009091BE02845B924E89399A43F0F48091CD
:102FD000BF029091C002845B924E89399A4308F0F7
:102FE0004DC08091C1029091C202845B924E89399A
:102FF0009A4308F043C08091C3029091C402845B5D
:10300000924E89399A43D0F5F5C08EEE90E00E9439
:1030100039118090BD029090BE02181419040CF072
:1030200000C1FCE48F1AFDE19F0AB401092C000CD9
:10303000880B990B0E94DD1A20E036E645EC56E439
:103040000E94D61B20E030E04FE753E40E94181B9B
:103050000E94481C462F65E085E091E00E943409FB
:1030600065E085E091E00E948A110E941B13C40173
:103070000E94261388E791E00E94B8108091BF0259
:103080009091C002845B924E89399A43C8F183EED5
:1030900090E00E9439118090BF029090C0021814F5
:1030A00019040CF0E1C0BCE48B1ABDE19B0AB40129
:1030B000092C000C880B990B0E94DD1A20E036E6E3
:1030C00045EC56E40E94D61B20E030E04FE753E485
:1030D0000E94181B0E94481C462F65E080E191E089
:1030E0000E94340965E080E191E00E948A110E940B
:1030F0001B13C4010E94261388E791E00E94B810B8
:103100008091C1029091C202845B924E89399A43A8
:10311000A0F187ED90E00E9439118090C10290905B
:10312000C2021814190414F5B401092C000C880B00
:10313000990B0E94DD1A20E030E040E058E30E9445
:10314000181B20E030E044E353E40E94181B0E9467
:10315000481C462F67E08BE191E00E94340967E04C
:103160008BE191E00E948A110E941B13C4010E940E
:10317000261388E791E00E94B8108091C3029091D5
:10318000C402845B924E89399A4380F18BEC90E0C3
:103190000E9439118090C3029090C402181419043F
:1031A00014F5B401092C000C880B990B0E94DD1A50
:1031B00020E030E040E058E30E94181B20E030E0BF
:1031C00044E353E40E94181B0E94481C462F67E00A
:1031D00082E291E00E94340967E082E291E00E947D
:1031E0008A110E941B13C4010E94261385E791E0F7
:1031F0000E94B81061E070E080E090E00E94A408B6
:103200000E94A70569CC012F20E040E06E2D81EFE0
:1032100092E00E949E0C982F977F913D09F03ACE44
:10322000F6CD24EB821A22EE920AB401092C000C8E
:10323000880B990B0E94DD1A20E038E645EC56EC2D
:103240000E94D61B20E030E04FE753E40E94181B99
:103250000E94481C462F66E08AE091E00E943409F3
:1032600066E08AE091E0FFCEE4EB8E1AE2EE9E0A81
:10327000B401092C000C880B990B0E94DD1A20E088
:1032800038E645EC56EC0E94D61B20E030E04FE7D4
:1032900053E40E94181B0E94481C462F66E085E1FB
:1032A00091E00E94340966E085E191E01ECF82E75B
:1032B00090E00E943911FFCF80917E0290917F02B1
:1032C0000E94B40D85E491E0909383028093820282
:1032D00082E892E00C94B40D1092DF011092DE01AE
:1032E00088EE93E0A0E0B0E08093E0019093E101EC
:1032F000A093E201B093E30183E391E09093DD01B9
:103300008093DC0185EC90E09093E9018093E801E3
:1033100084EC90E09093EB018093EA0180EC90E0E4
:103320009093ED018093EC0181EC90E09093EF019C
:103330008093EE0182EC90E09093F1018093F00194
:1033400086EC90E09093F3018093F2011092F501E6
:103350001092F6011092F7011092F8018FE691E0B9
:103360009093F2028093F1021092F6021092F90209
:1033700081E08093FA021092FB0283EF92E0909337
:10338000F8028093F7021092F30288E08093F4022F
:103390008CE38093F50280E090E041E023EF32E09F
:1033A000FC01EF50FD4F158646871786348723872B
:1033B00005968B349105A1F71092670381E1809304
:1033C0007D0287E591E09093A2028093A10281EFB4
:1033D00092E09093A5028093A4021092A60210920C
:1033E000B2021092A70288E08093A8028CE3809337
:1033F000A9021092AA021092AB0284E08093AC0260
:103400001092AD021092AE028093AF02E7E4F3E0B7
:1034100080E090E021913191232B51F4880F991F86
:10342000FC01E95BFC4F81EA92E09183808304C058
:1034300001968031910571F71092850210928402F5
:1034400088EE93E0A0E0B0E080938602909387023C
:10345000A0938802B093890285E491E0909383025F
:1034600080938202109299021092980210929B020D
:1034700010929A0210929D0210929C0210929F024A
:1034800010929E026091A0026E7F6D7F6093A002F9
:103490006695617081E0682783E00E941C0861E006
:1034A00083E00E946808E3E4F9E0E491E09392028B
:1034B000EFE2F9E0E491F0E0EE0FFF1FE85EF64F77
:1034C00085919491909394028093930260E082E0BE
:1034D0000E9468088091A00281FD04C061E082E042
:1034E0000E941C0882E080938E02E2E4F9E0E491FD
:1034F000E0938F02EEE2F9E0E491F0E0EE0FFF1FBF
:10350000EE5DF64F85919491909391028093900295
:1035100082E892E090937F0280937E028DE991E0B1
:1035200090939F0280939E022DEB30E0309399029E
:10353000209398022BE931E030939B0220939A026A
:103540002CE231E030939D0220939C022091680090
:103550002460209368002DE630E03093960220939B
:10356000950224E0209397020197F1F780917B0266
:1035700090917C0222E082389207E1F0009711F0EE
:103580000E94B40D8091A0028E7F8093A0021092C1
:103590007A021092790282E892E090937C02809302
:1035A0007B02E0919502F0919602908180919702C2
:1035B000892B80830895E89409C097FB3EF4909589
:1035C0008095709561957F4F8F4F9F4F9923A9F0FC
:1035D000F92F96E9BB279395F6958795779567958B
:1035E000B795F111F8CFFAF4BB0F11F460FF1BC0CF
:1035F0006F5F7F4F8F4F9F4F16C0882311F096E962
:1036000011C0772321F09EE8872F762F05C066230F
:1036100071F096E8862F70E060E02AF09A95660FC8
:10362000771F881FDAF7880F9695879597F9089581
:103630000E942B1B0C949C1B0E948E1B38F00E9436
:10364000951B20F0952311F00C94851B0C948B1B7B
:1036500011240C94D01B0E94AD1B70F3959FC1F3F5
:10366000950F50E0551F629FF001729FBB27F00D30
:10367000B11D639FAA27F00DB11DAA1F649F662785
:10368000B00DA11D661F829F2227B00DA11D621FD4
:10369000739FB00DA11D621F839FA00D611D221F8E
:1036A000749F3327A00D611D231F849F600D211D72
:1036B000822F762F6A2F11249F5750409AF0F1F0F5
:1036C00088234AF0EE0FFF1FBB1F661F771F881F5E
:1036D00091505040A9F79E3F510580F00C94851BF6
:1036E0000C94D01B5F3FE4F3983ED4F38695779516
:1036F0006795B795F795E7959F5FC1F7FE2B880F04
:10370000911D9695879597F9089597F99F6780E899
:1037100070E060E008959FEF80EC089500240A9423
:103720001616170618060906089500240A9412169C
:103730001306140605060895092E0394000C11F4CF
:10374000882352F0BB0F40F4BF2B11F460FF04C07C
:103750006F5F7F4F8F4F9F4F089557FD9058440FD5
:10376000551F59F05F3F71F04795880F97FB991FE0
:1037700061F09F3F79F0879508951216130614069D
:10378000551FF2CF4695F1DF08C01616170618062A
:10379000991FF1CF86957105610508940895E89405
:1037A000BB2766277727CB0197F908950E94EA1B6C
:1037B0000C949C1B0E94951B58F00E948E1B40F09D
:1037C00029F45F3F29F00C94851B51110C94D01BF8
:1037D0000C948B1B0E94AD1B68F39923B1F3552306
:1037E00091F3951B550BBB27AA2762177307840714
:1037F00038F09F5F5F4F220F331F441FAA1FA9F3AA
:1038000035D00E2E3AF0E0E832D091505040E69597
:10381000001CCAF72BD0FE2F29D0660F771F881FF8
:10382000BB1F261737074807AB07B0E809F0BB0BEB
:10383000802DBF01FF2793585F4F3AF09E3F5105FF
:1038400078F00C94851B0C94D01B5F3FE4F3983EFA
:10385000D4F3869577956795B795F7959F5FC9F7E8
:10386000880F911D9695879597F90895E1E0660F69
:10387000771F881FBB1F621773078407BA0720F0E2
:10388000621B730B840BBA0BEE1F88F7E09508954B
:103890000E94B51B88F09F5798F0B92F9927B75110
:1038A000B0F0E1F0660F771F881F991F1AF0BA95E4
:1038B000C9F714C0B13091F00E94CF1BB1E0089558
:1038C0000C94CF1B672F782F8827B85F39F0B93F4A
:1038D000CCF3869577956795B395D9F73EF4909597
:1038E0008095709561957F4F8F4F9F4F0895991BDD
:1038F00079E004C0991F961708F0961B881F7A95E7
:10390000C9F78095089597FB072E16F4009407D009
:1039100077FD09D00E94B91C07FC05D03EF49095B4
:1039200081959F4F0895709561957F4F0895A1E20D
:103930001A2EAA1BBB1BFD010DC0AA1FBB1FEE1F29
:10394000FF1FA217B307E407F50720F0A21BB30B74
:10395000E40BF50B661F771F881F991F1A9469F7F0
:1039600060957095809590959B01AC01BD01CF014C
:103970000895AA1BBB1B51E107C0AA1FBB1FA617B6
:10398000B70710F0A61BB70B881F991F5A95A9F708
:1039900080959095BC01CD010895EE0FFF1F059015
:1039A000F491E02D0994CF93DF938230910510F4C8
:1039B00082E090E0E0916A03F0916B0320E030E058
:1039C000C0E0D0E0309711F140815181481759078C
:1039D000C0F04817590761F482819381209719F04C
:1039E0009B838A832BC090936B0380936A0326C0CA
:1039F0002115310519F04217530718F49A01BE0139
:103A0000DF01EF010280F381E02DDCCF21153105CC
:103A100009F1281B390B2430310590F412968D9151
:103A20009C9113976115710521F0FB0193838283AB
:103A300004C090936B0380936A03FD01329644C0E7
:103A4000FD01E20FF31F81939193225031092D93D1
:103A50003C933AC02091680330916903232B41F4D1
:103A600020912B0130912C0130936903209368033E
:103A70002091290130912A012115310541F42DB7FA
:103A80003EB740912D0150912E01241B350BE09142
:103A90006803F0916903E217F307A0F42E1B3F0BB4
:103AA0002817390778F0AC014E5F5F4F24173507B0
:103AB00048F04E0F5F1F5093690340936803819352
:103AC000919302C0E0E0F0E0CF01DF91CF91089543
:103AD0000F931F93CF93DF93009709F48CC0FC01E1
:103AE00032971382128200916A0310916B030115C1
:103AF000110581F420813181820F931F2091680389
:103B0000309169032817390779F5F0936903E09339
:103B1000680371C0D80140E050E0AE17BF0750F411
:103B200012962D913C911397AD012115310509F1A4
:103B3000D901F3CF9D01DA01338322836081718142
:103B4000860F971F8217930769F4EC01288139814A
:103B5000260F371F2E5F3F4F318320838A819B8141
:103B600093838283452B29F4F0936B03E0936A03DC
:103B700042C01396FC93EE931297ED01499159912F
:103B80009E01240F351FE217F30771F480819181A4
:103B9000840F951F029611969C938E938281938138
:103BA00013969C938E931297E0E0F0E0D801129662
:103BB0008D919C911397009719F0F8018C01F6CF25
:103BC0008D919C9198012E5F3F4F820F931F209102
:103BD0006803309169032817390769F4309729F48D
:103BE00010926B0310926A0302C013821282109328
:103BF000690300936803DF91CF911F910F9108959E
:103C000081E090E0F8940C94151EDC0101C06D93E6
:103C100041505040E0F70895FB01DC018D91019087
:103C200080190110D9F3990B089514E0CBEAD4E080
:103C300004C0FE010E94CD1C2196CC3AD107C9F7E1
:043C4000F894FFCF26
:103C44000401040402010A000000010A2D0000001E
:103C5400010600000001062D0000000305313B00B1
:103C640000000305323B00000000006C03800000EC
:103C74000000003E054714D60485050705E504F950
:103C84000400000000AA0B4714380CA90BFE0B1605
:103C94000C910B0000000076098D0BD60504071566
:103CA40006860BEA05820B800B120600000000EA70
:103CB400068E0666060D0A000900526561642074CA
:0C3CC400696D65206F75742E004F4B0079
:107E0000112484B714BE81FFF0D085E080938100F7
:107E100082E08093C00088E18093C10086E0809377
:107E2000C20080E18093C4008EE0C9D0259A86E02C
:107E300020E33CEF91E0309385002093840096BBD3
:107E4000B09BFECF1D9AA8958150A9F7CC24DD24C4
:107E500088248394B5E0AB2EA1E19A2EF3E0BF2EE7
:107E6000A2D0813461F49FD0082FAFD0023811F036
:107E7000013811F484E001C083E08DD089C08234E0
:107E800011F484E103C0853419F485E0A6D080C0E4
:107E9000853579F488D0E82EFF2485D0082F10E0AE
:107EA000102F00270E291F29000F111F8ED06801E7
:107EB0006FC0863521F484E090D080E0DECF843638
:107EC00009F040C070D06FD0082F6DD080E0C81688
:107ED00080E7D80618F4F601B7BEE895C0E0D1E017
:107EE00062D089930C17E1F7F0E0CF16F0E7DF06D8
:107EF00018F0F601B7BEE89568D007B600FCFDCFD4
:107F0000A601A0E0B1E02C9130E011968C91119780
:107F100090E0982F8827822B932B1296FA010C0160
:107F200087BEE89511244E5F5F4FF1E0A038BF0790
:107F300051F7F601A7BEE89507B600FCFDCF97BE46
:107F4000E89526C08437B1F42ED02DD0F82E2BD052
:107F50003CD0F601EF2C8F010F5F1F4F84911BD097
:107F6000EA94F801C1F70894C11CD11CFA94CF0C13
:107F7000D11C0EC0853739F428D08EE10CD085E9AC
:107F80000AD08FE07ACF813511F488E018D01DD067
:107F900080E101D065CF982F8091C00085FFFCCF94
:107FA0009093C60008958091C00087FFFCCF809118
:107FB000C00084FD01C0A8958091C6000895E0E648
:107FC000F0E098E1908380830895EDDF803219F02E
:107FD00088E0F5DFFFCF84E1DECF1F93182FE3DFCA
:107FE0001150E9F7F2DF1F91089580E0E8DFEE27F6
:047FF000FF270994CA
:027FFE00040479
:0400000300007E007B
:00000001FF