:100000000C94BA040C94E2040C94E2040C94B6062A
:100010000C94B6060C94B6060C94E2040C94E2041C
:100020000C94E2040C94E2040C94E2040C94E204B8
:100030000C94E2040C94E2040C94E2040C94E204A8
:100040000C9429100C94E2040C94290F0C94030FC7
:100050000C94E2040C94E2040C94E2040C94E20488
:100060000C94E2040C94E204000000002400270039
:100070002A000D0A4F534320646964206E6F742078
:100080007374617274000D0A58424F5820555342E0
:10009000204C696272617279205374617274656474
:1000A00000000203040501590058004200410052BB
:1000B00069676874004C65667400446F776E00551C
:1000C00070005269676874486174593A2000526937
:1000D000676874486174583A20004C6566744861DA
:1000E00074593A20004C656674486174583A20008F
:1000F0004261636B005374617274000000C1C0817F
:10010000C1400101C3C003800241C201C6C00680D4
:100110000741C70005C1C581C4400401CCC00C80A3
:100120000D41CD000FC1CF81CE400E000AC1CA8162
:10013000CB400B01C9C009800841C801D8C0188054
:100140001941D9001BC1DB81DA401A001EC1DE81D2
:10015000DF401F01DDC01D801C41DC0014C1D481C3
:10016000D5401501D7C017801641D601D2C01280E4
:100170001341D30011C1D181D0401001F0C03080B3
:100180003141F10033C1F381F240320036C1F681D2
:10019000F7403701F5C035803441F4003CC1FC81A3
:1001A000FD403D01FFC03F803E41FE01FAC03A8064
:1001B0003B41FB0039C1F981F840380028C1E88192
:1001C000E9402901EBC02B802A41EA01EEC02E80D4
:1001D0002F41EF002DC1ED81EC402C01E4C02480C3
:1001E0002541E50027C1E781E640260022C1E281E2
:1001F000E3402301E1C021802041E001A0C06080F4
:100200006141A10063C1A381A240620066C1A681D1
:10021000A7406701A5C065806441A4006CC1AC81A2
:10022000AD406D01AFC06F806E41AE01AAC06A8063
:100230006B41AB0069C1A981A840680078C1B88151
:10024000B9407901BBC07B807A41BA01BEC07E80D3
:100250007F41BF007DC1BD81BC407C01B4C07480C2
:100260007541B50077C1B781B640760072C1B281E1
:10027000B3407301B1C071807041B00050C1908132
:100280009140510193C053805241920196C05680D3
:100290005741970055C19581944054019CC05C80A2
:1002A0005D419D005FC19F819E405E005AC19A8161
:1002B0009B405B0199C059805841980188C0488093
:1002C000494189004BC18B818A404A004EC18E81D1
:1002D0008F404F018DC04D804C418C0044C18481C2
:1002E0008540450187C047804641860182C04280E3
:1002F0004341830041C18181804040000001900161
:100300006000F002C0035003A0023007C006500690
:10031000A0073005000490046005F00DC00C500CDF
:10032000A00D300F000E900E600FF00A000B900B26
:10033000600AF008C0095009A0083019C018501808
:10034000A019301B001A901A601BF01E001F901F8E
:10035000601EF01CC01D501DA01C3014001590150F
:100360006014F016C0175017A0163013C0125012A8
:10037000A0133011001090106011F031C0305030D7
:10038000A0313033003290326033F036003790378E
:100390006036F034C0355035A034303C003D903DDF
:1003A000603CF03EC03F503FA03E303BC03A503A28
:1003B000A03B3039003890386039F0280029902966
:1003C0006028F02AC02B502BA02A302FC02E502E90
:1003D000A02F302D002C902C602DF025C02450240F
:1003E000A0253027002690266027F02200239023A6
:1003F0006022F020C0215021A0203061C0605060F8
:10040000A0613063006290626063F066006790678D
:100410006066F064C0655065A064306C006D906DDE
:10042000606CF06EC06F506FA06E306BC06A506A27
:10043000A06B3069006890686069F0780079907905
:100440006078F07AC07B507BA07A307FC07E507E8F
:10045000A07F307D007C907C607DF075C07450740E
:10046000A0753077007690766077F07200739073A5
:100470006072F070C0715071A07030500051905196
:100480006050F052C0535053A0523057C05650568F
:10049000A0573055005490546055F05DC05C505CDE
:1004A000A05D305F005E905E605FF05A005B905B25
:1004B000605AF058C0595059A0583049C048504867
:1004C000A049304B004A904A604BF04E004F904F8D
:1004D000604EF04CC04D504DA04C3044004590450E
:1004E0006044F046C0475047A0463043C0425042A7
:1004F000A0433041004090406041F0000051C0A155
:10050000C0F00041C11001E001B1C181C2D00220A0
:100510000271C2C00391C361C3300301C55005A07D
:1005200005F1C5400411C4E1C4B0048007D1C7215E
:10053000C77007C1C69006600631C601CA500AA03E
:100540000AF1CA400B11CBE1CBB00B8008D1C82116
:10055000C87008C1C99009600931C9000F51CFA105
:10056000CFF00F41CE100EE00EB1CE81CDD00D20D8
:100570000D71CDC00C91CC61CC300C01D45014A0C5
:1005800014F1D4401511D5E1D5B0158016D1D6217E
:10059000D67016C1D79017601731D7001151D1A16D
:1005A000D1F01141D01010E010B1D081D3D0132080
:1005B0001371D3C01291D261D23012001E51DEA14C
:1005C000DEF01E41DF101FE01FB1DF81DCD01C20F8
:1005D0001C71DCC01D91DD61DD301D01DB501BA0F5
:1005E0001BF1DB401A11DAE1DAB01A8019D1D921F6
:1005F000D97019C1D89018601831D801E85028A0D6
:1006000028F1E8402911E9E1E9B029802AD1EA215D
:10061000EA702AC1EB902B602B31EB002D51EDA13C
:10062000EDF02D41EC102CE02CB1EC81EFD02F201F
:100630002F71EFC02E91EE61EE302E002251E2A11B
:10064000E2F02241E31023E023B1E381E0D0202057
:100650002071E0C02191E161E1302101E75027A044
:1006600027F1E7402611E6E1E6B0268025D1E52115
:10067000E57025C1E49024602431E4003C51FCA1E4
:10068000FCF03C41FD103DE03DB1FD81FED03E203F
:100690003E71FEC03F91FF61FF303F01F95039A02C
:1006A00039F1F9403811F8E1F8B038803BD1FB213D
:1006B000FB703BC1FA903A603A31FA01F65036A02D
:1006C00036F1F6403711F7E1F7B0378034D1F42135
:1006D000F47034C1F59035603531F5003351F3A134
:1006E000F3F03341F21032E032B1F281F1D0312037
:1006F0003171F1C03091F061F03030000001FC0147
:10070000B80044013000CC008801740260039C03EF
:10071000D80224035002AC02E8031404C0053C05CF
:1007200078048405F0040C044805B406A0075C07AF
:100730001806E40790066C062807D40BC00A3C0A8A
:10074000780B840AF00B0C0B480AB409A0085C086B
:100750001809E40890096C092808D40F000EFC0E53
:10076000B80F440E300FCC0F880E740D600C9C0C2B
:10077000D80D240C500DAC0DE80C1415C0143C140D
:1007800078158414F0150C154814B417A0165C16CF
:100790001817E41690176C172816D4110010FC10C7
:1007A000B81144103011CC118810741360129C12CF
:1007B000D81324125013AC13E812141E001FFC1F90
:1007C000B81E441F301ECC1E881F741C601D9C1D4B
:1007D000D81C241D501CAC1CE81D141AC01B3C1B4B
:1007E000781A841BF01A0C1A481BB418A0195C194B
:1007F0001818E41990186C182819D429C0283C2816
:1008000078298428F0290C294828B42BA02A5C2AAE
:10081000182BE42A902B6C2B282AD42D002CFC2C8E
:10082000B82D442C302DCC2D882C742F602E9C2E6E
:10083000D82F242E502FAC2FE82E14220023FC2377
:10084000B82244233022CC228823742060219C21AA
:10085000D82024215020AC20E8211426C0273C2792
:1008600078268427F0260C264827B424A0255C256A
:100870001824E42590246C242825D43C003DFC3D1C
:10088000B83C443D303CCC3C883D743E603F9C3F8E
:10089000D83E243F503EAC3EE83F1438C0393C3986
:1008A00078388439F0380C384839B43AA03B5C3B8E
:1008B000183AE43B903A6C3A283BD437C0363C3681
:1008C00078378436F0370C374836B435A0345C348A
:1008D0001835E43490356C352834D4330032FC328A
:1008E000B83344323033CC338832743160309C308A
:1008F000D83124305031AC31E83014000000080009
:1009000002010000030407000000000000000000D6
:1009100001000800020004002000100040008000D8
:1009200000000001000200200010004000800004D0
:1009300000080000000000250028002B0000000037
:100940000023002600290004040404040404040213
:10095000020202020203030303030301020408105C
:100960002040800102040810200102040810200029
:10097000FA1AF01A11241FBECFEFD8E0DEBFCDBFA8
:1009800023E0A8EAB1E001C01D92A638B207E1F762
:1009900011E0A0E0B1E0EEE7F4E402C005900D92B2
:1009A000A83AB107D9F714E0C9EBD4E004C0219705
:1009B000FE010E94401EC83BD107C9F70E940715DF
:1009C0000C9432220C940000611102C00696089526
:1009D000FC013D9621E03081361307C035E0239FAE
:1009E000800D911D1124069608952F5F35962031B4
:1009F00091F780E090E0089581E0089580E0089507
:100A000080E00895089580E0089580E0089580E0F2
:100A1000089580E0089580E008952091AA01309122
:100A2000AB012817390771F49091A8018091A901B1
:100A3000981741F0E091A801F0E0EE54FE4F80815C
:100A400090E008958FEF9FEF089508951F93CF933F
:100A5000DF93DC015C962D913C915D97211531056A
:100A600039F481E090E013969C938E9312973DC0E9
:100A70005196ED91FC91529750969C915097892FE9
:100A800080951FB75E964C915E9741FB772770F972
:100A900041FD6095F8944081772311F0492B01C006
:100AA00048234083E9012197F1F748E0508160FF36
:100AB00002C0592B01C058235083E9012197F1F757
:100AC0006695415099F7772321F09081892380839F
:100AD00003C08081982B90831FBF5C968D919C9161
:100AE0005D970197F1F721E030E0C901DF91CF91E7
:100AF0001F9108952091AA013091AB012817390761
:100B000071F48091A9012091A80190E0805C9F4F31
:100B1000821B910960E470E00E94F61D089580E058
:100B200090E008952091AA013091AB012817390770
:100B3000B9F49091A8018091A901981789F0E091EA
:100B4000A801F0E0EE54FE4F80812091A80130E032
:100B50002F5F3F4F2F7333272093A80190E0089514
:100B60008FEF9FEF0895089580E090E008958F92B1
:100B70009F92AF92BF92CF92DF92EF92FF920F932C
:100B80001F93CF93DF93862E942E59010E941D1040
:100B90006B017C0128E8C20E23E1D21EE11CF11C8E
:100BA00000E010E0D0E0C0E098280E941D10DC01B9
:100BB000CB018C199D09AE09BF09B7FF2DC0692D66
:100BC00080EF0E9483120E941D10DC01CB018C1962
:100BD0009D09AE09BF09B7FF09C088EC0E94A712A2
:100BE00087FFF1CF60E888EC0E94831288EF0E94B3
:100BF000A712C82FCF70C43019F0CE3051F00CC0FE
:100C00000F5F1F4FA114B10481F20A151B0569F68D
:100C100003C0DF5FD33049F68C2FDF91CF911F9156
:100C20000F91FF90EF90DF90CF90BF90AF909F908B
:100C30008F9008959F92AF92BF92CF92DF92EF92E2
:100C4000FF920F931F93CF93DF937C01C42F122F3A
:100C5000992493946C01C60ED11CC60ED11C86E556
:100C6000C80ED11CA42EB12CABE2AA0EB11CAA0C4A
:100C7000BB1CAE0CBF1CF60180819181DC01ED91A3
:100C8000FC910280F381E02D202F412F6C2F0995DC
:100C9000803EC9F4C1110BC061E088EE0E9483124E
:100CA00066E670E080E090E00E94E30F16C0F50178
:100CB00080819181DC01ED91FC910284F385E02D2E
:100CC000612F09950AC08D3031F49FEF990D933053
:100CD00008F040C016C081113DC0F60180819181AD
:100CE000DC01ED91FC910190F081E02D202F412F4E
:100CF0006C2F0995D82F8D3061F48FEF890D8330DB
:100D000050F464E670E080E090E00E94E30F93947A
:100D1000B2CF8823F1F0C1110BC061E088EE0E94D0
:100D2000831266E670E080E090E00E94E30F11C05D
:100D3000EC2FF0E0BB96EE0FFF1FEE0DFF1D808144
:100D40009181DC01ED91FC910284F385E02D612F0E
:100D500009958D2FDF91CF911F910F91FF90EF900B
:100D6000DF90CF90BF90AF909F9008951F920F9209
:100D70000FB60F9211242F933F934F935F936F936E
:100D80007F938F939F93AF93BF93EF93FF93E091E4
:100D9000AA01F091AB01309709F451C0968DA68558
:100DA000B785858591FF04C09C91892329F447C0AC
:100DB0009C91892309F043C0A389B4899C918589BA
:100DC000809589238C93868997890197F1F7608DA7
:100DD000718DA685B785558538E020E0CB01019758
:100DE000F1F7822F90E095958795282F4C91452318
:100DF00009F02068315091F7868D81FD2095809112
:100E0000A90190E001968F7399273091A8013817B6
:100E100049F0A091A901B0E0AE54BE4F2C9380934D
:100E2000A90103C0868D8160868F828D938D019785
:100E3000F1F7A389B4899C918589892B8C93FF91C3
:100E4000EF91BF91AF919F918F917F916F915F9142
:100E50004F913F912F910F900FBE0F901F901895BB
:100E6000E091AA01F091AB01E817F90769F4A389B1
:100E7000B4899C918589809589238C931092AB01CC
:100E80001092AA0181E0089580E00895FC0120817C
:100E90002EBDDC0131969C01260F371FE217F307A8
:100EA00041F051910DB407FEFDCF4EB55EBD4D939F
:100EB000F5CF61507109FC01E60FF71F0DB407FE75
:100EC000FDCF8EB5808308952A9808952A9A0895B3
:100ED0004F925F926F927F928F929F92AF92BF924A
:100EE000CF92DF92EF92FF920F931F93CF93DF93F6
:100EF0005C01162FC62ED12CC60101960E94461EFB
:100F00007C01612F8AE992E00E942605CE2DDF2D1B
:100F100019938501C8018A199B098C159D0564F4F4
:100F20004801F80161918F018AE992E00E9426054B
:100F3000F40180818993EECFC601B7010FEF1FEF57
:100F4000DC011196FB019B0123703327232BD1F089
:100F50008F3F2FEF920791F0A12FBB276F5F7F4F3D
:100F60002081F801FF27E227EE0FFF1FE550FF4F1A
:100F7000059114910A271B270197E2CFEB01A0E00E
:100F8000B0E001C0EB01CD018031910508F4DAC079
:100F9000409788809980AA80BB8008251925F80190
:100FA000FF27EE0FFF1FE550F94F25913491E12FF8
:100FB000FF27EE0FFF1FE550FB4F059114914A2CC0
:100FC000512C612C712C4FEF541A640A740AF201EF
:100FD000EE0FFF1FE550FF4F459154918B2C992444
:100FE000AA24BB24F401EE0FFF1FE550FF4FC5906C
:100FF000D4908C809D80AE80BF802027312728250B
:101000003925242735272C253D25F901FF27EE0F0B
:10101000FF1FE550F94F45915491E32FFF27EE0F45
:10102000FF1FE550FB4F059114914A2C512C612C68
:10103000712CEFEF5E1A6E0A7E0AF201EE0FFF1FAF
:10104000E550FF4F259134918B2C9924AA24BB2481
:10105000F401EE0FFF1FE550FF4FC590D490888438
:101060009984AA84BB8440275127482559252427E1
:1010700035272C253D25F901FF27EE0FFF1FE550F1
:10108000F94FC590D490E32FFF27EE0FFF1FE550D7
:10109000FB4F459154910A2D10E020E030E01F5F96
:1010A0002F4F3F4FF801EE0FFF1FE550FF4F2591E7
:1010B00034918B2C9924AA24BB24F401EE0FFF1F3A
:1010C000E550FF4F059114918C849D84AE84BF84BC
:1010D000C426D526C824D9242C253D2520273127F0
:1010E000F901FF27EE0FFF1FE550F94F059114910D
:1010F000E32FFF27EE0FFF1FE550FB4F4591549163
:101100004A2C512C612C712CFFEF5F1A6F0A7F0A59
:10111000F201EE0FFF1FE550FF4F259134918B2C0C
:101120009924AA24BB24F401EE0FFF1FE550FF4FC2
:10113000C590D49004271527022713270C251D25B9
:10114000609622CFED01C07FC60FD71FAF70BB27BF
:10115000AC0FBD1FCA17DB0779F0812F99272991A2
:10116000F801FF27E227EE0FFF1FE550FF4F059123
:10117000149108271927EECF109381030093800361
:10118000602F8AE992E00E942605612F8AE992E0A9
:101190000E942605C701DF91CF911F910F91FF900B
:1011A000EF90DF90CF90BF90AF909F908F907F9007
:1011B0006F905F904F900C94DB1E08958EBD0000E1
:1011C0000DB407FEFDCF8EB508958CBD9DBD08956D
:1011D0002F923F924F925F926F927F928F929F9247
:1011E000AF92BF92CF92DF92EF92FF920F931F9335
:1011F000CF93DF93CDB7DEB729970FB6F894DEBF54
:101200000FBECDBF1C01798768875B834A83690164
:10121000D9018D909C901197FB01F181F9831D926A
:101220001C92DB0112968C9181FD02C060E101C02D
:1012300060E288EE0E9483128E2D90E0A0E0B0E084
:101240008C839D83AE83BF83482C2A813B81A885F4
:10125000B9854C9160E0C1010E94B705F82EB6E057
:101260008B1316C088EF0E94A7128295817091E0BF
:101270008927E885F985928180FB91F9928391FD18
:1012800002C060E101C060E288EE0E948312DDCFFF
:10129000811164C088EC0E94A71282FF5DC080E3C8
:1012A0000E94A712582E90E08816990608F4542C34
:1012B000D6018D919C91652C712CF401E81BF90BE2
:1012C000CF01F7FF02C080E090E05301861597053B
:1012D0000CF45C0180E591E00E94E5080E9464073F
:1012E00088E00E94DE08A50160E070E0C8010E946D
:1012F000781FA114B10421F0B501C8010E9446076E
:101300000A0D1B1D0E94660764E088EC0E94831290
:10131000D6018D919C911197680E791E6D927C92E9
:10132000B9815B1618F06814790460F088EF0E94A8
:10133000A71282958170E885F985928180FB91F9E9
:1013400092830CC0EE2009F480CF6C817D818E8168
:101350009F810E94E30F79CF80EFF82E8F2D299681
:101360000FB6F894DEBF0FBECDBFDF91CF911F91B6
:101370000F91FF90EF90DF90CF90BF90AF909F9034
:101380008F907F906F905F904F903F902F90089537
:101390002F923F924F925F926F927F928F929F9285
:1013A000AF92BF92CF92DF92EF92FF920F931F9373
:1013B000CF93DF93CDB7DEB768970FB6F894DEBF53
:1013C0000FBECDBF2C014B8B322E202EFC2CCDA47A
:1013D000DEA46FA478A81E861D861C861B868E013F
:1013E000055F1F4F9E01235F3F4F0E94E213811153
:1013F00059C139822A82EB82FC82BE82AD829886F4
:101400008F82AE014F5F5F4F68E080E20E945E1204
:101410002B853C854B8960E1C2010E94B705182FDE
:101420008111FCC0232C221C2224221C6114710473
:1014300009F4E5C0AD84BE84222009F456C0D5016C
:1014400012968C911297826012968C9354013324D9
:101450003394A114B10409F444C0DA86C9864B85DB
:101460005C856D857E85E12C83019E01275F3F4F62
:10147000C2010E94E808182F863079F4ED84FE84BA
:1014800088EF0E94A71285FB882780F98325F70142
:10149000928180FB91F99283DCCF8111BFC029A991
:1014A0003AA921153105A1F0D901ED91FC911197CF
:1014B0000190F081E02DC4018A199B09988B8F87D8
:1014C00069857A859E01215F3F4FA301CD01099572
:1014D00089859A85A81AB90A8C159D0508F0B9CF97
:1014E0008EC0112309F490C099C0F50182818160FA
:1014F0008283EB84FC8401818FEF800F803408F0BD
:101500008BC00E941D109B01AC0128573C4E4F4FD1
:101510005F4F2C8B3D8B4E8B5F8BD50112968C9140
:1015200080FD02C060E401C060E888EE0E94831282
:10153000202F30E03A8B298BC114D10409F44DC01F
:10154000460129893A892C153D0508F44901888E00
:10155000A301682D80E10E945E12682D88E30E943D
:101560008312D5016C91606280EF0E94831288EC37
:101570000E94A71287FFFBCF60E888EC0E948312CD
:1015800088EF0E94A712182F1F70212C312C00E029
:10159000112371F00E941D10DC01CB012C893D89C3
:1015A0004E895F89821B930BA40BB50BB7FD05C059
:1015B000C818D908680C791CBFCF163089F11E30C5
:1015C00009F468C0143049F4BFEF2B1A3B0AE11448
:1015D000F104F1F12E143F04D9F588EF0E94A7120F
:1015E00085FB882780F9D50112969C91129780FB84
:1015F00090F912969C93112309F450C00FC02B85CB
:101600003C85211003C04CC02B853C8560EA4B898A
:10161000C2010E94B70546C08AED44C0812F42C076
:1016200088EF0E94A71285FB882780F9E1E08E27CA
:10163000D50112969C91129780FB90F912969C937B
:1016400090FD02C060E401C060E888EE0E94831251
:1016500060E088E30E948312F301608180E10E94D0
:101660008312688D88E30E948312D5016C916062B9
:1016700080EF0E94831288EC0E94A71287FFFBCFA5
:1016800060E888EC0E94831288EF0E94A712182F4E
:101690001F707ECF0F5F0330D9F69FCF2B853C851F
:1016A00060E8B5CF68960FB6F894DEBF0FBECDBF29
:1016B000DF91CF911F910F91FF90EF90DF90CF902E
:1016C000BF90AF909F908F907F906F905F904F9062
:1016D0003F902F9008951F93CF93DF9300D01F92D8
:1016E000CDB7DEB7182F80E591E06B830E94E50847
:1016F0000E946407126019836B816A8362E070E064
:10170000CE0101960E9446070E9466070F900F9037
:101710000F90DF91CF911F9108951F93CF93DF9387
:101720001F92CDB7DEB7182F80E591E00E94E50843
:101730000E946407812F0E94DE0880E00E94DE087C
:1017400089830E94660789810F90DF91CF911F9155
:1017500008956115710579F0FB0101900020E9F70A
:101760003197AF01461B570BDC01ED91FC910280D4
:10177000F381E02D099480E090E00895CF92DF920C
:10178000EF92FF920F931F93CF93DF93CDB7DEB706
:10179000CF5FD1090FB6F894DEBF0FBECDBF0E9458
:1017A00041138E010F5F1F4F9FEFF80111929A9521
:1017B000E9F7C82ED12C1F928F9382E891E09F9376
:1017C0008F938CEF91E09F938F930E945C130F9007
:1017D0000F900F900F900F900F907801C701801B12
:1017E000910B8C159D0534F40E944113F7018193F0
:1017F0007F01F4CF0E9441130E94411360E971E020
:101800008CEF91E00E94A90BB8018CEF91E00E944F
:10181000A90B67E771E08CEF91E00E94A90B8CEFB8
:1018200091E00E94DC0C66E971E0C8010E947F1F14
:1018300021E0892B09F020E0822FC150DF4F0FB645
:10184000F894DEBF0FBECDBFDF91CF911F910F91F6
:10185000FF90EF90DF90CF900895FC01538D448D61
:10186000252F30E0842F90E0821B930B541710F04B
:10187000CF96089501970895FC01918D828D981758
:1018800061F0828DDF01A80FB11D5D968C91928D64
:101890009F5F9F73928F90E008958FEF9FEF089561
:1018A000FC01918D828D981731F0828DE80FF11D2A
:1018B000858D90E008958FEF9FEF0895FC01918D45
:1018C000228D892F90E0805C9F4F821B91098F733E
:1018D000992708958CEF91E00E945E0C21E0892BFE
:1018E00009F420E0822F0895FC01848DDF01A80F08
:1018F000B11DA35ABF4F2C91848D90E001968F7338
:101900009927848FA689B7892C93A089B1898C9156
:1019100080648C93938D848D981306C00288F3891C
:10192000E02D80818F7D80830895EF92FF920F9349
:101930001F93CF93DF93EC0181E0888F9B8D8C8D7B
:10194000981305C0E889F989808185FD24C0F62EA9
:101950000B8D10E00F5F1F4F0F731127E02E8C8D42
:10196000E8120CC00FB607FCFACFE889F98980812C
:1019700085FFF5CFCE010E94740CF1CF8B8DFE0157
:10198000E80FF11DE35AFF4FF0820B8FEA89FB89C4
:101990008081806207C0EE89FF896083E889F989C8
:1019A00080818064808381E090E0DF91CF911F91FE
:1019B0000F91FF90EF900895CF93DF93EC01888D06
:1019C0008823C9F0EA89FB89808185FD05C0A88943
:1019D000B9898C9186FD0FC00FB607FCF5CF8081C9
:1019E00085FFF2CFA889B9898C9185FFEDCFCE0113
:1019F0000E94740CE7CFDF91CF91089580E090E0D2
:101A0000892B29F00E946A0C81110C940000089522
:101A10003FB7F8948091F7019091F801A091F901F6
:101A2000B091FA0126B5A89B05C02F3F19F0019689
:101A3000A11DB11D3FBFBA2FA92F982F8827820F54
:101A4000911DA11DB11DBC01CD0142E0660F771FA4
:101A5000881F991F4A95D1F70895CF93DF93EC0122
:101A60001A828B819C81DC01ED91FC910480F581CF
:101A7000E02D6D8109951D82198A80E0DF91CF915B
:101A800008956E3584E0780759F06D3A9BE1790747
:101A900039F06E3286E1780719F06F367E40A1F496
:101AA0004E3882E0580791F0463190EF590771F0B7
:101AB000413084E0580751F081E0433192E059070A
:101AC00039F04F3E5E4B21F080E0089581E00895AB
:101AD0000895FC0181890895FC0185810895DF92B4
:101AE000EF92FF920F931F93CF93DF93EC01E62EBB
:101AF000F12C85E0689FB0011124FE01E60FF71F6D
:101B00008085182F177086FF21C001E085E0D82E50
:101B10008FEF800F8F3008F001E0FE01D09EE00DC6
:101B2000F11D112480858695869586958770811391
:101B300005C0602FCE010E946F0DEACF0F5F00310C
:101B400061F78D81811302C011501D8385E08E9D48
:101B5000F0018F9DF00D1124EC0FFD1F108681E028
:101B6000818712862296D783C683DF91CF911F91FA
:101B70000F91FF90EF90DF900895FC016134C1F464
:101B80003F969C01265A3F4F61E0AC014E5F5F4F8C
:101B9000DF0112971C9211966C93108213974D934C
:101BA0005C933596E217F30799F7FC0115820895C7
:101BB0003D9621E03081361303C0622F0C946F0DE7
:101BC0002F5F35962031B1F70895CF93DF93FC0155
:101BD000862F807809F051C0283008F04FC0442388
:101BE00021F09581973009F449C0EF012D96A0E0CE
:101BF000B0E011969881911103C0662331F021C0A5
:101C00002596AF30B105A9F739C085E08A9FE0017C
:101C10008B9FD00D1124CE0FDF1F442331F081E4C0
:101C2000888785818F5F858302C081E0888725E072
:101C30002A9FC0012B9F900D1124E80FF91F80856A
:101C40001DC06770660F660F660F442341F0606425
:101C500085818F5F85838770687F682B03C02770BD
:101C6000687B622B25E02A9FC0012B9F900D1124D9
:101C7000E80FF91F6087862F01C080E0DF91CF91C8
:101C800008950E94731F8F929F92AF92BF92CF923E
:101C9000DF92EF920F931F93CF93DF9300D000D08A
:101CA00000D0CDB7DEB7FC012189222309F498C00A
:101CB0006C0180E290E09E838D835F01F8E2AF0EBD
:101CC000B11CF60141856581838094801C821B8252
:101CD0001A8219828E010F5F1F4F9E012D5F3F4FA9
:101CE000C4010E94E21381110CC049815A816B81A9
:101CF0007C81E12C85019E012B5F3F4FC4010E9436
:101D0000E808AB2809F46CC0F60180A5811168C011
:101D100081A5843109F064C022A583A590E0A0E0EC
:101D2000B0E0DC0199278827B22B44A550E0542F5E
:101D3000442725A5422B60E070E0842B952BA62B31
:101D4000B72B828B938BA48BB58B27A530E0322FDA
:101D5000222746A5242B358F248F21A930E0322F4E
:101D6000222740A9242B378F268F23A930E0322F3A
:101D7000222742A9242B31A320A325A930E0322F0A
:101D8000222744A9242B33A322A306891789208D57
:101D9000318D80179107A207B30711F14D01AA24D5
:101DA000BB24B901A8014095509560957095AB0191
:101DB0006627772748215921538F428F011104C08C
:101DC000882311F041E047A3111105C0992319F0B0
:101DD00021E0F60126A3F601868B978BA08FB18FA9
:101DE00080E026960FB6F894DEBF0FBECDBFDF9120
:101DF000CF911F910F91EF90DF90CF90BF90AF9058
:101E00009F908F9008951F920F920FB60F921124FA
:101E10002F933F934F935F936F937F938F939F93F2
:101E2000AF93BF93EF93FF938CEF91E00E94740CFC
:101E3000FF91EF91BF91AF919F918F917F916F91A2
:101E40005F914F913F912F910F900FBE0F901F9078
:101E500018951F920F920FB60F9211242F938F9304
:101E60009F93EF93FF93E0910C02F0910D0280811C
:101E7000E0911202F091130282FD12C090818091D4
:101E800015028F5F8F7320911602821751F0E09137
:101E90001502F0E0E450FE4F958F8093150201C0CB
:101EA0008081FF91EF919F918F912F910F900FBEA5
:101EB0000F901F90189590E0FC01E550F74F34917A
:101EC000FC01E55AF64F2491FC01E95BF64FE491E1
:101ED000EE2309F43BC0332339F1333091F038F469
:101EE0003130A9F0323001F584B58F7D12C0373022
:101EF00091F03830A1F03430B9F4809180008F7DBA
:101F000003C0809180008F77809380000DC084B5DE
:101F10008F7784BD09C08091B0008F7703C0809116
:101F2000B0008F7D8093B000F0E0EE0FFF1FED5CFE
:101F3000F64FA591B4918FB7F894EC91611103C05D
:101F400020952E2301C02E2B2C938FBF0895CF9365
:101F5000DF9390E0FC01E55AF64F2491FC01E95B28
:101F6000F64F8491882361F190E0880F991FFC015E
:101F7000E859FF4FC591D491FC01ED5CF64FA59156
:101F8000B491611109C09FB7F8948881209582238C
:101F90008883EC912E230BC0623061F49FB7F894D4
:101FA0003881822F809583238883EC912E2B2C936C
:101FB0009FBF06C08FB7F894E8812E2B28838FBF70
:101FC000DF91CF9108958F929F92AF92BF92CF925F
:101FD000DF92EF92FF926B017C010E94080D4B0192
:101FE0005C01C114D104E104F104F1F00E94080D78
:101FF000DC01CB0188199909AA09BB09883E9340E5
:10200000A105B10570F321E0C21AD108E108F10879
:1020100088EE880E83E0981EA11CB11CC114D10467
:10202000E104F10419F7DDCFFF90EF90DF90CF903E
:10203000BF90AF909F908F9008952FB7F8946091C4
:10204000F3017091F4018091F5019091F6012FBF99
:1020500008951F920F920FB60F9211242F933F9362
:102060008F939F93AF93BF938091F3019091F4016D
:10207000A091F501B091F6013091F20123E0230F18
:102080002D3720F40196A11DB11D05C026E8230FB0
:102090000296A11DB11D2093F2018093F30190934C
:1020A000F401A093F501B093F6018091F7019091AE
:1020B000F801A091F901B091FA010196A11DB11D9D
:1020C0008093F7019093F801A093F901B093FA017E
:1020D000BF91AF919F918F913F912F910F900FBE24
:1020E0000F901F9018959C01E62F842F5AE0652FC2
:1020F0000E94EA1D2E0F311DF9013197905D9083EA
:1021000031970E94EA1D905D908331970E94EA1DED
:10211000905D908308958F929F92AF92BF92CF92DD
:10212000EF920F93FC011F921F927F936F935F9327
:102130004F934A01A12CB12C82E0C82EE12C09E07A
:1021400021E246816581838194810E94C8090F90B4
:102150000F900F900F900F900F900F91EF90CF90E6
:10216000BF90AF909F908F900895FB01FF27EF5590
:10217000FF4FE491BC01685B7F4F21E0DB012C93B2
:10218000119623E02C931196EC5FEC9343E050E022
:102190000C948B102F923F924F925F926F927F928E
:1021A0008F929F92AF92BF92CF92DF92EF92FF9267
:1021B0000F931F93CF93DF93CDB7DEB767970FB61B
:1021C000F894DEBF0FBECDBFDC0113964D905C903E
:1021D000149715961C9111114FC1F22E4F8BD62ECC
:1021E0003C01D201ED91FC910190F081E02D60E085
:1021F000C20109951C01009711F416ED45C1FC01BF
:102200000190F081E02DFE8BED8BEF2B09F436C1B0
:1022100093012A5F3F4F3C8B2B8BDC0111963C9343
:102220002E931496FC921F921F92CE0101969F93BB
:102230008F931F9282E18F9382E1882E912CA12CA3
:10224000B12CCC24C394E12C06E020E840E060E00F
:10225000F301838194810E94C809082FED89FE89CA
:10226000D101ED93FC930F900F900F900F900F9072
:102270000F908111F7C029853A858B859C852E3575
:10228000F4E03F0761F02D3A4BE1340741F02E3284
:10229000A6E13A0721F02F363E4009F0E0C08F3822
:1022A000E2E09E0709F4DBC08931F7E09F0709F4FB
:1022B000D6C0813922E0920709F4D1C08E3832E0CD
:1022C000930781F0863140EF940761F08130A4E0FC
:1022D0009A0741F08331B2E09B0721F08F3E9E4B7D
:1022E00009F0BDC0D201ED91FC910280F381E02D97
:1022F0002F8940E06D2DC2010995F3018583882364
:1023000009F4BEC098859783482F60E0838194814B
:102310000E94D714082FD201ED91FC91D10114969F
:102320001C92882359F00480F581E02DD301159685
:102330006C91C2010995F30115829CC00190F08156
:10234000E02DD30115966C91C2010995009709F40F
:1023500054CFFC01F482D30115960C911597139676
:102360008D919C911497EB89FC89EF2B09F48AC01D
:10237000602F0E94E404FC01892B09F472C00283DF
:102380002B893C893183208381E08383D301199693
:102390008C93199790E21A969C931A9784E01B9657
:1023A0008C931B9722E01C962C931C971D969C9354
:1023B0001D971E968C931E9715960C911597602F5E
:1023C00013968D919C9114970E94E404FC01892B33
:1023D00009F447C002832B893C893183208383E041
:1023E000838368EC70E080E090E00E94E30F1F922E
:1023F0001F921F921F921F921F92812C912CA12C31
:10240000B12CC12CEE24E39409E020E0D301169610
:102410004C91169715966C91159713968D919C91EA
:1024200014970E94C809082F0F900F900F900F90DB
:102430000F900F90811116C0D3011F96ED91FC9162
:102440005097309711F0099505C061E070E0C30125
:102450000E94B51081E0F3018283818B15C001EDEC
:1024600001C006EDD301ED91FC910480F581E02DD2
:10247000C3010995102F08C019ED06C017ED04C05F
:1024800014ED02C008EDEECF812F67960FB6F894D9
:10249000DEBF0FBECDBFDF91CF911F910F91FF9097
:1024A000EF90DF90CF90BF90AF909F908F907F90F4
:1024B0006F905F904F903F902F9008950F931F93D0
:1024C000CF93DF93C82FD62F8A0180E591E00E9439
:1024D000E5080E9464078C2F82600E94DE08CD2FE1
:1024E000D0E0209721F0BE01C8010E944607C00F2E
:1024F000D11F0E9466070E94DD08CE01DF91CF91B7
:102500001F910F9108951F93CF93DF9300D01F92D7
:10251000CDB7DEB7182F80E591E06B830E94E50808
:102520000E946407126019836B816A8362E070E025
:10253000CE0101960E9446070E9466070E94DD08B0
:102540000F900F900F90DF91CF911F9108951F93DF
:10255000CF93DF931F92CDB7DEB7182F80E591E0C0
:102560000E94E5080E946407812F0E94DE0880E037
:102570000E94DE0889830E9466070E94DD08898127
:102580000F90DF91CF911F910895CF92DF92EF923C
:10259000FF920F931F93CF93DF936C017A018B010E
:1025A000C0E0D0E0CE15DF0589F0D8016D918D0136
:1025B000D601ED91FC910190F081E02DC6010995C5
:1025C000892B11F47E0102C02196ECCFC701DF9167
:1025D000CF911F910F91FF90EF90DF90CF900895D2
:1025E0000F931F93CF93DF938C01C0E0D0E0F801ED
:1025F000EC0FFD1F6491662371F0E091FC01F091F6
:10260000FD010190F081E02D8CEF91E00995892B7F
:1026100011F02196ECCFCE01DF91CF911F910F9158
:10262000089588EF0E948D0B807C8034A1F018F40F
:10263000882301F10895803819F0803CB9F008959D
:1026400088ED0E948D0B81FD0BC069EC88ED0E9426
:102650006B0B82E00CC088ED0E948D0B81FDF5CFE5
:102660006BEC88ED0E946B0B83E001C081E08093EE
:10267000FB01089561ED88ED0E946B0B1092FB0148
:102680000895CF93DF93C0E1D7E28AE992E00E94F8
:102690007A05892B29F08AE992E00E94920509C007
:1026A000219799F769E971E08CEF91E00E94A90BFD
:1026B0008FEFDF91CF9108950F931F93CF93DF9307
:1026C000CDB7DEB7C055D1090FB6F894DEBF0FBE47
:1026D000CDBF9E01255A3F4F42E851E060E570E0D2
:1026E000CE0101960E94881F8E010F5F1F4FF801D7
:1026F00080818823D9F08A3059F4E091FC01F0916F
:10270000FD010190F081E02D6DE08CEF91E00995E5
:10271000E091FC01F091FD010190F081E02DD801E4
:102720006D918D018CEF91E00995E1CFC05BDF4F9A
:102730000FB6F894DEBF0FBECDBFDF91CF911F91D2
:102740000F910895CF93DF930E94F012EC0167E799
:1027500071E08CEF91E00E94A90B8C0F9D1FDF911F
:10276000CF9108958830910539F48091DF02882354
:1027700041F11092DF0208958930910539F480917A
:10278000E0028823F1F01092E0020895FC01FF2797
:10279000EE0FFF1FE15FF64F459154912091D30258
:1027A0003091D402BA016223732381E0672B09F4CC
:1027B00080E040955095242335233093D402209314
:1027C000D30208958F929F92BF92CF92DF92EF92A1
:1027D000FF920F931F93CF93DF931F92CDB7DEB776
:1027E0004C01B62E690149830E94E4047C014981B1
:1027F000009709F44BC0DC01ED91FC9111973097E3
:1028000009F446C013969C9180E0891731F020812D
:10281000241729F033968F5FF8CFE0E0F0E0D6017F
:10282000ED93FC933097B1F122812695269530E007
:102830002031310514F02FE030E081E090E0A0E09D
:10284000B0E004C0880F991FAA1FBB1F2A95D2F7BA
:102850000197F801918380836B2D80EE0E94831293
:1028600088ED0E94A712682FD70114968C918823B7
:1028700039F0F401EA58FF4F80818260682B01C073
:10288000697F88ED0E94831280E005C086ED03C059
:1028900087ED01C08BED0F90DF91CF911F910F91CC
:1028A000FF90EF90DF90CF90BF909F908F90089512
:1028B0008F929F92AF92BF92CF92DF92EF92FF9250
:1028C0000F931F93CF93DF93CDB7DEB7A1970FB6CA
:1028D000F894DEBF0FBECDBF6C01990FEE08FF0864
:1028E000F7FE33C0E091FC01F091FD010190F08111
:1028F000E02D6DE28CEF91E009958C0122273327C2
:10290000A9012C193D094E095F0919A2CE01819632
:102910007C019AE0892E912CA12CB12CCA01B9011D
:10292000A50194010E940A1E605DF70162937F0178
:10293000211531054105510589F7BF018CEF91E063
:102940000E94A90B800F911F1FC0A701960119A219
:102950008E010F5D1F4F8AE0C82ED12CE12CF12C87
:10296000CA01B901A70196010E940A1E605DF80123
:1029700062938F01211531054105510589F7BF018A
:102980008CEF91E00E94A90BA1960FB6F894DEBFE0
:102990000FBECDBFDF91CF911F910F91FF90EF90B0
:1029A000DF90CF90BF90AF909F908F9008958F92BF
:1029B0009F92AF92BF92CF92EF920F93CF931F92BD
:1029C0001F921F921F921F921F92812C912CA12C5B
:1029D000B12CC12CE42E05E020E040E00E94C809A3
:1029E000C82F6CE271E080E090E00E94E30F0F904E
:1029F0000F900F900F900F900F908C2FCF910F9101
:102A0000EF90CF90BF90AF909F908F900895CF930D
:102A1000DF93CDB7DEB765970FB6F894DEBF0FBE74
:102A2000CDBF789484B5826084BD84B5816084BD57
:102A300085B5826085BD85B5816085BD80916E005C
:102A4000816080936E00109281008091810082608D
:102A500080938100809181008160809381008091CA
:102A600080008160809380008091B10084608093B9
:102A7000B1008091B00081608093B00080917A00B5
:102A8000846080937A0080917A00826080937A00DB
:102A900080917A00816080937A0080917A008068CA
:102AA00080937A001092C100E0910C02F0910D0227
:102AB00082E08083E0910802F09109021082E091A7
:102AC0000A02F0910B0280E1808310921402E091DF
:102AD0001002F091110286E08083E0910E02F091E5
:102AE0000F02808180618083E0910E02F0910F02DD
:102AF000808188608083E0910E02F0910F028081D6
:102B000080688083E0910E02F0910F0280818F7DBA
:102B100080831092B5021092B4021092B302109208
:102B2000B2021092B1021092B0028DE991E090933E
:102B3000B7028093B6029091A602963108F057C072
:102B40002DEB30E03093B1022093B0022BE931E05D
:102B50003093B3022093B2022CE231E03093B502FD
:102B60002093B40220916800983050F031E09E30FC
:102B700008F430E081E001C0880F3A95EAF701C01F
:102B800084E0822B80936800983038F09E3040F0CB
:102B9000963148F020E030E008C02DE630E005C076
:102BA0002BE630E002C02CE630E03093AE022093FA
:102BB000AD02983030F481E001C0880F9A95EAF7B1
:102BC0000EC0292F30E09E3018F42850310902C081
:102BD0002E50310981E001C0880F2A95EAF78093D1
:102BE000AF028091B6029091B7020197F1F7809100
:102BF000B4029091B502892B21F18091AA019091A4
:102C0000AB0122E08A399207E1F0009711F00E94AF
:102C100030078091B8028E7F8093B8021092A9018C
:102C20001092A8018AE992E09093AB018093AA01E7
:102C3000E091AD02F091AE0290818091AF02892BBC
:102C40008083229A0E9466071FB7F8948091AC0196
:102C5000811127C0E1E5F9E08491E5E6F9E094917E
:102C6000E82FF0E0EE0FFF1FE859FF4FA591B49158
:102C7000EC91E92321F461E08AE00E945B0F61E0BE
:102C80008AE00E94A70F8CB580618CBD8CB58064F2
:102C90008CBD61E08DE00E94A70F61E08BE00E9497
:102CA000A70F8091AC018F5F8093AC011FBF229A68
:102CB0000E946607219868E188E80E946B0B60E239
:102CC00088E70E946B0B60E088E70E946B0B01E0D5
:102CD00010E00115110509F47EC488E60E948D0BF1
:102CE0000F5F1F4F80FFF5CF61EC88ED0E946B0BEB
:102CF00060E680ED0E946B0B64E088EE0E946B0B37
:102D000088EE0E948D0B82FFFBCF0E94111360E2C0
:102D100088EC0E946B0B61E080E80E946B0B86E8F8
:102D200090E00E94F01238E0D32E1E0183E1280EBD
:102D3000311C19990DC088EC0E94A71285FF04C0B0
:102D40000E94111360E201C060E088EC0E948312CF
:102D50008091FB01813039F050F0823089F083306E
:102D600049F511E00EC093E19093990223C0809140
:102D70009902807F8031F1F0A1E1A09399021AC0FD
:102D800010E080919902807F8031A9F40E941D108B
:102D9000DC01CB0188539F4FAF4FBF4F8093AE01F3
:102DA0009093AF01A093B001B093B10180E2809302
:102DB000990201C010E02FE5622E23E0722E43013C
:102DC000F401819191914F01009739F0DC01ED916F
:102DD000FC910680F781E02D0995BFE78B16B3E0E3
:102DE0009B0671F780919902803409F446C050F433
:102DF000803241F18033D9F1813109F087C11092DD
:102E00007F030AC0813509F461C0803809F473C0BA
:102E1000803509F07BC142C0F301819191913F015E
:102E2000009739F0DC01ED91FC910480F581E02DF3
:102E30000995BFE76B16B3E07B0671F7E2E1E0931B
:102E4000990264C10E941D100091AE011091AF0162
:102E50002091B0013091B101DC01CB01801B910BBD
:102E6000A20BB30BB7FD52C180E38093990261E0DE
:102E700088EE0E94831280E447C188EE0E94A71268
:102E800080FD44C188ED0E94A712682F686088ED1C
:102E90000E948312F0E5F093990238C188EC0E94F9
:102EA000A71286FF33C181E5809399020E941D100D
:102EB000DC01CB014496A11DB11D8093AE0190931E
:102EC000AF01A093B001B093B10120C10E941D10C9
:102ED0008090AE019090AF01A090B001B090B10190
:102EE000DC01CB0188199909AA09BB09B7FD0EC1FC
:102EF00080E8809399021B8ADC8A8CE38D8B8FE0BB
:102F000093E0892B11F486EDF8C040900F035090A8
:102F100010033092100320920F03109313031F929B
:102F20001F92A1E0B0E0AC0FBD1FBF93AF931F9203
:102F3000B2E1BF9392E1892E912CA12CB12CCC242B
:102F4000C394E12C06E020E840E060E089E093E0F3
:102F50000E94C8095092100340920F030F900F90E7
:102F60000F900F900F900F908111C3C0A984BA8465
:102F70008B849C84CD80FE808FE5482E83E0582E84
:102F8000F20180819181009789F1DC01ED91FC9142
:102F90000084F185E02D0995811128C0F20180811E
:102FA0009181DC01ED91FC910088F189E02D6F2D7C
:102FB00009958823D9F0F20180819181DC01ED919E
:102FC000FC910484F585E02DA401B50109958111DA
:102FD00085C0F20180819181DC01ED91FC91068434
:102FE000F785E02D6C2D0995811178C0E394B2E04E
:102FF0004B0E511CE0E1EE12C3CFE12CD3018D91B9
:103000009C91009799F1DC01ED91FC910084F18590
:10301000E02D099581112AC0F30180819181DC01A5
:10302000ED91FC910088F189E02D6F2D09958823A1
:1030300009F48FC2F30180819181DC01ED91FC9153
:103040000484F585E02DA401B501099581110EC018
:10305000F30180819181DC01ED91FC910684F7857B
:10306000E02D6C2D0995882309F473C2E394B2E036
:103070006B0E711CE0E1EE12C1CF80910F039091B5
:103080001003892B39F11093130320E040E060E036
:1030900089E093E00E94E50DE82E8823E9F0682F8F
:1030A00089E093E00E94E404009709F42CCFDC014E
:1030B00014961C934E2D60E089E093E00E94D71493
:1030C000182F882301F16E2D89E093E00E94BD0D39
:1030D000812F0FC087ED11C084ED0FC0012F20E0BC
:1030E00040E06E2D89E093E00E941A06813D09F4CC
:1030F0007DCF882341F0823D49F08093AD01B0EA55
:10310000B093990203C080E9809399028091BB0239
:10311000882309F415C210920103D0920203109281
:1031200003031092040310920503109206031092F9
:1031300007031092080348E050E061E073E089EB78
:1031400092E00E948B1085E090E00E94B2138823E9
:10315000F1F0E1E0E093010383E0809302038DE06E
:103160008093030343E050E061E073E089EB92E079
:103170000E948B1085EF90E00E94A21363E086E22C
:1031800091E00E9468070E94BE0B0E94BE0B84E083
:1031900090E00E94B213882301F1E6EAF0E0849106
:1031A000F1E0F093010393E0909302038093030313
:1031B00043E050E061E073E089EB92E00E948B1005
:1031C00080EF90E00E94A21362E084E291E00E940E
:1031D00068070E94BE0B0E94BE0B8091D5029091A1
:1031E000D602845B924E89399A43F0F48091D702DB
:1031F0009091D802845B924E89399A4308F049C075
:103200008091D9029091DA02845B924E89399A4377
:1032100008F03FC08091DB029091DC02845B924E0B
:1032200089399A43B0F5E4C085EE90E00E94F0122F
:103230008090D5029090D602B401092C000C880B26
:10324000990B181419040CF092C10E94191C20E06B
:103250003EEF4FEF56E40E94491D20E030E04FE77B
:1032600053E40E94541C0E94BB1D462F65E08FE171
:1032700091E00E94731065E08FE191E00E94680781
:10328000C4010E94581465E771E08CEF91E00E9440
:10329000A90B8091D7029091D802845B924E893914
:1032A0009A43A8F18AED90E00E94F0128090D70234
:1032B0009090D802B401092C000C880B990B1814BB
:1032C00019040CF06EC10E94191C20E03EEF4FEF74
:1032D00056E40E94491D20E030E04FE753E40E948D
:1032E000541C0E94BB1D462F65E084E191E00E94C2
:1032F000731065E084E191E00E946807C4010E94B8
:10330000581465E771E08CEF91E00E94A90B809161
:10331000D9029091DA02845B924E89399A43A0F1E6
:103320008EEC90E00E94F0128090D9029090DA0228
:103330001814190404F5B401092C000C880B990B1E
:103340000E94191C20E030E040E058E30E94541C29
:1033500020E030E044E353E40E94541C0E94BB1D73
:10336000462F67E087E091E00E94731067E087E0F6
:1033700091E00E946807C4010E94581465E771E05B
:103380008CEF91E00E94A90B82EC90E00E94F01279
:103390008090DB029090DC021814190404F5B4014B
:1033A000092C000C880B990B0E94191C20E030E0BE
:1033B00040E058E30E94541C20E030E044E353E432
:1033C0000E94541C0E94BB1D462F67E080E091E0E4
:1033D0000E94731067E080E091E00E946807C401DA
:1033E0000E94581467E771E08CEF91E00E94A90BEE
:1033F00080E090E00E94B213882351F061E070E019
:1034000089EB92E00E94B5108FEB90E00E94A2132E
:1034100082E090E00E94B213882351F064E070E0F3
:1034200089EB92E00E94B5108AEB90E00E94A21313
:1034300083E090E00E94B213882351F063E070E0D3
:1034400089EB92E00E94B51085EB90E00E94A213F8
:1034500081E090E00E94B213882351F062E070E0B6
:1034600089EB92E00E94B5108FEA90E00E94A213CF
:103470008DE090E00E94B2138823A1F08DEA90E0E5
:103480000E94A2138AE992E00E947A05892B21F01A
:103490008AE992E00E9492056AE771E08AE992E087
:1034A0000E94A90B8CE090E00E94B2138823A1F047
:1034B0008BEA90E00E94A2138AE992E00E947A05CA
:1034C000892B21F08AE992E00E9492056CE771E075
:1034D0008AE992E00E94A90B8EE090E00E94B2136C
:1034E0008823A1F089EA90E00E94A2138AE992E081
:1034F0000E947A05892B21F08AE992E00E949205C8
:103500006EE771E08AE992E00E94A90B8FE090E0FB
:103510000E94B2138823A1F087EA90E00E94A213D0
:103520008AE992E00E947A05892B21F08AE992E0EB
:103530000E94920560E871E08AE992E00E94A90B7E
:1035400064E670E080E090E00E94E30F0E94FE0CD1
:10355000F0CB012F20E040E06E2D89E093E00E9447
:103560001A06982F977F913D09F0C3CD7FCD0E9419
:10357000191C20E030E040E058EB0E94541C20E091
:1035800030E04FE753E40E94541C0E94BB1D462FBD
:1035900066E089E191E00E94731066E089E191E0C4
:1035A0006DCE0E94191C20E030E040E058EB0E94F4
:1035B000541C20E030E04FE753E40E94541C0E946A
:1035C000BB1D462F66E08EE091E00E94731066E01E
:1035D0008EE091E091CE82E790E00E94F012FFCF62
:1035E00085E491E090939B0280939A028AE992E0AD
:1035F0000C9430071092FF011092FE0188EE93E0C8
:10360000A0E0B0E08093000290930102A093020238
:10361000B093030283E391E09093FD018093FC015A
:1036200085EC90E0909309028093080284EC90E08E
:1036300090930B0280930A0280EC90E090930D022D
:1036400080930C0281EC90E090930F0280930E0225
:1036500082EC90E0909311028093100286EC90E04F
:103660009093130280931202109215021092160288
:1036700010921702109218028FE691E090930A03BD
:103680008093090310920E031092110381E080933E
:103690001203109213038BE093E090931003809336
:1036A0000F0310920B0388E080930C038CE380934C
:1036B0000D0380E090E041E02BE033E0FC01E75FA8
:1036C000FC4F1586468717863487238705968B34EB
:1036D0009105A1F710927F0381E18093990287E51C
:1036E00091E09093BA028093B90289E093E09093BD
:1036F000BD028093BC021092BE021092CA021092C8
:10370000BF0288E08093C0028CE38093C1021092D4
:10371000C2021092C30284E08093C4021092C502D8
:103720001092C6028093C702EFE5F3E080E090E0DC
:1037300021913191232B51F4880F991FFC01E15AFB
:10374000FC4F89EB92E09183808304C00196803125
:10375000910571F710929D0210929C0288EE93E001
:10376000A0E0B0E080939E0290939F02A093A002FD
:10377000B093A10285E491E090939B0280939A021A
:103780001092B1021092B0021092B3021092B202E3
:103790001092B5021092B4021092B7021092B602C3
:1037A0006091B8026E7F6D7F6093B802669561701C
:1037B00081E0682783E00E945B0F61E083E00E9464
:1037C000A70FEEE5F9E0E491E093AA02EAE4F9E05C
:1037D000E491F0E0EE0FFF1FED5CF64F85919491C0
:1037E0009093AC028093AB0260E082E00E94A70F4E
:1037F0008091B80281FD04C061E082E00E945B0F0D
:1038000082E08093A602EDE5F9E0E491E093A7025F
:10381000E9E4F9E0E491F0E0EE0FFF1FE35CF64F1E
:10382000859194919093A9028093A8020895E894B9
:1038300009C097FB3EF490958095709561957F4FF8
:103840008F4F9F4F9923A9F0F92F96E9BB279395A6
:10385000F695879577956795B795F111F8CFFAF4B6
:10386000BB0F11F460FF1BC06F5F7F4F8F4F9F4FE7
:1038700016C0882311F096E911C0772321F09EE845
:10388000872F762F05C0662371F096E8862F70E0AB
:1038900060E02AF09A95660F771F881FDAF7880F85
:1038A0009695879597F908950E94671C0C94D81CEB
:1038B0000E94CA1C38F00E94D11C20F0952311F000
:1038C0000C94C11C0C94C71C11240C940C1D0E9458
:1038D000E91C70F3959FC1F3950F50E0551F629F4F
:1038E000F001729FBB27F00DB11D639FAA27F00D59
:1038F000B11DAA1F649F6627B00DA11D661F829F80
:103900002227B00DA11D621F739FB00DA11D621F64
:10391000839FA00D611D221F749F3327A00D611D81
:10392000231F849F600D211D822F762F6A2F112463
:103930009F5750409AF0F1F088234AF0EE0FFF1F96
:10394000BB1F661F771F881F91505040A9F79E3FED
:10395000510580F00C94C11C0C940C1D5F3FE4F3E6
:10396000983ED4F3869577956795B795F795E79543
:103970009F5FC1F7FE2B880F911D9695879597F94C
:10398000089597F99F6780E870E060E008959FEFE1
:1039900080EC089500240A941616170618060906E6
:1039A000089500240A9412161306140605060895B5
:1039B000092E0394000C11F4882352F0BB0F40F43D
:1039C000BF2B11F460FF04C06F5F7F4F8F4F9F4F7D
:1039D000089557FD9058440F551F59F05F3F71F0FF
:1039E0004795880F97FB991F61F09F3F79F0879566
:1039F0000895121613061406551FF2CF4695F1DFEF
:103A000008C0161617061806991FF1CF869571057E
:103A1000610508940895E894BB2766277727CB01B2
:103A200097F908952F923F924F925F926F927F92F3
:103A30008F929F92AF92BF92CF92DF92EF92FF92BE
:103A40000F931F93CF93DF93CDB7DEB7CA1BDB0B6A
:103A50000FB6F894DEBF0FBECDBF09942A8839880F
:103A600048885F846E847D848C849B84AA84B98416
:103A7000C884DF80EE80FD800C811B81AA81B98122
:103A8000CE0FD11D0FB6F894DEBF0FBECDBFED0136
:103A900008950E945D1D0C94D81C0E94D11C58F002
:103AA0000E94CA1C40F029F45F3F29F00C94C11C0D
:103AB00051110C940C1D0C94C71C0E94E91C68F356
:103AC0009923B1F3552391F3951B550BBB27AA27D7
:103AD00062177307840738F09F5F5F4F220F331F11
:103AE000441FAA1FA9F335D00E2E3AF0E0E832D0D9
:103AF00091505040E695001CCAF72BD0FE2F29D0DC
:103B0000660F771F881FBB1F261737074807AB07AD
:103B1000B0E809F0BB0B802DBF01FF2793585F4F22
:103B20003AF09E3F510578F00C94C11C0C940C1D8A
:103B30005F3FE4F3983ED4F3869577956795B79504
:103B4000F7959F5FC9F7880F911D9695879597F90F
:103B50000895E1E0660F771F881FBB1F6217730788
:103B60008407BA0720F0621B730B840BBA0BEE1F9D
:103B700088F7E09508950E94F11C88F09F5798F00F
:103B8000B92F9927B751B0F0E1F0660F771F881F62
:103B9000991F1AF0BA95C9F714C0B13091F00E947C
:103BA0000B1DB1E008950C940B1D672F782F88270B
:103BB000B85F39F0B93FCCF3869577956795B395A3
:103BC000D9F73EF490958095709561957F4F8F4F12
:103BD0009F4F0895991B79E004C0991F961708F02C
:103BE000961B881F7A95C9F78095089597FB072E35
:103BF00016F4009407D077FD09D00E942C1E07FC14
:103C000005D03EF4909581959F4F089570956195EC
:103C10007F4F0895A1E21A2EAA1BBB1BFD010DC008
:103C2000AA1FBB1FEE1FFF1FA217B307E407F5076C
:103C300020F0A21BB30BE40BF50B661F771F881F48
:103C4000991F1A9469F760957095809590959B01DE
:103C5000AC01BD01CF010895AA1BBB1B51E107C0F8
:103C6000AA1FBB1FA617B70710F0A61BB70B881F0C
:103C7000991F5A95A9F780959095BC01CD0108959B
:103C8000EE0FFF1F0590F491E02D0994CF93DF9381
:103C90008230910510F482E090E0E0918403F0918D
:103CA000850320E030E0C0E0D0E0309711F14081A2
:103CB000518148175907C0F04817590761F48281AC
:103CC0009381209719F09B838A832BC0909385035F
:103CD0008093840326C02115310519F0421753073C
:103CE00018F49A01BE01DF01EF010280F381E02D9B
:103CF000DCCF2115310509F1281B390B24303105A2
:103D000090F412968D919C9113976115710521F095
:103D1000FB019383828304C0909385038093840383
:103D2000FD01329644C0FD01E20FF31F8193919390
:103D3000225031092D933C933AC020918203309157
:103D40008303232B41F420912B0130912C013093DC
:103D50008303209382032091290130912A012115A8
:103D6000310541F42DB73EB740912D0150912E0100
:103D7000241B350BE0918203F0918303E217F307D4
:103D8000A0F42E1B3F0B2817390778F0AC014E5FCB
:103D90005F4F2417350748F04E0F5F1F5093830382
:103DA000409382038193919302C0E0E0F0E0CF0161
:103DB000DF91CF9108950F931F93CF93DF930097D7
:103DC00009F48CC0FC0132971382128200918403A3
:103DD000109185030115110581F420813181820F35
:103DE000931F20918203309183032817390779F5B7
:103DF000F0938303E093820371C0D80140E050E068
:103E0000AE17BF0750F412962D913C911397AD0158
:103E10002115310509F1D901F3CF9D01DA01338371
:103E2000228360817181860F971F8217930769F43F
:103E3000EC0128813981260F371F2E5F3F4F3183D8
:103E400020838A819B8193838283452B29F4F0937D
:103E50008503E093840342C01396FC93EE9312977C
:103E6000ED01499159919E01240F351FE217F30787
:103E700071F480819181840F951F029611969C9315
:103E80008E938281938113969C938E931297E0E098
:103E9000F0E0D80112968D919C911397009719F03C
:103EA000F8018C01F6CF8D919C9198012E5F3F4FC8
:103EB000820F931F209182033091830328173907C3
:103EC00069F4309729F4109285031092840302C09C
:103ED000138212821093830300938203DF91CF91A8
:103EE0001F910F91089581E090E0F8940C94322294
:103EF000DC0101C06D9341505040E0F70895FB0193
:103F0000DC018D91019080190110D9F3990B08956E
:103F1000AEE0B0E0EEE8FFE10C94201D8C01CA0198
:103F200046E04C831A83098377FF02C060E070E8A3
:103F3000FB013197FE83ED83A901BC01CE010196FF
:103F40000E94B41F4D815E8157FD0AC02F813885C4
:103F5000421753070CF49A01F801E20FF31F108285
:103F60002E96E4E00C943C1DACE0B0E0EAEBFFE1FF
:103F70000C94121D7C016B018A01FC0117821682D0
:103F8000838181FFBDC1CE0101964C01F701938170
:103F9000F60193FD859193FF81916F01882309F4C8
:103FA000ABC1853239F493FD859193FF81916F0107
:103FB000853229F4B70190E00E949C21E7CF512C73
:103FC000312C20E02032A0F48B3269F030F48032C2
:103FD00059F0833269F420612CC08D3239F080337E
:103FE00039F4216026C02260246023C0286021C0EB
:103FF00027FD27C030ED380F3A3078F426FF06C091
:10400000FAE05F9E300D1124532E13C08AE0389ED3
:10401000300D1124332E20620CC08E3221F426FD87
:104020006BC1206406C08C3611F4206802C088364B
:1040300041F4F60193FD859193FF81916F01811108
:10404000C1CF982F9F7D9554933028F40C5F1F4F5C
:10405000FFE3F9830DC0833631F0833771F0833588
:1040600009F05BC022C0F801808189830E5F1F4F79
:1040700044244394512C540115C03801F2E06F0ED2
:10408000711CF801A080B18026FF03C0652D70E08F
:1040900002C06FEF7FEFC5012C870E9491212C0198
:1040A00083012C852F77222E17C03801F2E06F0E86
:1040B000711CF801A080B18026FF03C0652D70E05F
:1040C00002C06FEF7FEFC5012C870E9486212C0173
:1040D0002C852068222E830123FC1BC0832D90E0B9
:1040E00048165906B0F4B70180E290E00E949C2186
:1040F0003A94F4CFF50127FC859127FE81915F0169
:10410000B70190E00E949C2131103A94F1E04F1ADF
:1041100051084114510471F7E5C0843611F0893615
:1041200039F5F80127FF07C0608171818281938191
:104130000C5F1F4F08C060817181072E000C880B37
:10414000990B0E5F1F4F2F76722E97FF09C0909527
:104150008095709561957F4F8F4F9F4F2068722E8D
:104160002AE030E0A4010E94D421A82EA81844C05F
:10417000853729F42F7EB22E2AE030E025C0F22FB9
:10418000F97FBF2E8F36C1F018F4883579F0B4C0AE
:10419000803719F0883721F0AFC02F2F2061B22E61
:1041A000B4FE0DC08B2D8460B82E09C024FF0AC058
:1041B0009F2F9660B92E06C028E030E005C020E1B0
:1041C00030E002C020E132E0F801B7FE07C06081B4
:1041D0007181828193810C5F1F4F06C06081718164
:1041E00080E090E00E5F1F4FA4010E94D421A82E12
:1041F000A818FB2DFF777F2E76FE0BC0372D3E7F54
:10420000A51450F474FE0AC072FC08C0372D3E7E1F
:1042100005C0BA2C372D03C0BA2C01C0B52C34FF11
:104220000DC0FE01EA0DF11D8081803311F4397E4D
:1042300009C032FF06C0B394B39404C0832F8678BC
:1042400009F0B39433FD13C030FF06C05A2CB314E9
:1042500018F4530C5B18B32CB31468F4B70180E264
:1042600090E03C870E949C21B3943C85F5CFB31429
:1042700010F43B1801C0312C34FF12C0B70180E3A9
:1042800090E03C870E949C213C8532FF17C031FDA5
:1042900003C088E790E002C088E590E0B7010CC059
:1042A000832F867859F031FF02C08BE201C080E293
:1042B00037FD8DE2B70190E00E949C21A51438F4EF
:1042C000B70180E390E00E949C215A94F7CFAA9412
:1042D000F401EA0DF11D8081B70190E00E949C215C
:1042E000A110F5CF332009F451CEB70180E290E060
:1042F0000E949C213A94F6CFF7018681978102C0F3
:104300008FEF9FEF2C96E2E10C942E1DFC0105909F
:10431000615070400110D8F7809590958E0F9F1FC7
:104320000895FC016150704001900110D8F780950C
:1043300090958E0F9F1F08950F931F93CF93DF9338
:10434000FB01238121FD03C08FEF9FEF28C022FFD7
:1043500016C046815781248135814217530744F4A2
:10436000A081B1819D012F5F3F4F318320838C93CA
:10437000268137812F5F3F4F3783268310C0EB01A3
:10438000092F182F0084F185E02D0995892BE1F67E
:104390008E819F8101969F838E83812F902FDF9145
:1043A000CF911F910F910895FA01AA27283051F15A
:1043B000203181F1E8946F936E7F6E5F7F4F8F4F56
:1043C0009F4FAF4FB1E03ED0B4E03CD0670F781FB5
:1043D000891F9A1FA11D680F791F8A1F911DA11D9A
:1043E0006A0F711D811D911DA11D20D009F46894D3
:1043F0003F912AE0269F11243019305D3193DEF67B
:10440000CF010895462F4770405D4193B3E00FD030
:10441000C9F7F6CF462F4F70405D4A3318F0495D1B
:1044200031FD4052419302D0A9F7EACFB4E0A695FE
:104430009795879577956795BA95C9F70097610520
:10444000710508959B01AC010A2E06945795479576
:1044500037952795BA95C9F7620F731F841F951F6B
:10446000A01D089514E0C9EBD4E004C0FE010E9431
:0E447000401E2196CA3BD107C9F7F894FFCF32
:10447E000305323B0000000305313B00000001063E
:10448E002D0000000106000000010A2D00000001B1
:10449E000A000000040204010400008603800000EC
:1044AE00000000950CC5122D0CDC0C5E0C3C0C5063
:1044BE000C000000002605C512B40525057A0592EC
:1044CE00050D0500000000CA1009052D0D430E6CE8
:1044DE000D0205410DFE04FC04690D00000000E410
:1044EE0004E50DBD0D09000D0A0041004200580003
:1044FE005900636F6D5F73697A653A2025640A000F
:10450E00616E733A20004F4B0052656164207469EE
:08451E006D65206F75742E001D
:107E0000112484B714BE81FFF0D085E080938100F7
:107E100082E08093C00088E18093C10086E0809377
:107E2000C20080E18093C4008EE0C9D0259A86E02C
:107E300020E33CEF91E0309385002093840096BBD3
:107E4000B09BFECF1D9AA8958150A9F7CC24DD24C4
:107E500088248394B5E0AB2EA1E19A2EF3E0BF2EE7
:107E6000A2D0813461F49FD0082FAFD0023811F036
:107E7000013811F484E001C083E08DD089C08234E0
:107E800011F484E103C0853419F485E0A6D080C0E4
:107E9000853579F488D0E82EFF2485D0082F10E0AE
:107EA000102F00270E291F29000F111F8ED06801E7
:107EB0006FC0863521F484E090D080E0DECF843638
:107EC00009F040C070D06FD0082F6DD080E0C81688
:107ED00080E7D80618F4F601B7BEE895C0E0D1E017
:107EE00062D089930C17E1F7F0E0CF16F0E7DF06D8
:107EF00018F0F601B7BEE89568D007B600FCFDCFD4
:107F0000A601A0E0B1E02C9130E011968C91119780
:107F100090E0982F8827822B932B1296FA010C0160
:107F200087BEE89511244E5F5F4FF1E0A038BF0790
:107F300051F7F601A7BEE89507B600FCFDCF97BE46
:107F4000E89526C08437B1F42ED02DD0F82E2BD052
:107F50003CD0F601EF2C8F010F5F1F4F84911BD097
:107F6000EA94F801C1F70894C11CD11CFA94CF0C13
:107F7000D11C0EC0853739F428D08EE10CD085E9AC
:107F80000AD08FE07ACF813511F488E018D01DD067
:107F900080E101D065CF982F8091C00085FFFCCF94
:107FA0009093C60008958091C00087FFFCCF809118
:107FB000C00084FD01C0A8958091C6000895E0E648
:107FC000F0E098E1908380830895EDDF803219F02E
:107FD00088E0F5DFFFCF84E1DECF1F93182FE3DFCA
:107FE0001150E9F7F2DF1F91089580E0E8DFEE27F6
:047FF000FF270994CA
:027FFE00040479
:0400000300007E007B
:00000001FF