:100000000C9495040C94BD040C94BD040C9443060C
:100010000C9443060C9443060C94BD040C94BD044C
:100020000C94BD040C94BD040C94BD040C94BD044C
:100030000C94BD040C94BD040C94BD040C94BD043C
:100040000C94A10E0C94BD040C94A10D0C947B0D8A
:100050000C94BD040C94BD040C94BD040C94BD041C
:100060000C94BD040C94BD04000000002400270083
:100070002A000001000800020004002000100040D7
:10008000008000000000010002002000100040007D
:10009000800004000800000203040501526967683B
:1000A00074486174593A20005269676874486174F1
:1000B000583A20004C656674486174593A20004CE7
:1000C000656674486174583A20004261636B00535E
:1000D0007461727400000000080002010000030453
:1000E0000700000000000000000000C1C081C14006
:1000F0000101C3C003800241C201C6C0068007419E
:10010000C70005C1C581C4400401CCC00C800D41AD
:10011000CD000FC1CF81CE400E000AC1CA81CB40B5
:100120000B01C9C009800841C801D8C01880194115
:10013000D9001BC1DB81DA401A001EC1DE81DF401D
:100140001F01DDC01D801C41DC0014C1D481D540DD
:100150001501D7C017801641D601D2C012801341B5
:10016000D30011C1D181D0401001F0C030803141A5
:10017000F10033C1F381F240320036C1F681F7401D
:100180003701F5C035803441F4003CC1FC81FD40AD
:100190003D01FFC03F803E41FE01FAC03A803B4135
:1001A000FB0039C1F981F840380028C1E881E940F5
:1001B0002901EBC02B802A41EA01EEC02E802F419D
:1001C000EF002DC1ED81EC402C01E4C024802541DD
:1001D000E50027C1E781E640260022C1E281E34035
:1001E0002301E1C021802041E001A0C06080614185
:1001F000A10063C1A381A240620066C1A681A7409D
:100200006701A5C065806441A4006CC1AC81AD40AC
:100210006D01AFC06F806E41AE01AAC06A806B41B4
:10022000AB0069C1A981A840680078C1B881B94014
:100230007901BBC07B807A41BA01BEC07E807F411C
:10024000BF007DC1BD81BC407C01B4C074807541DC
:10025000B50077C1B781B640760072C1B281B340B4
:100260007301B1C071807041B00050C19081914064
:10027000510193C053805241920196C0568057411C
:10028000970055C19581944054019CC05C805D41AC
:100290009D005FC19F819E405E005AC19A819B4034
:1002A0005B0199C059805841980188C048804941F4
:1002B00089004BC18B818A404A004EC18E818F409C
:1002C0004F018DC04D804C418C0044C184818540DC
:1002D000450187C047804641860182C04280434134
:1002E000830041C181818040400000019001600095
:1002F000F002C0035003A0023007C0065006A0075A
:100300003005000490046005F00DC00C500CA00DE9
:10031000300F000E900E600FF00A000B900B600A79
:10032000F008C0095009A0083019C0185018A019C9
:10033000301B001A901A601BF01E001F901F601ED9
:10034000F01CC01D501DA01C301400159015601429
:10035000F016C0175017A0163013C0125012A01379
:100360003011001090106011F031C0305030A031C9
:100370003033003290326033F036003790376036D9
:10038000F034C0355035A034303C003D903D603CE9
:10039000F03EC03F503FA03E303BC03A503AA03BF9
:1003A0003039003890386039F028002990296028C9
:1003B000F02AC02B502BA02A302FC02E502EA02F59
:1003C000302D002C902C602DF025C0245024A02529
:1003D0003027002690266027F022002390236022F9
:1003E000F020C0215021A0203061C0605060A06189
:1003F0003063006290626063F066006790676066D9
:10040000F064C0655065A064306C006D906D606CE8
:10041000F06EC06F506FA06E306BC06A506AA06BF8
:100420003069006890686069F07800799079607848
:10043000F07AC07B507BA07A307FC07E507EA07F58
:10044000307D007C907C607DF075C0745074A07528
:100450003077007690766077F072007390736072F8
:10046000F070C0715071A0703050005190516050C8
:10047000F052C0535053A0523057C0565056A05758
:100480003055005490546055F05DC05C505CA05DE8
:10049000305F005E905E605FF05A005B905B605A78
:1004A000F058C0595059A0583049C0485048A04948
:1004B000304B004A904A604BF04E004F904F604ED8
:1004C000F04CC04D504DA04C304400459045604428
:1004D000F046C0475047A0463043C0425042A04378
:1004E0003041004090406041F0000051C0A1C0F098
:1004F0000041C11001E001B1C181C2D002200271EE
:10050000C2C00391C361C3300301C55005A005F10A
:10051000C5400411C4E1C4B0048007D1C721C7702D
:1005200007C1C69006600631C601CA500AA00AF18A
:10053000CA400B11CBE1CBB00B8008D1C821C870E9
:1005400008C1C99009600931C9000F51CFA1CFF08E
:100550000F41CE100EE00EB1CE81CDD00D200D7129
:10056000CDC00C91CC61CC300C01D45014A014F14E
:10057000D4401511D5E1D5B0158016D1D621D6704D
:1005800016C1D79017601731D7001151D1A1D1F002
:100590001141D01010E010B1D081D3D013201371CD
:1005A000D3C01291D261D23012001E51DEA1DEF012
:1005B0001E41DF101FE01FB1DF81DCD01C201C7149
:1005C000DCC01D91DD61DD301D01DB501BA01BF186
:1005D000DB401A11DAE1DAB01A8019D1D921D970C9
:1005E00019C1D89018601831D801E85028A028F116
:1005F000E8402911E9E1E9B029802AD1EA21EA702D
:100600002AC1EB902B602B31EB002D51EDA1EDF0C9
:100610002D41EC102CE02CB1EC81EFD02F202F716C
:10062000EFC02E91EE61EE302E002251E2A1E2F0F9
:100630002241E31023E023B1E381E0D020202071A8
:10064000E0C02191E161E1302101E75027A027F1CD
:10065000E7402611E6E1E6B0268025D1E521E570E8
:1006600025C1E49024602431E4003C51FCA1FCF05D
:100670003C41FD103DE03DB1FD81FED03E203E718C
:10068000FEC03F91FF61FF303F01F95039A039F1C1
:10069000F9403811F8E1F8B038803BD1FB21FB700C
:1006A0003BC1FA903A603A31FA01F65036A036F181
:1006B000F6403711F7E1F7B0378034D1F421F47008
:1006C00034C1F59035603531F5003351F3A1F3F0C5
:1006D0003341F21032E032B1F281F1D03120317188
:1006E000F1C03091F061F03030000001FC01B80041
:1006F00044013000CC008801740260039C03D802DE
:1007000024035002AC02E8031404C0053C0578043D
:100710008405F0040C044805B406A0075C0718061D
:10072000E40790066C062807D40BC00A3C0A780B35
:10073000840AF00B0C0B480AB409A0085C081809DD
:10074000E40890096C092808D40F000EFC0EB80FBD
:10075000440E300FCC0F880E740D600C9C0CD80D1D
:10076000240C500DAC0DE80C1415C0143C14781575
:100770008414F0150C154814B417A0165C1618173D
:10078000E41690176C172816D4110010FC10B8113D
:1007900044103011CC118810741360129C12D813BD
:1007A00024125013AC13E812141E001FFC1FB81EB5
:1007B000441F301ECC1E881F741C601D9C1DD81C3D
:1007C000241D501CAC1CE81D141AC01B3C1B781ABD
:1007D000841BF01A0C1A481BB418A0195C191818BD
:1007E000E41990186C182819D429C0283C287829B5
:1007F0008428F0290C294828B42BA02A5C2A182B1D
:10080000E42A902B6C2B282AD42D002CFC2CB82DFC
:10081000442C302DCC2D882C742F602E9C2ED82F5C
:10082000242E502FAC2FE82E14220023FC23B822B4
:1008300044233022CC228823742060219C21D8209C
:1008400024215020AC20E8211426C0273C277826FC
:100850008427F0260C264827B424A0255C251824DC
:10086000E42590246C242825D43C003DFC3DB83C74
:10087000443D303CCC3C883D743E603F9C3FD83E7C
:10088000243F503EAC3EE83F1438C0393C397838FC
:100890008439F0380C384839B43AA03B5C3B183AFC
:1008A000E43B903A6C3A283BD437C0363C36783734
:1008B0008436F0370C374836B435A0345C341835FC
:1008C000E43490356C352834D4330032FC32B833FC
:1008D00044323033CC338832743160309C30D8317C
:1008E00024305031AC31E8301400000000250028DD
:1008F000002B00000000002300260029000404044F
:1009000004040404040202020202020303030303B8
:100910000301020408102040800102040810200195
:10092000020408102000E01BD01B11241FBECFEFD3
:10093000D8E0DEBFCDBF23E0A8EDB1E001C01D923D
:10094000A93BB207E1F711E0A0E0B1E0EEEFF8E477
:1009500002C005900D92A83DB107D9F714E0C4E993
:10096000D4E004C02197FE010E94A61FC339D1071D
:10097000C9F70E9455160C9472240C940000CF9372
:10098000DF93FC01862F807809F051C0283008F0F1
:100990004FC0442321F09581973009F449C0EF01FD
:1009A0002D96A0E0B0E011969881911103C06623C6
:1009B00031F021C02596AF30B105A9F739C085E0E7
:1009C0008A9FE0018B9FD00D1124CE0FDF1F44239F
:1009D00031F081E4888785818F5F858302C081E063
:1009E000888725E02A9FC0012B9F900D1124E80FD6
:1009F000F91F80851DC06770660F660F660F442360
:100A000041F0606485818F5F85838770687F682B84
:100A100003C02770687B622B25E02A9FC0012B9FB3
:100A2000900D1124E80FF91F6087862F01C080E028
:100A3000DF91CF910895611102C006960895FC01DF
:100A40003D9621E03081361307C035E0239F800DAD
:100A5000911D1124069608952F5F3596203191F748
:100A600080E090E0089581E0089580E0089580E0BE
:100A70000895089580E0089580E0089580E0089545
:100A800080E0089580E008952091C8023091C90265
:100A90002817390771F49091C6028091C702981700
:100AA00041F0E091C602F0E0E252FE4F808190E01A
:100AB00008958FEF9FEF089508951F93CF93DF93CD
:100AC000DC015C962D913C915D972115310539F43F
:100AD00081E090E013969C938E9312973DC05196BF
:100AE000ED91FC91529750969C915097892F80954B
:100AF0001FB75E964C915E9741FB772770F941FDD9
:100B00006095F8944081772311F0492B01C0482368
:100B10004083E9012197F1F748E0508160FF02C06E
:100B2000592B01C058235083E9012197F1F76695AD
:100B3000415099F7772321F090818923808303C066
:100B40008081982B90831FBF5C968D919C915D97BF
:100B50000197F1F721E030E0C901DF91CF911F91BA
:100B600008952091C8023091C9022817390771F4FD
:100B70008091C7022091C60290E0805C9F4F821B4B
:100B8000910960E470E00E947E1F089580E090E08B
:100B900008952091C8023091C90228173907B9F485
:100BA0009091C6028091C702981789F0E091C60221
:100BB000F0E0E252FE4F80812091C60230E02F5FCC
:100BC0003F4F2F7333272093C60290E008958FEF95
:100BD0009FEF0895089580E090E00895FC01208142
:100BE0002EBDDC0131969C01260F371FE217F3075B
:100BF00041F051910DB407FEFDCF4EB55EBD4D9352
:100C0000F5CF61507109FC01E60FF71F0DB407FE27
:100C1000FDCF8EB5808308952A98089508958EBDDE
:100C200000000DB407FEFDCF8EB508958CBD9DBDAF
:100C30000895FC016134C1F43F969C01265A3F4F50
:100C400061E0AC014E5F5F4FDF0112971C9211967D
:100C50006C93108213974D935C933596E217F307CC
:100C600099F7FC01158208953D9621E030813613F5
:100C700003C0622F0C9458112F5F35962031B1F7C5
:100C800008950C9441201F920F920FB60F921124D9
:100C90002F933F934F935F936F937F938F939F9384
:100CA000AF93BF93EF93FF93E091C802F091C90215
:100CB000309709F451C0968DA685B785858591FF3B
:100CC00004C09C91892329F447C09C91892309F091
:100CD00043C0A389B4899C918589809589238C938D
:100CE000868997890197F1F7608D718DA685B78503
:100CF000558538E020E0CB010197F1F7822F90E095
:100D000095958795282F4C91452309F020683150FF
:100D100091F7868D81FD20958091C70290E0019624
:100D20008F7399273091C602381749F0A091C702F6
:100D3000B0E0A252BE4F2C938093C70203C0868DB1
:100D40008160868F828D938D0197F1F7A389B48995
:100D50009C918589892B8C93FF91EF91BF91AF91E5
:100D60009F918F917F916F915F914F913F912F91C3
:100D70000F900FBE0F901F901895E091C802F09150
:100D8000C902E817F90769F4A389B4899C91858998
:100D9000809589238C931092C9021092C80281E039
:100DA000089580E0089508952A9A08950F931F9357
:100DB000CF93DF93C82FD62F8A0180E591E00E9460
:100DC00016060E940C068C2F82600E940F06CD2F03
:100DD000D0E0209721F0BE01C8010E94EE05C00FAF
:100DE000D11F0E94D406CE01DF91CF911F910F91A8
:100DF00008951F93CF93DF9300D01F92CDB7DEB736
:100E0000182F80E591E06B830E9416060E940C0665
:100E1000126019836B816A8362E070E0CE010196F3
:100E20000E94EE050E94D4060F900F900F90DF9164
:100E3000CF911F9108959F92AF92BF92CF92DF9270
:100E4000EF92FF920F931F93CF93DF937C01C42FF8
:100E5000122F992493946C01C60ED11CC60ED11C7E
:100E600086E5C80ED11CA42EB12CABE2AA0EB11C93
:100E7000AA0CBB1CAE0CBF1CF60180819181DC0169
:100E8000ED91FC910280F381E02D202F412F6C2FFA
:100E90000995803EC9F4C1110BC061E088EE0E9443
:100EA000F90666E670E080E090E00E945B0E16C0F6
:100EB000F50180819181DC01ED91FC910284F38543
:100EC000E02D612F09950AC08D3031F49FEF990D07
:100ED000933008F040C016C081113DC0F6018081FA
:100EE0009181DC01ED91FC910190F081E02D202FAA
:100EF000412F6C2F0995D82F8D3061F48FEF890D1C
:100F0000833050F464E670E080E090E00E945B0E75
:100F10009394B2CF8823F1F0C1110BC061E088EE49
:100F20000E94F90666E670E080E090E00E945B0EA9
:100F300011C0EC2FF0E0BB96EE0FFF1FEE0DFF1D72
:100F400080819181DC01ED91FC910284F385E02D9B
:100F5000612F09958D2FDF91CF911F910F91FF90F8
:100F6000EF90DF90CF90BF90AF909F9008951F9328
:100F7000CF93DF931F92CDB7DEB7182F80E591E0B6
:100F80000E9416060E940C06812F0E940F0680E028
:100F90000E940F0689830E94D40689810F90DF91F9
:100FA000CF911F9108958F929F92AF92BF92CF924F
:100FB000DF92EF92FF920F931F93CF93DF93862ED2
:100FC000942E59010E94950E6B017C0128E8C20EF7
:100FD00023E1D21EE11CF11C00E010E0D0E0C0E0F3
:100FE00098280E94950EDC01CB018C199D09AE0951
:100FF000BF09B7FF2DC0692D80EF0E94F9060E943E
:10100000950EDC01CB018C199D09AE09BF09B7FF14
:1010100009C088EC0E94B70787FFF1CF60E888EC31
:101020000E94F90688EF0E94B707C82FCF70C4301E
:1010300019F0CE3051F00CC00F5F1F4FA114B10456
:1010400081F20A151B0569F603C0DF5FD33049F64C
:101050008C2FDF91CF911F910F91FF90EF90DF9038
:10106000CF90BF90AF909F908F9008952F923F9216
:101070004F925F926F927F928F929F92AF92BF92A8
:10108000CF92DF92EF92FF920F931F93CF93DF9354
:10109000CDB7DEB729970FB6F894DEBF0FBECDBF30
:1010A0001C01798768875B834A836901D9018D9028
:1010B0009C901197FB01F181F9831D921C92DB0139
:1010C00012968C9181FD02C060E101C060E288EE61
:1010D0000E94F9068E2D90E0A0E0B0E08C839D8305
:1010E000AE83BF83482C2A813B81A885B9854C916A
:1010F00060E0C1010E94D307F82EB6E08B1316C042
:1011000088EF0E94B7078295817091E08927E88572
:10111000F985928180FB91F9928391FD02C060E193
:1011200001C060E288EE0E94F906DDCF811164C043
:1011300088EC0E94B70782FF5DC080E30E94B7077A
:10114000582E90E08816990608F4542CD6018D91FB
:101150009C91652C712CF401E81BF90BCF01F7FF72
:1011600002C080E090E05301861597050CF45C0105
:1011700080E591E00E9416060E940C0688E00E941D
:101180000F06A50160E070E0C8010E94B121A11422
:10119000B10421F0B501C8010E94EE050A0D1B1D26
:1011A0000E94D40664E088EC0E94F906D6018D9175
:1011B0009C911197680E791E6D927C92B9815B1695
:1011C00018F06814790460F088EF0E94B7078295E0
:1011D0008170E885F985928180FB91F992830CC03A
:1011E000EE2009F480CF6C817D818E819F810E94E9
:1011F0005B0E79CF80EFF82E8F2D29960FB6F894DD
:10120000DEBF0FBECDBFDF91CF911F910F91FF9039
:10121000EF90DF90CF90BF90AF909F908F907F9096
:101220006F905F904F903F902F9008952F923F9234
:101230004F925F926F927F928F929F92AF92BF92E6
:10124000CF92DF92EF92FF920F931F93CF93DF9392
:10125000CDB7DEB768970FB6F894DEBF0FBECDBF2F
:101260002C014B8B322E202EFC2CCDA4DEA46FA49F
:1012700078A81E861D861C861B868E01055F1F4F63
:101280009E01235F3F4F0E94BB13811159C13982D8
:101290002A82EB82FC82BE82AD8298868F82AE016A
:1012A0004F5F5F4F68E080E20E94D6062B853C8549
:1012B0004B8960E1C2010E94D307182F8111FCC045
:1012C000232C221C2224221C6114710409F4E5C081
:1012D000AD84BE84222009F456C0D50112968C91AB
:1012E0001297826012968C93540133243394A11484
:1012F000B10409F444C0DA86C9864B855C856D85E6
:101300007E85E12C83019E01275F3F4FC2010E9431
:101310003608182F863079F4ED84FE8488EF0E9419
:10132000B70785FB882780F98325F701928180FB29
:1013300091F99283DCCF8111BFC029A93AA9211567
:101340003105A1F0D901ED91FC9111970190F08147
:10135000E02DC4018A199B09988B8F8769857A854E
:101360009E01215F3F4FA301CD01099589859A8593
:10137000A81AB90A8C159D0508F0B9CF8EC01123A3
:1013800009F490C099C0F501828181608283EB8469
:10139000FC8401818FEF800F803408F08BC00E94A5
:1013A000950E9B01AC0128573C4E4F4F5F4F2C8B45
:1013B0003D8B4E8B5F8BD50112968C9180FD02C0C8
:1013C00060E401C060E888EE0E94F906202F30E05A
:1013D0003A8B298BC114D10409F44DC046012989E7
:1013E0003A892C153D0508F44901888EA301682D22
:1013F00080E10E94D606682D88E30E94F906D50197
:101400006C91606280EF0E94F90688EC0E94B70739
:1014100087FFFBCF60E888EC0E94F90688EF0E9406
:10142000B707182F1F70212C312C00E0112371F009
:101430000E94950EDC01CB012C893D894E895F8984
:10144000821B930BA40BB50BB7FD05C0C818D908B8
:10145000680C791CBFCF163089F11E3009F468C0C2
:10146000143049F4BFEF2B1A3B0AE114F104F1F1F7
:101470002E143F04D9F588EF0E94B70785FB882713
:1014800080F9D50112969C91129780FB90F91296E3
:101490009C93112309F450C00FC02B853C8521106B
:1014A00003C04CC02B853C8560EA4B89C2010E9479
:1014B000D30746C08AED44C0812F42C088EF0E9406
:1014C000B70785FB882780F9E1E08E27D5011296C2
:1014D0009C91129780FB90F912969C9390FD02C00C
:1014E00060E401C060E888EE0E94F90660E088E3ED
:1014F0000E94F906F301608180E10E94F906688D7F
:1015000088E30E94F906D5016C91606280EF0E9429
:10151000F90688EC0E94B70787FFFBCF60E888ECEC
:101520000E94F90688EF0E94B707182F1F707ECF20
:101530000F5F0330D9F69FCF2B853C8560E8B5CF90
:1015400068960FB6F894DEBF0FBECDBFDF91CF9186
:101550001F910F91FF90EF90DF90CF90BF90AF90D1
:101560009F908F907F906F905F904F903F902F90C3
:1015700008951F93CF93DF9300D01F92CDB7DEB7AE
:10158000182F80E591E06B830E9416060E940C06DE
:10159000126019836B816A8362E070E0CE0101966C
:1015A0000E94EE050E94D4060F900F900F90DF91DD
:1015B000CF911F9108951F93CF93DF931F92CDB7C3
:1015C000DEB7182F80E591E00E9416060E940C06F7
:1015D000812F0E940F0680E00E940F0689830E94DF
:1015E000D40689810F90DF91CF911F910895FC015E
:1015F000538D448D252F30E0842F90E0821B930B78
:10160000541710F0CF96089501970895FC01918D1D
:10161000828D981761F0828DDF01A80FB11D5D9654
:101620008C91928D9F5F9F73928F90E008958FEFC2
:101630009FEF0895FC01918D828D981731F0828D76
:10164000E80FF11D858D90E008958FEF9FEF0895CD
:10165000FC01918D228D892F90E0805C9F4F821B31
:1016600091098F739927089589E292E00E94280BCF
:1016700021E0892B09F420E0822F0895FC01848D5C
:10168000DF01A80FB11DA35ABF4F2C91848D90E0AC
:1016900001968F739927848FA689B7892C93A08987
:1016A000B1898C9180648C93938D848D981306C03E
:1016B0000288F389E02D80818F7D80830895EF92E9
:1016C000FF920F931F93CF93DF93EC0181E0888FFC
:1016D0009B8D8C8D981305C0E889F989808185FDE3
:1016E00024C0F62E0B8D10E00F5F1F4F0F731127D4
:1016F000E02E8C8DE8120CC00FB607FCFACFE889FB
:10170000F989808185FFF5CFCE010E943E0BF1CF94
:101710008B8DFE01E80FF11DE35AFF4FF0820B8F16
:10172000EA89FB898081806207C0EE89FF89608336
:10173000E889F98980818064808381E090E0DF918D
:10174000CF911F910F91FF90EF900895CF93DF936A
:10175000EC01888D8823C9F0EA89FB89808185FDA9
:1017600005C0A889B9898C9186FD0FC00FB607FC0A
:10177000F5CF808185FFF2CFA889B9898C9185FF4B
:10178000EDCFCE010E943E0BE7CFDF91CF910895C0
:1017900080E090E0892B29F00E94340B81110C9499
:1017A000000008953FB7F89480912402909125029B
:1017B000A0912602B091270226B5A89B05C02F3F15
:1017C00019F00196A11DB11D3FBFBA2FA92F982F67
:1017D0008827820F911DA11DB11DBC01CD0142E0E2
:1017E000660F771F881F991F4A95D1F70895DC016E
:1017F00012968D919C911397DC01ED91FC910084E0
:10180000F185E02D099521E0892B09F420E0822F54
:101810000895CF92DF92EF92FF920F931F93CF9391
:10182000DF936C018B017A01EB019E01201B310BD0
:101830002E153F0574F46991D60112968D919C91F5
:101840001397DC01ED91FC910190F081E02D099559
:10185000ECCFDF91CF911F910F91FF90EF90DF9030
:10186000CF9008950C94090CCF93DF93EC011A826A
:101870008B819C81DC01ED91FC910480F581E02D50
:101880006D8109951D82198A80E0DF91CF910895BD
:101890006E3584E0780759F06D3A9BE1790739F0AD
:1018A0006E3286E1780719F06F367E40A1F44E382B
:1018B00082E0580791F0463190EF590771F04130BE
:1018C00084E0580751F081E0433192E0590739F044
:1018D0004F3E5E4B21F080E0089581E00895089529
:1018E000FC0181890895FC01858108950E94A3214E
:1018F0000C944120CF92DF92EF92FF920F931F93AF
:10190000CF93DF938C017B01EA01FC0182819381FB
:101910000E94251697FD24C0F7018083282F30E010
:101920002D5F3F4FC217D3070CF49E01E9012197A9
:10193000F801C280D38020E030E089010F5F1F4FA3
:101940002C173D0728F4C6010E94251697FF02C0F8
:10195000C80108C0F701E00FF11F80839801EDCFA7
:1019600080E090E0DF91CF911F910F91FF90EF9079
:10197000DF90CF9008958F929F92AF92BF92CF92B7
:10198000DF92EF920F931F93CF93DF9300D000D09D
:1019900000D0CDB7DEB7FC012189222309F498C01D
:1019A0006C0180E290E09E838D835F01F8E2AF0ED0
:1019B000B11CF60141856581838094801C821B8265
:1019C0001A8219828E010F5F1F4F9E012D5F3F4FBC
:1019D000C4010E94BB1381110CC049815A816B81E3
:1019E0007C81E12C85019E012B5F3F4FC4010E9449
:1019F0003608AB2809F46CC0F60180A5811168C0D7
:101A000081A5843109F064C022A583A590E0A0E0FF
:101A1000B0E0DC0199278827B22B44A550E0542F71
:101A2000442725A5422B60E070E0842B952BA62B44
:101A3000B72B828B938BA48BB58B27A530E0322FED
:101A4000222746A5242B358F248F21A930E0322F61
:101A5000222740A9242B378F268F23A930E0322F4D
:101A6000222742A9242B31A320A325A930E0322F1D
:101A7000222744A9242B33A322A306891789208D6A
:101A8000318D80179107A207B30711F14D01AA24E8
:101A9000BB24B901A8014095509560957095AB01A4
:101AA0006627772748215921538F428F011104C09F
:101AB000882311F041E047A3111105C0992319F0C3
:101AC00021E0F60126A3F601868B978BA08FB18FBC
:101AD00080E026960FB6F894DEBF0FBECDBFDF9133
:101AE000CF911F910F91EF90DF90CF90BF90AF906B
:101AF0009F908F9008951F920F920FB60F9211240E
:101B00002F933F934F935F936F937F938F939F9305
:101B1000AF93BF93EF93FF9389E292E00E943E0B55
:101B2000FF91EF91BF91AF919F918F917F916F91B5
:101B30005F914F913F912F910F900FBE0F901F908B
:101B400018951F920F920FB60F9211242F938F9317
:101B50009F93EF93FF93E0913902F0913A028081D5
:101B6000E0913F02F091400282FD12C0908180918D
:101B700042028F5F8F7320914302821751F0E091F0
:101B80004202F0E0E75DFD4F958F8093420201C075
:101B90008081FF91EF919F918F912F910F900FBEB8
:101BA0000F901F90189590E0FC01EB52FF4F34917D
:101BB000FC01EF5EF64F2491FC01E350F74FE491F6
:101BC000EE2309F43BC0332339F1333091F038F47C
:101BD0003130A9F0323001F584B58F7D12C0373035
:101BE00091F03830A1F03430B9F4809180008F7DCD
:101BF00003C0809180008F77809380000DC084B5F2
:101C00008F7784BD09C08091B0008F7703C0809129
:101C1000B0008F7D8093B000F0E0EE0FFF1FE75122
:101C2000F74FA591B4918FB7F894EC91611103C06F
:101C300020952E2301C02E2B2C938FBF0895CF9378
:101C4000DF9390E0FC01EF5EF64F2491FC01E3503E
:101C5000F74F8491882361F190E0880F991FFC0170
:101C6000E859FF4FC591D491FC01E751F74FA59179
:101C7000B491611109C09FB7F8948881209582239F
:101C80008883EC912E230BC0623061F49FB7F894E7
:101C90003881822F809583238883EC912E2B2C937F
:101CA0009FBF06C08FB7F894E8812E2B28838FBF83
:101CB000DF91CF9108958F929F92AF92BF92CF9272
:101CC000DF92EF92FF926B017C010E94D20B4B01DD
:101CD0005C01C114D104E104F104F1F00E94D20BC3
:101CE000DC01CB0188199909AA09BB09883E9340F8
:101CF000A105B10570F321E0C21AD108E108F1088D
:101D000088EE880E83E0981EA11CB11CC114D1047A
:101D1000E104F10419F7DDCFFF90EF90DF90CF9051
:101D2000BF90AF909F908F9008952FB7F8946091D7
:101D300020027091210280912202909123022FBFF4
:101D400008951F920F920FB60F9211242F933F9375
:101D50008F939F93AF93BF93809120029091210224
:101D6000A0912202B091230230911F0223E0230FA1
:101D70002D3720F40196A11DB11D05C026E8230FC3
:101D80000296A11DB11D20931F0280932002909303
:101D90002102A0932202B093230280912402909109
:101DA0002502A0912602B09127020196A11DB11D26
:101DB0008093240290932502A0932602B0932702D9
:101DC000BF91AF919F918F913F912F910F900FBE37
:101DD0000F901F9018950895CF93DF93DC01129612
:101DE000CD91DC911397E881F981DB0114964D9137
:101DF0005C9115976D917C910280F381E02DCE016D
:101E00000995E881F9810280F381E02D42E050E0FC
:101E100062EC71E0CE01DF91CF910994DC01129662
:101E20008D919C911397DC01ED91FC91DB0114964F
:101E30004D915C9115976D917C910280F381E02D1D
:101E4000099429E232E0FC013383228342E350E02B
:101E500060E070E040932D0250932E0260932F02B9
:101E60007093300221E431E03183208380911E029F
:101E7000811138C081E080931E02E0913902F09117
:101E80003A0282E08083E0913502F09136021082BE
:101E9000E0913702F09138028FEC8083109241027A
:101EA000E0913D02F0913E0286E08083E0913B02AA
:101EB000F0913C02808180618083E0913B02F0914F
:101EC0003C02808188608083E0913B02F0913C027B
:101ED000808180688083E0913B02F0913C028081A8
:101EE0008F7D808308959C01E62F842F5AE0652F13
:101EF0000E94721F2E0F311DF9013197905D908362
:101F000031970E94721F905D908331970E94721FDB
:101F1000905D908308958F929F92AF92BF92CF92DF
:101F2000EF920F93FC011F921F927F936F935F9329
:101F30004F934A01A12CB12C82E0C82EE12C09E07C
:101F400021E246816581838194810E9416090F9068
:101F50000F900F900F900F900F900F91EF90CF90E8
:101F6000BF90AF909F908F9008952F923F924F9285
:101F70005F926F927F928F929F92AF92BF92CF9219
:101F8000DF92EF92FF920F931F93CF93DF93CDB722
:101F9000DEB767970FB6F894DEBF0FBECDBFDC018A
:101FA00013964D905C90149715961C9111115EC17B
:101FB000F22E4F8BD62E3C01D201ED91FC91019077
:101FC000F081E02D60E0C20109951C01009711F439
:101FD00016ED54C1FC010190F081E02DFE8BED8BDC
:101FE000EF2B09F445C193012A5F3F4F3C8B2B8BAC
:101FF000DC0111963C932E931496FC921F921F9233
:10200000CE0101969F938F931F9282E18F9392E16D
:10201000892E912CA12CB12CCC24C394E12C06E068
:1020200020E840E060E0F301838194810E9416097A
:10203000082FED89FE89D101ED93FC930F900F904D
:102040000F900F900F900F90811106C129853A854E
:102050008B859C852E35F4E03F0761F02D3A4BE1EE
:10206000340741F02E32A6E13A0721F02F363E40E8
:1020700009F0EFC08F38E2E09E0709F4EAC0893129
:10208000F7E09F0709F4E5C0813922E0920709F4DF
:10209000E0C08E3832E0930781F0863140EF94073C
:1020A00061F08130A4E09A0741F08331B2E09B07F0
:1020B00021F08F3E9E4B09F0CCC0D201ED91FC91F6
:1020C0000280F381E02D2F8940E06D2DC20109953A
:1020D000F3018583882309F4CDC098859783482F21
:1020E00060E0838194810E943114082FD201ED9128
:1020F000FC91D10114961C92882359F00480F5813B
:10210000E02DD30115966C91C2010995F30115825A
:10211000ABC00190F081E02DD30115966C91C20106
:102120000995009709F454CFFC01F482D301159668
:102130000C91159713968D919C911497EB89FC89BE
:10214000EF2B09F499C0602F0E941B05FC01892B1D
:1021500009F481C002832B893C8931832083DD24EB
:10216000D394D382D3011996DC92199783E0F82E89
:1021700090E21A969C931A9784E01B968C931B9777
:1021800022E01C962C931C971D969C931D971E96DF
:102190008C931E9715960C911597602F13968D9121
:1021A0009C9114970E941B05FC01892B09F453C0D4
:1021B00002832B893C8931832083F38268EC70E0B1
:1021C00080E090E00E945B0E1F921F921F921F9270
:1021D0001F921F92812C912CA12CB12CC12CEE248A
:1021E000E39409E020E0D30116964C9116971596DA
:1021F0006C91159713968D919C9114970E941609D6
:10220000082F0F900F900F900F900F900F9081114B
:1022100023C0D3011F96ED91FC915097309711F098
:10222000099512C0E7E9F0E0E491B301685B7F4FE4
:10223000DB01DC921196FC921196EC5FEC9343E08B
:1022400050E0C3010E948B0F81E0F3018283818BF8
:1022500015C001ED01C006EDD301ED91FC910480A4
:10226000F581E02DC3010995102F08C019ED06C0B6
:1022700017ED04C014ED02C008EDEECF812F679674
:102280000FB6F894DEBF0FBECDBFDF91CF911F9187
:102290000F91FF90EF90DF90CF90BF90AF909F9005
:1022A0008F907F906F905F904F903F902F90089508
:1022B000DF92EF92FF920F931F93CF93DF93EC0186
:1022C000E62EF12C85E0689FB0011124FE01E60F97
:1022D000F71F8085182F177086FF21C001E085E069
:1022E000D82E8FEF800F8F3008F001E0FE01D09ED6
:1022F000E00DF11D11248085869586958695877061
:10230000811305C0602FCE010E945811EACF0F5FE4
:10231000003161F78D81811302C011501D8385E06A
:102320008E9DF0018F9DF00D1124EC0FFD1F108686
:1023300081E0818712862296D783C683DF91CF9171
:102340001F910F91FF90EF90DF9008950F931F93CF
:10235000CF93DF93CDB7DEB7C857D1090FB6F89446
:10236000DEBF0FBECDBF8E010F5F1F4F88E7D801C4
:102370001D928A95E9F79E012D573F4F41E951E0A3
:1023800068E770E0C8010E94C821F80180818823B5
:1023900029F18A3081F4C158DF4FE881F981CF57A4
:1023A000D04082819381DC01ED91FC910190F0811C
:1023B000E02D6DE00995C158DF4FE881F981CF57D5
:1023C000D04082819381DC01ED91FC910190F081FC
:1023D000E02DD8016D918D010995D7CFC858DF4FF9
:1023E0000FB6F894DEBF0FBECDBFDF91CF911F9126
:1023F0000F91089588EF0E94DB0A807C8034A1F061
:1024000018F4882301F10895803819F0803CB9F060
:10241000089588ED0E94DB0A81FD0BC069EC88ED10
:102420000E94B90A82E00CC088ED0E94DB0A81FD9F
:10243000F5CF6BEC88ED0E94B90A83E001C081E022
:1024400080932802089561ED88ED0E94B90A1092E8
:10245000280208954F925F926F927F928F929F927F
:10246000AF92BF92CF92DF92EF92FF920F931F93A2
:10247000CF93DF935C01162FC62ED12CC601019697
:102480000E94AC1F7C018091CB029091CC02DC01B8
:10249000ED91FC910190F081E02D612F0995CE2DF9
:1024A000DF2D19938501C8018A199B098C159D059B
:1024B0009CF48091CB029091CC024801DC01ED911B
:1024C000FC910190F081E02DD8016D918D0109956D
:1024D000F40180818993E7CFC601B7010FEF1FEFA9
:1024E000DC011196FB019B0123703327232BD1F0D4
:1024F0008F3F2FEF920791F0A12FBB276F5F7F4F88
:102500002081F801FF27E227EE0FFF1FE751FF4F61
:10251000059114910A271B270197E2CFEB01A0E058
:10252000B0E001C0EB01CD018031910508F4DAC0C3
:10253000409788809980AA80BB8008251925F801DA
:10254000FF27EE0FFF1FE751F94F25913491E12F3F
:10255000FF27EE0FFF1FE751FB4F059114914A2C07
:10256000512C612C712C4FEF541A640A740AF20139
:10257000EE0FFF1FE751FF4F459154918B2C99248B
:10258000AA24BB24F401EE0FFF1FE751FF4FC590B3
:10259000D4908C809D80AE80BF8020273127282555
:1025A0003925242735272C253D25F901FF27EE0F56
:1025B000FF1FE751F94F45915491E32FFF27EE0F8D
:1025C000FF1FE751FB4F059114914A2C512C612CB0
:1025D000712CEFEF5E1A6E0A7E0AF201EE0FFF1FFA
:1025E000E751FF4F259134918B2C9924AA24BB24C9
:1025F000F401EE0FFF1FE751FF4FC590D490888480
:102600009984AA84BB84402751274825592524272B
:1026100035272C253D25F901FF27EE0FFF1FE75138
:10262000F94FC590D490E32FFF27EE0FFF1FE7511E
:10263000FB4F459154910A2D10E020E030E01F5FE0
:102640002F4F3F4FF801EE0FFF1FE751FF4F25912E
:1026500034918B2C9924AA24BB24F401EE0FFF1F84
:10266000E751FF4F059114918C849D84AE84BF8403
:10267000C426D526C824D9242C253D25202731273A
:10268000F901FF27EE0FFF1FE751F94F0591149154
:10269000E32FFF27EE0FFF1FE751FB4F45915491AA
:1026A0004A2C512C612C712CFFEF5F1A6F0A7F0AA4
:1026B000F201EE0FFF1FE751FF4F259134918B2C54
:1026C0009924AA24BB24F401EE0FFF1FE751FF4F0A
:1026D000C590D49004271527022713270C251D2504
:1026E000609622CFED01C07FC60FD71FAF70BB270A
:1026F000AC0FBD1FCA17DB0779F0812F99272991ED
:10270000F801FF27E227EE0FFF1FE751FF4F05916A
:10271000149108271927EECF1093CE020093CD0213
:102720008091CB029091CC02DC01ED91FC91019063
:10273000F081E02D602F09958091CB029091CC0221
:10274000DC01ED91FC910190F081E02D612F099564
:10275000C701DF91CF911F910F91FF90EF90DF9014
:10276000CF90BF90AF909F908F907F906F905F9031
:102770004F900C9441208F929F92BF92CF92DF9204
:10278000EF92FF920F931F93CF93DF931F92CDB7DA
:10279000DEB74C01B62E690149830E941B057C01FE
:1027A0004981009709F44BC0DC01ED91FC91119730
:1027B000309709F446C013969C9180E0891731F058
:1027C0002081241729F033968F5FF8CFE0E0F0E006
:1027D000D601ED93FC933097B1F122812695269591
:1027E00030E02031310514F02FE030E081E090E05E
:1027F000A0E0B0E004C0880F991FAA1FBB1F2A9554
:10280000D2F70197F801918380836B2D80EE0E94AF
:10281000F90688ED0E94B707682FD70114968C91AE
:10282000882339F0F401EA58FF4F80818260682BD9
:1028300001C0697F88ED0E94F90680E005C086ED41
:1028400003C087ED01C08BED0F90DF91CF911F91F9
:102850000F91FF90EF90DF90CF90BF909F908F905F
:1028600008958F929F92AF92BF92CF92EF920F9363
:10287000CF931F921F921F921F921F921F92812C23
:10288000912CA12CB12CC12CE42E05E020E040E0DD
:102890000E941609C82F6CE271E080E090E00E946F
:1028A0005B0E0F900F900F900F900F900F908C2F4A
:1028B000CF910F91EF90CF90BF90AF909F908F905E
:1028C00008950F931F93CF93DF93EC018881998133
:1028D000009729F02A813B812617370788F48B015E
:1028E0006F5F7F4F0E94D920009761F099838883A2
:1028F0001B830A832C813D81232B11F4FC01108260
:1029000081E001C080E0DF91CF911F910F91089588
:10291000CF93DF93EC0188819981009711F00E9499
:102920004120198218821D821C821B821A82DF912B
:10293000CF910895FC01808191810C9441200F93E7
:102940001F93CF93DF93CDB7DEB72A970FB6F894D6
:10295000DEBF0FBECDBF00E117E28091CB029091A8
:10296000CC02DC01ED91FC910084F185E02D09950C
:10297000892B61F08091CB029091CC02DC01ED912A
:10298000FC910284F385E02D099519C001501109CD
:1029900021F765EC71E0CE0101960E94EA15CE01A7
:1029A00007960E94210FBE016F5F7F4FCE010796F1
:1029B0000E94EC0ECE0101960E949A148FEF2A9687
:1029C0000FB6F894DEBF0FBECDBFDF91CF911F9140
:1029D0000F910895CF92DF92EF92FF920F931F9382
:1029E000CF93DF93CDB7DEB7CF5FD1090FB6F894A1
:1029F000DEBF0FBECDBF0E949F148E010F5F1F4F21
:102A00009FEFF80111929A95E9F76801E82EF12CF1
:102A1000C601801B910B8E159F0534F40E949F14F4
:102A2000F60181936F01F4CF0E949F140E949F14BE
:102A300064ED71E0C8010E94B82121E0892B09F002
:102A400020E0822FC150DF4F0FB6F894DEBF0FBEDB
:102A5000CDBFDF91CF911F910F91FF90EF90DF904D
:102A6000CF900895CF930E94EA14C82F0E94EA14D1
:102A7000C11101C080E0CF910895CF92DF92EF9213
:102A8000FF920F931F93CF93DF93CDB7DEB762977B
:102A90000FB6F894DEBF0FBECDBF8C01CB01F8019D
:102AA00011821082138212821582148250E09E01DC
:102AB0002F5F3F4F6901B9010E945F1DF601019030
:102AC0000020E9F731977F01EC18FD08B701C80134
:102AD0000E946114811104C0C8010E94881408C0BA
:102AE000F801F582E482B601808191810E94C121C2
:102AF00062960FB6F894DEBF0FBECDBFDF91CF91C7
:102B00001F910F91FF90EF90DF90CF900895EF927B
:102B1000FF920F931F93CF93DF93EC0119821882DA
:102B20001B821A821D821C826115710509F18B01BD
:102B3000CB010E94561D7C01BC01CE010E94611494
:102B4000811109C0CE01DF91CF911F910F91FF90AC
:102B5000EF900C948814FD82EC82B80188819981F1
:102B6000DF91CF911F910F91FF90EF900C944F1D2B
:102B7000DF91CF911F910F91FF90EF900895CF9229
:102B8000DF92EF92FF920F931F93CF93DF936C012D
:102B90007A018B01C0E0D0E0CE15DF0589F0D801C5
:102BA0006D918D01D601ED91FC910190F081E02DA8
:102BB000C6010995892B11F47E0102C02196ECCF44
:102BC000C701DF91CF911F910F91FF90EF90DF90A0
:102BD000CF900895EF92FF920F931F93CF93DF93BF
:102BE000EC01198218821B821A821D821C826115D7
:102BF000710521F18B01FB0101900020E9F731976C
:102C00007F01E61AF70AB7010E946114811109C019
:102C1000CE01DF91CF911F910F91FF90EF900C9417
:102C20008814FD82EC82B80188819981DF91CF916F
:102C30001F910F91FF90EF900C94C121DF91CF91E4
:102C40001F910F91FF90EF9008950F931F93CF93D3
:102C5000DF93EC010E94950E688779878A879B87AE
:102C6000E881F9810284F385E02DCE01099597FF73
:102C700017C00E94950E088519852A853B85DC01C1
:102C8000CB01801B910BA20BB30B0C811D812E81FC
:102C90003F8180179107A207B30710F38FEF9FEFD3
:102CA000DF91CF911F910F910895CF93DF93CDB70F
:102CB000DEB768970FB6F894DEBF0FBECDBF78942D
:102CC00084B5826084BD84B5816084BD85B5826031
:102CD00085BD85B5816085BD80916E0081608093E2
:102CE0006E0010928100809181008260809381004B
:102CF000809181008160809381008091800081605B
:102D0000809380008091B10084608093B1008091B5
:102D1000B00081608093B00080917A0084608093DD
:102D20007A0080917A00826080937A0080917A00A4
:102D3000816080937A0080917A00806880937A0025
:102D40001092C100229A0E94D4061FB7F894809175
:102D5000D801811127C0E7E0F9E08491EBE1F9E0C7
:102D60009491E82FF0E0EE0FFF1FE859FF4FA59177
:102D7000B491EC91E92321F461E08AE00E94D30D43
:102D800061E08AE00E941F0E8CB580618CBD8CB51D
:102D900080648CBD61E08DE00E941F0E61E08BE0DD
:102DA0000E941F0E8091D8018F5F8093D8011FBFB2
:102DB000229A0E94D406219868E188E80E94B90A04
:102DC00060E288E70E94B90A60E088E70E94B90AD9
:102DD00001E010E00115110509F4CCC488E60E9459
:102DE000DB0A0F5F1F4F80FFF5CF61EC88ED0E947B
:102DF000B90A60E680ED0E94B90A64E088EE0E949C
:102E0000B90A88EE0E94DB0A82FFFBCF0E94FA110A
:102E100060E288EC0E94B90A61E080E80E94B90A89
:102E20009E012F5F3F4F3901C9010E94210F81E9A7
:102E300091E09F938F937F926F920E94A6110F90C3
:102E40000F900F900F902E0133E1430E511C1999F2
:102E50000DC088EC0E94B70785FF04C00E94FA11DC
:102E600060E201C060E088EC0E94F90680912802CF
:102E7000813039F050F0823089F0833049F511E02B
:102E80000EC083E18093CA0223C08091CA02807F72
:102E90008031F1F091E19093CA021AC010E0809164
:102EA000CA02807F8031A9F40E94950EDC01CB011B
:102EB00088539F4FAF4FBF4F8093DA019093DB0150
:102EC000A093DC01B093DD0180E28093CA0201C0CF
:102ED00010E024E9222E23E0322E7101D7018D91DA
:102EE0009D917D01009739F0DC01ED91FC91068008
:102EF000F781E02D0995B4EBEB16B3E0FB0671F713
:102F00008091CA02803409F444C050F4803231F117
:102F10008033C9F1813109F088C11092B4030AC02D
:102F2000813509F45FC0803809F471C0803509F03B
:102F30007CC140C0F101819191911F01009739F04E
:102F4000DC01ED91FC910480F581E02D0995B4EB55
:102F50002B16B3E03B0671F782E165C10E94950E26
:102F60000091DA011091DB012091DC013091DD014B
:102F7000DC01CB01801B910BA20BB30BB7FD55C13C
:102F800080E38093CA0261E088EE0E94F90680E443
:102F90004AC188EE0E94B70780FD47C188ED0E94B4
:102FA000B707682F686088ED0E94F906E0E5E093B6
:102FB000CA023BC188EC0E94B70786FF36C181E593
:102FC0008093CA020E94950EDC01CB014496A11D9C
:102FD000B11D8093DA019093DB01A093DC01B093E3
:102FE000DD0123C10E94950EC090DA01D090DB0173
:102FF000E090DC01F090DD01DC01CB018C199D0932
:10300000AE09BF09B7FD11C180E88093CA021B8ACF
:10301000F8E0FC8B8CE38D8B24E433E0232B11F45C
:1030200086EDFAC08091440390914503988F8F8B71
:103030005092450340924403109348031F921F92FD
:103040007F926F921F9282E18F9392E1892E912C51
:10305000A12CB12CCC24C394E12C06E020E840E064
:1030600060E08EE393E00E941609AF89B88DB093BB
:103070004503A09344030F900F900F900F900F9073
:103080000F908111C5C0A984BA848B849C843D8132
:103090003F8BCE8084E9E82E83E0F82ED12CD70137
:1030A0008D919C91009789F1DC01ED91FC91008458
:1030B000F185E02D0995811128C0F701808191816A
:1030C000DC01ED91FC910088F189E02D6C2D0995D2
:1030D0008823D9F0F70180819181DC01ED91FC9189
:1030E0000484F585E02DA401B5010995811185C001
:1030F000F70180819181DC01ED91FC910684F785D7
:10310000E02D6F890995811178C0D394B2E0EB0E60
:10311000F11CE0E1DE12C3CFF12CD1018D919C9125
:10312000009799F1DC01ED91FC910084F185E02D8F
:10313000099581112AC0F10180819181DC01ED9115
:10314000FC910088F189E02D6C2D0995882309F404
:10315000BDC2F10180819181DC01ED91FC9104847B
:10316000F585E02DA401B501099581110EC0F1018D
:1031700080819181DC01ED91FC910684F785E02D41
:103180006F890995882309F4A1C2F394B2E02B0E4C
:10319000311CE0E1FE12C1CF8091440390914503C0
:1031A000892B39F11093480320E040E060E08EE382
:1031B00093E00E94BF04F82E8823E9F0682F8EE385
:1031C00093E00E941B05009709F42ACFDC011496B6
:1031D0001C934F2D60E08EE393E00E943114182F72
:1031E000882301F16F2D8EE393E00E941906812F51
:1031F0000FC087ED11C084ED0FC0012F20E040E02B
:103200006D2D8EE393E00E941B07813D09F47DCF75
:10321000882341F0823D49F08093D901B0EAB09310
:10322000CA0203C080E98093CA028091F002882319
:1032300009F443C210923603E8E0E093370310929A
:1032400038031092390310923A0310923B03109204
:103250003C0310923D0348E050E066E373E08EEEDD
:1032600092E00E948B0FECE7F0E045915491809141
:103270000803909109039A0120953095282339235A
:10328000309309032093080384239523892B39F174
:10329000F1E0F093360383E0809337038DE0809371
:1032A000380343E050E066E373E08EEE92E00E9464
:1032B0008B0F6FEC70E0C3010E948715C2010E9462
:1032C000210FB301C2010E94EC0EC3010E949A14A7
:1032D00063E080E091E00E942A120E943215EAE742
:1032E000F0E04591549180910803909109039A016F
:1032F0002095309528233923309309032093080320
:1033000084239523892B49F1EBE9F0E08491F1E0E6
:10331000F093360393E0909337038093380343E0B0
:1033200050E066E373E08EEE92E00E948B0F6AEC51
:1033300070E0C3010E948715C2010E94210FB301F2
:10334000C2010E94EC0EC3010E949A1462E083E065
:1033500091E00E942A120E94321580910A039091F6
:103360000B03845B924E89399A43F8F480910C03E5
:1033700090910D03845B924E89399A4308F070C096
:1033800080910E0390910F03845B924E89399A438A
:1033900008F066C08091100390911103845B924EF7
:1033A00089399A4308F05CC088C16FEB70E0C301B3
:1033B0000E948715C2010E94210FB301C2010E9421
:1033C0000E0FC3010E949A14E0900A03F0900B03C1
:1033D0001E141F040CF088C1ECE4EE1AEDE1FE0AA5
:1033E000B7010F2C000C880B990B0E94A11D20E047
:1033F00036E645EC56E40E94D11E20E030E04FE76F
:1034000053E40E94DC1D0E94431F462F65E085E0C7
:1034100091E00E94730F65E085E091E00E942A121E
:103420000E9432154AE0B701C3010E943D15C20156
:103430000E94210FB301C2010E940E0FC3010E941E
:103440009A146CEA71E0C3010E94EA15C2010E945D
:10345000210FB301C2010E940E0FC3010E949A14F2
:1034600080910C0390910D03845B924E89399A43AD
:1034700008F45BC064EB70E0C3010E948715C201D1
:103480000E94210FB301C2010E940E0FC3010E94CE
:103490009A14E0900C03F0900D031E141F040CF01E
:1034A00046C13CE4E31A3DE1F30AB7010F2C000CDE
:1034B000880B990B0E94A11D20E036E645EC56E4EE
:1034C0000E94D11E20E030E04FE753E40E94DC1D53
:1034D0000E94431F462F65E080E191E00E94730F38
:1034E00065E080E191E00E942A120E9432154AE0D4
:1034F000B701C3010E943D15C2010E94210FB30113
:10350000C2010E940E0FC3010E949A146CEA71E07E
:10351000C3010E94EA15C2010E94210FB301C2013A
:103520000E940E0FC3010E949A1480910E03909185
:103530000F03845B924E89399A4308F45AC068EAB3
:1035400070E0C3010E948715C2010E94210FB301E0
:10355000C2010E940E0FC3010E949A14E0900E0354
:10356000F0900F031E141F0434F5BCE4EB1ABDE108
:10357000FB0AB7010F2C000C880B990B0E94A11DB0
:1035800020E036E645EC56E40E94D11E20E030E013
:1035900044E353E40E94DC1D0E94431F462F67E072
:1035A0008BE191E00E94730F67E08BE191E00E9454
:1035B0002A120E9432154AE0B701C3010E943D154C
:1035C000C2010E94210FB301C2010E940E0FC3016C
:1035D0000E949A146CEA71E0C3010E94EA15C201CC
:1035E0000E94210FB301C2010E940E0FC3010E946D
:1035F0009A148091100390911103845B924E893943
:103600009A4308F44BC06CE970E0C3010E9487152F
:10361000C2010E94210FB301C2010E940E0FC3011B
:103620000E949A14E0901003F09011031E141F04DE
:1036300034F5FCE4EF1AFDE1FF0AB7010F2C000C92
:10364000880B990B0E94A11D20E036E645EC56E45C
:103650000E94D11E20E030E044E353E40E94DC1DD0
:103660000E94431F462F67E082E291E00E94730FA1
:1036700067E082E291E00E942A120E9432154AE03D
:10368000B701C3010E943D15C2010E94210FB30181
:10369000C2010E940E0FC3010E949A146DEA71E0EC
:1036A000C3010E94EA15C2010E94210FB301C201A9
:1036B0000E94EC0EC3010E949A1461E070E080E069
:1036C00090E00E945B0E0E94C80BC1CB012F20E04E
:1036D00040E06F2D8EE393E00E941B07982F977FA9
:1036E000913D09F095CD51CDF4EBEF1AF2EEFF0AC2
:1036F000B7010F2C000C880B990B0E94A11D20E034
:1037000038E645EC56EC0E94D11E20E030E04FE751
:1037100053E40E94DC1D0E94431F462F66E08AE0AE
:1037200091E00E94730F66E08AE091E077CE84EB2F
:10373000E81A82EEF80AB7010F2C000C880B990BDF
:103740000E94A11D20E038E645EC56EC0E94D11EF7
:1037500020E030E04FE753E40E94DC1D0E94431F4D
:10376000462F66E085E191E00E94730F66E085E1F7
:1037700091E0B9CE6EEA71E0CE0101960E94EA15A1
:10378000CE0143960E94210FBE016F5F7F4FCE0195
:1037900043960E940E0FCE0101960E949A14FFCF0D
:1037A0008091CB029091CC020E94BD0681E691E00F
:1037B0009093D0028093CF028FEC92E00C94BD06E0
:1037C00010922C0210922B0288EE93E0A0E0B0E061
:1037D00080932D0290932E02A0932F02B09330027B
:1037E0008FE491E090932A028093290285EC90E087
:1037F000909336028093350284EC90E090933802E7
:103800008093370280EC90E090933A0280933902E3
:1038100081EC90E090933C0280933B0282EC90E03C
:1038200090933E0280933D0286EC90E0909340029C
:1038300080933F021092420210924302109244027F
:10384000109245028BE891E090933F0380933E03F2
:10385000109243031092460381E080934703109235
:10386000480380E493E090934503809344031092CF
:10387000400388E0809341038CE38093420380E01F
:1038800090E041E020E433E0FC01E25CFC4F15866F
:10389000468717863487238705968B349105A1F7D1
:1038A0001092B40381E18093CA0283E791E0909380
:1038B000EF028093EE028EE393E09093F202809306
:1038C000F1021092F3021092FF021092F40288E0CB
:1038D0008093F5028CE38093F6021092F702109227
:1038E000F80284E08093F9021092FA021092FB022F
:1038F0008093FC02E4E9F3E080E090E021913191D3
:10390000232B51F4880F991FFC01EC56FC4F8EEECF
:1039100092E09183808304C001968031910571F714
:103920001092D2021092D10288EE93E0A0E0B0E0B3
:103930008093D3029093D402A093D502B093D60281
:1039400081E691E09093D0028093CF021092E6023C
:103950001092E5021092E8021092E7021092EA0239
:103960001092E9021092EC021092EB026091ED02CB
:103970006E7F6D7F6093ED026695617081E06827D0
:1039800083E00E94D30D61E083E00E941F0EE4E11A
:10399000F9E0E491E093DF02E0E0F9E0E491F0E0A7
:1039A000EE0FFF1FE751F74F859194919093E1023D
:1039B0008093E00260E082E00E941F0E8091ED02A1
:1039C00081FD04C061E082E00E94D30D82E080931B
:1039D000DB02E3E1F9E0E491E093DC02EFEFF8E0F1
:1039E000E491F0E0EE0FFF1FED50F74F85919491B9
:1039F0009093DE028093DD028FEC92E09093CC02F4
:103A00008093CB028DE991E09093EC028093EB02DE
:103A10002DEB30E03093E6022093E5022BE931E014
:103A20003093E8022093E7022CE231E03093EA027F
:103A30002093E902209168002460209368002DE61D
:103A400030E03093E3022093E20224E02093E4028A
:103A50000197F1F78091C8029091C90222E08F3C52
:103A60009207E1F0009711F00E94BD068091ED02EF
:103A70008E7F8093ED021092C7021092C6028FECE7
:103A800092E09093C9028093C802E091E202F09123
:103A9000E30290818091E402892B80830895FB01E9
:103AA000DC0105900D920020E1F70895FC010590DE
:103AB0000020E9F7809590958E0F9F1F089545325D
:103AC000510520F4423010F00C946A1DFB01108265
:103AD000CB010895BB274A3031F4992322F4BDE28B
:103AE000909581959F4F0C94761DBB27FB01552720
:103AF000AA27880F991FAA1FA41710F0A41B83954B
:103B00005051B9F7A05DAA3308F0A95DA1930097C1
:103B100079F7B111B1931192CB010C948F1DDC0197
:103B2000FC01672F71917723E1F7329704C07C91F4
:103B30006D9370836291AE17BF07C8F30895E89440
:103B400009C097FB3EF490958095709561957F4FE5
:103B50008F4F9F4F9923A9F0F92F96E9BB27939593
:103B6000F695879577956795B795F111F8CFFAF4A3
:103B7000BB0F11F460FF1BC06F5F7F4F8F4F9F4FD4
:103B800016C0882311F096E911C0772321F09EE832
:103B9000872F762F05C0662371F096E8862F70E098
:103BA00060E02AF09A95660F771F881FDAF7880F72
:103BB0009695879597F908950E94EF1D0C94601EC5
:103BC0000E94521E38F00E94591E20F0952311F0D9
:103BD0000C94491E0C944F1E11240C94941E0E94A8
:103BE000711E70F3959FC1F3950F50E0551F629FB2
:103BF000F001729FBB27F00DB11D639FAA27F00D46
:103C0000B11DAA1F649F6627B00DA11D661F829F6C
:103C10002227B00DA11D621F739FB00DA11D621F51
:103C2000839FA00D611D221F749F3327A00D611D6E
:103C3000231F849F600D211D822F762F6A2F112450
:103C40009F5750409AF0F1F088234AF0EE0FFF1F83
:103C5000BB1F661F771F881F91505040A9F79E3FDA
:103C6000510580F00C94491E0C94941E5F3FE4F3C0
:103C7000983ED4F3869577956795B795F795E79530
:103C80009F5FC1F7FE2B880F911D9695879597F939
:103C9000089597F99F6780E870E060E008959FEFCE
:103CA00080EC089500240A941616170618060906D3
:103CB000089500240A9412161306140605060895A2
:103CC000092E0394000C11F4882352F0BB0F40F42A
:103CD000BF2B11F460FF04C06F5F7F4F8F4F9F4F6A
:103CE000089557FD9058440F551F59F05F3F71F0EC
:103CF0004795880F97FB991F61F09F3F79F0879553
:103D00000895121613061406551FF2CF4695F1DFDB
:103D100008C0161617061806991FF1CF869571056B
:103D2000610508940895E894BB2766277727CB019F
:103D300097F908952F923F924F925F926F927F92E0
:103D40008F929F92AF92BF92CF92DF92EF92FF92AB
:103D50000F931F93CF93DF93CDB7DEB7CA1BDB0B57
:103D60000FB6F894DEBF0FBECDBF09942A883988FC
:103D700048885F846E847D848C849B84AA84B98403
:103D8000C884DF80EE80FD800C811B81AA81B9810F
:103D9000CE0FD11D0FB6F894DEBF0FBECDBFED0123
:103DA00008950E94E51E0C94601E0E94591E58F052
:103DB0000E94521E40F029F45F3F29F00C94491EE6
:103DC00051110C94941E0C944F1E0E94711E68F3A6
:103DD0009923B1F3552391F3951B550BBB27AA27C4
:103DE00062177307840738F09F5F5F4F220F331FFE
:103DF000441FAA1FA9F335D00E2E3AF0E0E832D0C6
:103E000091505040E695001CCAF72BD0FE2F29D0C8
:103E1000660F771F881FBB1F261737074807AB079A
:103E2000B0E809F0BB0B802DBF01FF2793585F4F0F
:103E30003AF09E3F510578F00C94491E0C94941E64
:103E40005F3FE4F3983ED4F3869577956795B795F1
:103E5000F7959F5FC9F7880F911D9695879597F9FC
:103E60000895E1E0660F771F881FBB1F6217730775
:103E70008407BA0720F0621B730B840BBA0BEE1F8A
:103E800088F7E09508950E94791E88F09F5798F072
:103E9000B92F9927B751B0F0E1F0660F771F881F4F
:103EA000991F1AF0BA95C9F714C0B13091F00E9469
:103EB000931EB1E008950C94931E672F782F8827E6
:103EC000B85F39F0B93FCCF3869577956795B39590
:103ED000D9F73EF490958095709561957F4F8F4FFF
:103EE0009F4F0895991B79E004C0991F961708F019
:103EF000961B881F7A95C9F78095089597FB072E22
:103F000016F4009407D077FD09D00E94921F07FC99
:103F100005D03EF4909581959F4F089570956195D9
:103F20007F4F0895AA1BBB1B51E107C0AA1FBB1FEF
:103F3000A617B70710F0A61BB70B881F991F5A9535
:103F4000A9F780959095BC01CD010895EE0FFF1F54
:103F50000590F491E02D0994CF93DF938230910581
:103F600010F482E090E0E091B703F091B80320E014
:103F700030E0C0E0D0E0309711F140815181481726
:103F80005907C0F04817590761F48281938120973F
:103F900019F09B838A832BC09093B8038093B70357
:103FA00026C02115310519F04217530718F49A015C
:103FB000BE01DF01EF010280F381E02DDCCF21158E
:103FC000310509F1281B390B2430310590F4129684
:103FD0008D919C9113976115710521F0FB019383DD
:103FE000828304C09093B8038093B703FD01329697
:103FF00044C0FD01E20FF31F8193919322503109D8
:104000002D933C933AC02091B5033091B603232BF6
:1040100041F420912B0130912C013093B603209371
:10402000B5032091290130912A012115310541F470
:104030002DB73EB740912D0150912E01241B350B19
:10404000E091B503F091B603E217F307A0F42E1B3D
:104050003F0B2817390778F0AC014E5F5F4F2417EC
:10406000350748F04E0F5F1F5093B6034093B503DA
:104070008193919302C0E0E0F0E0CF01DF91CF9116
:1040800008950F931F93CF93DF93009709F48CC08B
:10409000FC013297138212820091B7031091B8038A
:1040A0000115110581F420813181820F931F209128
:1040B000B5033091B6032817390779F5F093B603A5
:1040C000E093B50371C0D80140E050E0AE17BF07E0
:1040D00050F412962D913C911397AD0121153105A5
:1040E00009F1D901F3CF9D01DA0133832283608185
:1040F0007181860F971F8217930769F4EC0128815D
:104100003981260F371F2E5F3F4F318320838A81ED
:104110009B8193838283452B29F4F093B803E0932A
:10412000B70342C01396FC93EE931297ED014991A9
:1041300059919E01240F351FE217F30771F4808116
:104140009181840F951F029611969C938E93828184
:10415000938113969C938E931297E0E0F0E0D80140
:1041600012968D919C911397009719F0F8018C018C
:10417000F6CF8D919C9198012E5F3F4F820F931F38
:104180002091B5033091B6032817390769F43097A9
:1041900029F41092B8031092B70302C0138212825E
:1041A0001093B6030093B503DF91CF911F910F9148
:1041B0000895A0E0B0E0EFEDF0E20C949E1EEC015B
:1041C000009721F4CB010E94AC1FB8C0FC01E60FA0
:1041D000F71F9C0122503109E217F30708F4ACC025
:1041E000D9010D911C91119706171707B0F00530F2
:1041F000110508F49FC0C80104978617970708F4B3
:1042000099C002501109061B170B019311936D936E
:104210007C93CF010E9441208DC05B01A01AB10A9E
:104220004C01800E911EA091B703B091B80340E0FD
:1042300050E0E12CF12C109709F44AC0A815B905FB
:10424000D1F56D907C901197630182E0C80ED11C6E
:10425000CA14DB0480F1A3014A195B096A0182E0F8
:10426000C80ED11C1296BC9012971396AC91B5E073
:10427000CB16D10440F0B282A38351834083D9018D
:104280006D937C930AC00E5F1F4FC301800F911F77
:10429000F90191838083EB2DFA2FE114F10431F0C1
:1042A000D7011396FC93EE93129744C0F093B80392
:1042B000E093B7033FC08D919C9111974817590720
:1042C00008F4AC017D0112960D90BC91A02DB3CFE6
:1042D0008091B5039091B60388159905E1F44617CE
:1042E0005707C8F48091290190912A01009741F461
:1042F0008DB79EB740912D0150912E01841B950BD7
:10430000E817F907C8F4F093B603E093B503F90191
:10431000718360830FC0CB010E94AC1F7C010097AA
:1043200059F0A801BE010E94A821CE010E9441209F
:10433000C70104C0CE0102C080E090E0CDB7DEB777
:10434000EEE00C94BA1E81E090E0F8940C94722494
:10435000FB01DC0102C001900D9241505040D8F7A2
:104360000895DC0101C06D9341505040E0F708957D
:10437000FB01DC018D91019080190110D9F3990B9B
:104380000895FB01DC0101900D920020E1F70895F2
:10439000AEE0B0E0EEECF1E20C94A81E8C01CA0194
:1043A00046E04C831A83098377FF02C060E070E81F
:1043B000FB013197FE83ED83A901BC01CE0101967B
:1043C0000E94F4214D815E8157FD0AC02F813885FE
:1043D000421753070CF49A01F801E20FF31F108201
:1043E0002E96E4E00C94C41EACE0B0E0EAEFF1E2FB
:1043F0000C949A1E7C016B018A01FC0117821682C3
:10440000838181FFBDC1CE0101964C01F7019381EB
:10441000F60193FD859193FF81916F01882309F443
:10442000ABC1853239F493FD859193FF81916F0182
:10443000853229F4B70190E00E94DC23E7CF512CAC
:10444000312C20E02032A0F48B3269F030F480323D
:1044500059F0833269F420612CC08D3239F08033F9
:1044600039F4216026C02260246023C0286021C066
:1044700027FD27C030ED380F3A3078F426FF06C00C
:10448000FAE05F9E300D1124532E13C08AE0389E4F
:10449000300D1124332E20620CC08E3221F426FD03
:1044A0006BC1206406C08C3611F4206802C08836C7
:1044B00041F4F60193FD859193FF81916F01811184
:1044C000C1CF982F9F7D9554933028F40C5F1F4FD8
:1044D000FFE3F9830DC0833631F0833771F0833504
:1044E00009F05BC022C0F801808189830E5F1F4FF5
:1044F00044244394512C540115C03801F2E06F0E4E
:10450000711CF801A080B18026FF03C0652D70E00A
:1045100002C06FEF7FEFC5012C870E94D1232C01D1
:1045200083012C852F77222E17C03801F2E06F0E01
:10453000711CF801A080B18026FF03C0652D70E0DA
:1045400002C06FEF7FEFC5012C870E94C6232C01AC
:104550002C852068222E830123FC1BC0832D90E034
:1045600048165906B0F4B70180E290E00E94DC23BF
:104570003A94F4CFF50127FC859127FE81915F01E4
:10458000B70190E00E94DC2331103A94F1E04F1A19
:1045900051084114510471F7E5C0843611F0893691
:1045A00039F5F80127FF07C060817181828193810D
:1045B0000C5F1F4F08C060817181072E000C880BB3
:1045C000990B0E5F1F4F2F76722E97FF09C09095A3
:1045D0008095709561957F4F8F4F9F4F2068722E09
:1045E0002AE030E0A4010E941424A82EA81844C098
:1045F000853729F42F7EB22E2AE030E025C0F22F35
:10460000F97FBF2E8F36C1F018F4883579F0B4C029
:10461000803719F0883721F0AFC02F2F2061B22EDC
:10462000B4FE0DC08B2D8460B82E09C024FF0AC0D3
:104630009F2F9660B92E06C028E030E005C020E12B
:1046400030E002C020E132E0F801B7FE07C060812F
:104650007181828193810C5F1F4F06C060817181DF
:1046600080E090E00E5F1F4FA4010E941424A82E4A
:10467000A818FB2DFF777F2E76FE0BC0372D3E7FCF
:10468000A51450F474FE0AC072FC08C0372D3E7E9B
:1046900005C0BA2C372D03C0BA2C01C0B52C34FF8D
:1046A0000DC0FE01EA0DF11D8081803311F4397EC9
:1046B00009C032FF06C0B394B39404C0832F867838
:1046C00009F0B39433FD13C030FF06C05A2CB31465
:1046D00018F4530C5B18B32CB31468F4B70180E2E0
:1046E00090E03C870E94DC23B3943C85F5CFB31463
:1046F00010F43B1801C0312C34FF12C0B70180E325
:1047000090E03C870E94DC233C8532FF17C031FDDE
:1047100003C088E790E002C088E590E0B7010CC0D4
:10472000832F867859F031FF02C08BE201C080E20E
:1047300037FD8DE2B70190E00E94DC23A51438F428
:10474000B70180E390E00E94DC235A94F7CFAA944B
:10475000F401EA0DF11D8081B70190E00E94DC2395
:10476000A110F5CF332009F451CEB70180E290E0DB
:104770000E94DC233A94F6CFF7018681978102C02C
:104780008FEF9FEF2C96E2E10C94B61EFC01059092
:10479000615070400110D8F7809590958E0F9F1F43
:1047A0000895FC016150704001900110D8F7809588
:1047B00090958E0F9F1F08950F931F93CF93DF93B4
:1047C000FB01238121FD03C08FEF9FEF28C022FF53
:1047D00016C046815781248135814217530744F41E
:1047E000A081B1819D012F5F3F4F318320838C9346
:1047F000268137812F5F3F4F3783268310C0EB011F
:10480000092F182F0084F185E02D0995892BE1F6F9
:104810008E819F8101969F838E83812F902FDF91C0
:10482000CF911F910F910895FA01AA27283051F1D5
:10483000203181F1E8946F936E7F6E5F7F4F8F4FD1
:104840009F4FAF4FB1E03ED0B4E03CD0670F781F30
:10485000891F9A1FA11D680F791F8A1F911DA11D15
:104860006A0F711D811D911DA11D20D009F468944E
:104870003F912AE0269F11243019305D3193DEF6F6
:10488000CF010895462F4770405D4193B3E00FD0AC
:10489000C9F7F6CF462F4F70405D4A3318F0495D97
:1048A00031FD4052419302D0A9F7EACFB4E0A6957A
:1048B0009795879577956795BA95C9F7009761059C
:1048C000710508959B01AC010A2E069457954795F2
:1048D00037952795BA95C9F7620F731F841F951FE7
:1048E000A01D089514E0C4E9D4E004C0FE010E94B4
:0E48F000A61F2196C539D107C9F7F894FFCF4E
:1048FE000401040402010A000000010A2D00000058
:10490E00010600000001062D0000000305313B00EA
:10491E0000000305323B0000000000B903800000D8
:10492E00000000EB0E780CF70B7A0C090C0000005F
:10493E0000D3064106F70B7A0C320C000000005F24
:10494E000BBF15F70AA60B280B060B1A0B0000005F
:10495E00005D05BF15EB055C05B105C905440500F5
:10496E00000000B50F4005340CBB0C730C39054824
:10497E000C35053305700C000000001B05BF041933
:10498E00060D0A58424F5820555342204C69627208
:10499E0061727920537461727465640009000D0AA6
:1049AE004F534320646964206E6F74207374617278
:1049BE0074000D0A00526561642074696D65206F84
:0849CE0075742E004F4B000030
:107E0000112484B714BE81FFF0D085E080938100F7
:107E100082E08093C00088E18093C10086E0809377
:107E2000C20080E18093C4008EE0C9D0259A86E02C
:107E300020E33CEF91E0309385002093840096BBD3
:107E4000B09BFECF1D9AA8958150A9F7CC24DD24C4
:107E500088248394B5E0AB2EA1E19A2EF3E0BF2EE7
:107E6000A2D0813461F49FD0082FAFD0023811F036
:107E7000013811F484E001C083E08DD089C08234E0
:107E800011F484E103C0853419F485E0A6D080C0E4
:107E9000853579F488D0E82EFF2485D0082F10E0AE
:107EA000102F00270E291F29000F111F8ED06801E7
:107EB0006FC0863521F484E090D080E0DECF843638
:107EC00009F040C070D06FD0082F6DD080E0C81688
:107ED00080E7D80618F4F601B7BEE895C0E0D1E017
:107EE00062D089930C17E1F7F0E0CF16F0E7DF06D8
:107EF00018F0F601B7BEE89568D007B600FCFDCFD4
:107F0000A601A0E0B1E02C9130E011968C91119780
:107F100090E0982F8827822B932B1296FA010C0160
:107F200087BEE89511244E5F5F4FF1E0A038BF0790
:107F300051F7F601A7BEE89507B600FCFDCF97BE46
:107F4000E89526C08437B1F42ED02DD0F82E2BD052
:107F50003CD0F601EF2C8F010F5F1F4F84911BD097
:107F6000EA94F801C1F70894C11CD11CFA94CF0C13
:107F7000D11C0EC0853739F428D08EE10CD085E9AC
:107F80000AD08FE07ACF813511F488E018D01DD067
:107F900080E101D065CF982F8091C00085FFFCCF94
:107FA0009093C60008958091C00087FFFCCF809118
:107FB000C00084FD01C0A8958091C6000895E0E648
:107FC000F0E098E1908380830895EDDF803219F02E
:107FD00088E0F5DFFFCF84E1DECF1F93182FE3DFCA
:107FE0001150E9F7F2DF1F91089580E0E8DFEE27F6
:047FF000FF270994CA
:027FFE00040479
:0400000300007E007B
:00000001FF