:100000000C9495040C94BD040C94BD040C942D0E1A
:100010000C942D0E0C942D0E0C94BD040C94BD0468
:100020000C94BD040C94BD040C94BD040C94BD044C
:100030000C94BD040C94BD040C94BD040C94BD043C
:100040000C9469080C94BD040C9489050C94630508
:100050000C94BD040C94BD040C94BD040C94BD041C
:100060000C94BD040C94BD04000000002400270083
:100070002A000001000800020004002000100040D7
:10008000008000000000010002002000100040007D
:10009000800004000800000203040501526967683B
:1000A00074486174593A20005269676874486174F1
:1000B000583A20004C656674486174593A20004CE7
:1000C000656674486174583A20004261636B00535E
:1000D0007461727400000000080002010000030453
:1000E0000700000000000000000000C1C081C14006
:1000F0000101C3C003800241C201C6C0068007419E
:10010000C70005C1C581C4400401CCC00C800D41AD
:10011000CD000FC1CF81CE400E000AC1CA81CB40B5
:100120000B01C9C009800841C801D8C01880194115
:10013000D9001BC1DB81DA401A001EC1DE81DF401D
:100140001F01DDC01D801C41DC0014C1D481D540DD
:100150001501D7C017801641D601D2C012801341B5
:10016000D30011C1D181D0401001F0C030803141A5
:10017000F10033C1F381F240320036C1F681F7401D
:100180003701F5C035803441F4003CC1FC81FD40AD
:100190003D01FFC03F803E41FE01FAC03A803B4135
:1001A000FB0039C1F981F840380028C1E881E940F5
:1001B0002901EBC02B802A41EA01EEC02E802F419D
:1001C000EF002DC1ED81EC402C01E4C024802541DD
:1001D000E50027C1E781E640260022C1E281E34035
:1001E0002301E1C021802041E001A0C06080614185
:1001F000A10063C1A381A240620066C1A681A7409D
:100200006701A5C065806441A4006CC1AC81AD40AC
:100210006D01AFC06F806E41AE01AAC06A806B41B4
:10022000AB0069C1A981A840680078C1B881B94014
:100230007901BBC07B807A41BA01BEC07E807F411C
:10024000BF007DC1BD81BC407C01B4C074807541DC
:10025000B50077C1B781B640760072C1B281B340B4
:100260007301B1C071807041B00050C19081914064
:10027000510193C053805241920196C0568057411C
:10028000970055C19581944054019CC05C805D41AC
:100290009D005FC19F819E405E005AC19A819B4034
:1002A0005B0199C059805841980188C048804941F4
:1002B00089004BC18B818A404A004EC18E818F409C
:1002C0004F018DC04D804C418C0044C184818540DC
:1002D000450187C047804641860182C04280434134
:1002E000830041C181818040400000019001600095
:1002F000F002C0035003A0023007C0065006A0075A
:100300003005000490046005F00DC00C500CA00DE9
:10031000300F000E900E600FF00A000B900B600A79
:10032000F008C0095009A0083019C0185018A019C9
:10033000301B001A901A601BF01E001F901F601ED9
:10034000F01CC01D501DA01C301400159015601429
:10035000F016C0175017A0163013C0125012A01379
:100360003011001090106011F031C0305030A031C9
:100370003033003290326033F036003790376036D9
:10038000F034C0355035A034303C003D903D603CE9
:10039000F03EC03F503FA03E303BC03A503AA03BF9
:1003A0003039003890386039F028002990296028C9
:1003B000F02AC02B502BA02A302FC02E502EA02F59
:1003C000302D002C902C602DF025C0245024A02529
:1003D0003027002690266027F022002390236022F9
:1003E000F020C0215021A0203061C0605060A06189
:1003F0003063006290626063F066006790676066D9
:10040000F064C0655065A064306C006D906D606CE8
:10041000F06EC06F506FA06E306BC06A506AA06BF8
:100420003069006890686069F07800799079607848
:10043000F07AC07B507BA07A307FC07E507EA07F58
:10044000307D007C907C607DF075C0745074A07528
:100450003077007690766077F072007390736072F8
:10046000F070C0715071A0703050005190516050C8
:10047000F052C0535053A0523057C0565056A05758
:100480003055005490546055F05DC05C505CA05DE8
:10049000305F005E905E605FF05A005B905B605A78
:1004A000F058C0595059A0583049C0485048A04948
:1004B000304B004A904A604BF04E004F904F604ED8
:1004C000F04CC04D504DA04C304400459045604428
:1004D000F046C0475047A0463043C0425042A04378
:1004E0003041004090406041F0000051C0A1C0F098
:1004F0000041C11001E001B1C181C2D002200271EE
:10050000C2C00391C361C3300301C55005A005F10A
:10051000C5400411C4E1C4B0048007D1C721C7702D
:1005200007C1C69006600631C601CA500AA00AF18A
:10053000CA400B11CBE1CBB00B8008D1C821C870E9
:1005400008C1C99009600931C9000F51CFA1CFF08E
:100550000F41CE100EE00EB1CE81CDD00D200D7129
:10056000CDC00C91CC61CC300C01D45014A014F14E
:10057000D4401511D5E1D5B0158016D1D621D6704D
:1005800016C1D79017601731D7001151D1A1D1F002
:100590001141D01010E010B1D081D3D013201371CD
:1005A000D3C01291D261D23012001E51DEA1DEF012
:1005B0001E41DF101FE01FB1DF81DCD01C201C7149
:1005C000DCC01D91DD61DD301D01DB501BA01BF186
:1005D000DB401A11DAE1DAB01A8019D1D921D970C9
:1005E00019C1D89018601831D801E85028A028F116
:1005F000E8402911E9E1E9B029802AD1EA21EA702D
:100600002AC1EB902B602B31EB002D51EDA1EDF0C9
:100610002D41EC102CE02CB1EC81EFD02F202F716C
:10062000EFC02E91EE61EE302E002251E2A1E2F0F9
:100630002241E31023E023B1E381E0D020202071A8
:10064000E0C02191E161E1302101E75027A027F1CD
:10065000E7402611E6E1E6B0268025D1E521E570E8
:1006600025C1E49024602431E4003C51FCA1FCF05D
:100670003C41FD103DE03DB1FD81FED03E203E718C
:10068000FEC03F91FF61FF303F01F95039A039F1C1
:10069000F9403811F8E1F8B038803BD1FB21FB700C
:1006A0003BC1FA903A603A31FA01F65036A036F181
:1006B000F6403711F7E1F7B0378034D1F421F47008
:1006C00034C1F59035603531F5003351F3A1F3F0C5
:1006D0003341F21032E032B1F281F1D03120317188
:1006E000F1C03091F061F03030000001FC01B80041
:1006F00044013000CC008801740260039C03D802DE
:1007000024035002AC02E8031404C0053C0578043D
:100710008405F0040C044805B406A0075C0718061D
:10072000E40790066C062807D40BC00A3C0A780B35
:10073000840AF00B0C0B480AB409A0085C081809DD
:10074000E40890096C092808D40F000EFC0EB80FBD
:10075000440E300FCC0F880E740D600C9C0CD80D1D
:10076000240C500DAC0DE80C1415C0143C14781575
:100770008414F0150C154814B417A0165C1618173D
:10078000E41690176C172816D4110010FC10B8113D
:1007900044103011CC118810741360129C12D813BD
:1007A00024125013AC13E812141E001FFC1FB81EB5
:1007B000441F301ECC1E881F741C601D9C1DD81C3D
:1007C000241D501CAC1CE81D141AC01B3C1B781ABD
:1007D000841BF01A0C1A481BB418A0195C191818BD
:1007E000E41990186C182819D429C0283C287829B5
:1007F0008428F0290C294828B42BA02A5C2A182B1D
:10080000E42A902B6C2B282AD42D002CFC2CB82DFC
:10081000442C302DCC2D882C742F602E9C2ED82F5C
:10082000242E502FAC2FE82E14220023FC23B822B4
:1008300044233022CC228823742060219C21D8209C
:1008400024215020AC20E8211426C0273C277826FC
:100850008427F0260C264827B424A0255C251824DC
:10086000E42590246C242825D43C003DFC3DB83C74
:10087000443D303CCC3C883D743E603F9C3FD83E7C
:10088000243F503EAC3EE83F1438C0393C397838FC
:100890008439F0380C384839B43AA03B5C3B183AFC
:1008A000E43B903A6C3A283BD437C0363C36783734
:1008B0008436F0370C374836B435A0345C341835FC
:1008C000E43490356C352834D4330032FC32B833FC
:1008D00044323033CC338832743160309C30D8317C
:1008E00024305031AC31E8301400000000250028DD
:1008F000002B00000000002300260029000404044F
:1009000004040404040202020202020303030303B8
:100910000301020408102040800102040810200195
:10092000020408102000311C211C11241FBECFEF2F
:10093000D8E0DEBFCDBF23E0A8EDB1E001C01D923D
:10094000A93BB207E1F711E0A0E0B1E0E0EAF9E489
:1009500002C005900D92A83DB107D9F714E0C4E993
:10096000D4E004C02197FE010E94F71FC339D107CC
:10097000C9F70E947E180C94C3240C940000FC015B
:10098000538D448D252F30E0842F90E0821B930BF4
:10099000541710F0CF96089501970895FC01918D9A
:1009A000828D981761F0828DDF01A80FB11D5D96D1
:1009B0008C91928D9F5F9F73928F90E008958FEF3F
:1009C0009FEF0895FC01918D828D981731F0828DF3
:1009D000E80FF11D858D90E008958FEF9FEF08954A
:1009E00084E292E00E94BB0521E0892B09F420E01B
:1009F000822F0895EF92FF920F931F93CF93DF936F
:100A0000EC0181E0888F9B8D8C8D981305C0E8895F
:100A1000F989808185FD24C0F62E0B8D10E00F5FD3
:100A20001F4F0F731127E02E8C8DE8120CC00FB6EC
:100A300007FCFACFE889F989808185FFF5CFCE01DF
:100A40000E947A07F1CF8B8DFE01E80FF11DE35A6A
:100A5000FF4FF0820B8FEA89FB898081806207C09B
:100A6000EE89FF896083E889F989808180648083C9
:100A700081E090E0DF91CF911F910F91FF90EF9077
:100A80000895CF93DF93EC01888D8823C9F0EA891C
:100A9000FB89808185FD05C0A889B9898C9186FD77
:100AA0000FC00FB607FCF5CF808185FFF2CFA88974
:100AB000B9898C9185FFEDCFCE010E947A07E7CFEF
:100AC000DF91CF9108951F920F920FB60F921124CC
:100AD0002F933F934F935F936F937F938F939F9346
:100AE000AF93BF93EF93FF9384E292E00E947A0763
:100AF000FF91EF91BF91AF919F918F917F916F91F6
:100B00005F914F913F912F910F900FBE0F901F90CB
:100B100018951F920F920FB60F9211242F938F9357
:100B20009F93EF93FF93E0913402F091350280811F
:100B3000E0913A02F0913B0282FD12C090818091D7
:100B40003D028F5F8F7320913E02821751F0E0913A
:100B50003D02F0E0EC5DFD4F958F80933D0201C0BA
:100B60008081FF91EF919F918F912F910F900FBEF8
:100B70000F901F901895FC01918D228D892F90E088
:100B8000805C9F4F821B91098F739927089580E0A5
:100B900090E0892B29F00E94F00481110C94000050
:100BA00008953FB7F8948091DF019091E001A09102
:100BB000E101B091E20126B5A89B05C02F3F19F0D5
:100BC0000196A11DB11D3FBFBA2FA92F982F8827CD
:100BD000820F911DA11DB11DBC01CD0142E0660F28
:100BE000771F881F991F4A95D1F70895DC01129647
:100BF0008D919C911397DC01ED91FC910084F1851E
:100C0000E02D099521E0892B09F420E0822F089539
:100C1000CF92DF92EF92FF920F931F93CF93DF93C8
:100C20006C018B017A01EB019E01201B310B2E150B
:100C30003F0574F46991D60112968D919C9113979A
:100C4000DC01ED91FC910190F081E02D0995ECCF54
:100C5000DF91CF911F910F91FF90EF90DF90CF9098
:100C600008950C940806CF93DF93EC011A828B81D0
:100C70009C81DC01ED91FC910480F581E02D6D817A
:100C800009951D82198A80E0DF91CF9108956E3514
:100C900084E0780759F06D3A9BE1790739F06E32BC
:100CA00086E1780719F06F367E40A1F44E3882E075
:100CB000580791F0463190EF590771F0413084E0C8
:100CC000580751F081E0433192E0590739F04F3E27
:100CD0005E4B21F080E0089581E008950895FC01C5
:100CE00081890895FC01858108950E94F4210C9466
:100CF0009220CF92DF92EF92FF920F931F93CF93A8
:100D0000DF938C017B01EA01FC01828193810E94C7
:100D10004E1897FD24C0F7018083282F30E02D5F07
:100D20003F4FC217D3070CF49E01E9012197F80148
:100D3000C280D38020E030E089010F5F1F4F2C1765
:100D40003D0728F4C6010E944E1897FF02C0C80153
:100D500008C0F701E00FF11F80839801EDCF80E01C
:100D600090E0DF91CF911F910F91FF90EF90DF9076
:100D7000CF9008958F929F92AF92BF92CF92DF92C1
:100D8000EF920F931F93CF93DF9300D000D000D04A
:100D9000CDB7DEB7FC012189222309F498C06C018C
:100DA00080E290E09E838D835F01F8E2AF0EB11C7C
:100DB000F60141856581838094801C821B821A82A2
:100DC00019828E010F5F1F4F9E012D5F3F4FC4019F
:100DD0000E945F1481110CC049815A816B817C8112
:100DE000E12C85019E012B5F3F4FC4010E94EB0E59
:100DF000AB2809F46CC0F60180A5811168C081A5FB
:100E0000843109F064C022A583A590E0A0E0B0E0A1
:100E1000DC0199278827B22B44A550E0542F4427A2
:100E200025A5422B60E070E0842B952BA62BB72BD9
:100E3000828B938BA48BB58B27A530E0322F222792
:100E400046A5242B358F248F21A930E0322F22276D
:100E500040A9242B378F268F23A930E0322F222759
:100E600042A9242B31A320A325A930E0322F222729
:100E700044A9242B33A322A306891789208D318D01
:100E800080179107A207B30711F14D01AA24BB24D3
:100E9000B901A8014095509560957095AB01662702
:100EA000772748215921538F428F011104C088238D
:100EB00011F041E047A3111105C0992319F021E079
:100EC000F60126A3F601868B978BA08FB18F80E069
:100ED00026960FB6F894DEBF0FBECDBFDF91CF913F
:100EE0001F910F91EF90DF90CF90BF90AF909F90A8
:100EF0008F900895FC01848DDF01A80FB11DA35AC6
:100F0000BF4F2C91848D90E001968F739927848F29
:100F1000A689B7892C93A089B1898C9180648C9320
:100F2000938D848D981306C00288F389E02D80810B
:100F30008F7D8083089590E0FC01EB52FF4F349148
:100F4000FC01EF5EF64F2491FC01E350F74FE49172
:100F5000EE2309F43BC0332339F1333091F038F4F8
:100F60003130A9F0323001F584B58F7D12C03730B1
:100F700091F03830A1F03430B9F4809180008F7D49
:100F800003C0809180008F77809380000DC084B56E
:100F90008F7784BD09C08091B0008F7703C08091A6
:100FA000B0008F7D8093B000F0E0EE0FFF1FE7519F
:100FB000F74FA591B4918FB7F894EC91611103C0EC
:100FC00020952E2301C02E2B2C938FBF0895CF93F5
:100FD000DF9390E0FC01EF5EF64F2491FC01E350BB
:100FE000F74F8491882361F190E0880F991FFC01ED
:100FF000E859FF4FC591D491FC01E751F74FA591F6
:10100000B491611109C09FB7F8948881209582231B
:101010008883EC912E230BC0623061F49FB7F89463
:101020003881822F809583238883EC912E2B2C93FB
:101030009FBF06C08FB7F894E8812E2B28838FBFFF
:10104000DF91CF9108958F929F92AF92BF92CF92EE
:10105000DF92EF92FF926B017C010E94D1054B0160
:101060005C01C114D104E104F104F1F00E94D10546
:10107000DC01CB0188199909AA09BB09883E934074
:10108000A105B10570F321E0C21AD108E108F10809
:1010900088EE880E83E0981EA11CB11CC114D104F7
:1010A000E104F10419F7DDCFFF90EF90DF90CF90CE
:1010B000BF90AF909F908F9008952FB7F894609154
:1010C000DB017091DC018091DD019091DE012FBF89
:1010D00008951F920F920FB60F9211242F933F93F2
:1010E0008F939F93AF93BF938091DB019091DC012D
:1010F000A091DD01B091DE013091DA0123E0230FF0
:101100002D3720F40196A11DB11D05C026E8230F3F
:101110000296A11DB11D2093DA018093DB0190930B
:10112000DC01A093DD01B093DE018091DF0190919D
:10113000E001A091E101B091E2010196A11DB11D74
:101140008093DF019093E001A093E101B093E2016D
:10115000BF91AF919F918F913F912F910F900FBEB3
:101160000F901F9018950895CF93DF93DC0112968E
:10117000CD91DC911397E881F981DB0114964D91B3
:101180005C9115976D917C910280F381E02DCE01E9
:101190000995E881F9810280F381E02D42E050E079
:1011A00062EC71E0CE01DF91CF910994DC011296DF
:1011B0008D919C911397DC01ED91FC91DB011496CC
:1011C0004D915C9115976D917C910280F381E02D9A
:1011D000099424E232E0FC013383228342E350E0AD
:1011E00060E070E0409328025093290260932A0245
:1011F00070932B0221E431E0318320838091D90167
:10120000811138C081E08093D901E0913402F091DE
:10121000350282E08083E0913002F0913102108249
:10122000E0913202F09133028FEC808310923C0205
:10123000E0913802F091390286E08083E091360235
:10124000F0913702808180618083E0913602F091D5
:101250003702808188608083E0913602F091370206
:10126000808180688083E0913602F091370280812E
:101270008F7D808308959C01E62F842F5AE0652F8F
:101280000E94C31F2E0F311DF9013197905D90838D
:1012900031970E94C31F905D908331970E94C31FB6
:1012A000905D908308958F929F92AF92BF92CF925C
:1012B000EF920F93FC011F921F927F936F935F93A6
:1012C0004F934A01A12CB12C82E0C82EE12C09E0F9
:1012D00021E246816581838194810E94CB0F0F902A
:1012E0000F900F900F900F900F900F91EF90CF9065
:1012F000BF90AF909F908F9008952F923F924F9202
:101300005F926F927F928F929F92AF92BF92CF9295
:10131000DF92EF92FF920F931F93CF93DF93CDB79E
:10132000DEB767970FB6F894DEBF0FBECDBFDC0106
:1013300013964D905C90149715961C9111115EC1F7
:10134000F22E4F8BD62E3C01D201ED91FC910190F3
:10135000F081E02D60E0C20109951C01009711F4B5
:1013600016ED54C1FC010190F081E02DFE8BED8B58
:10137000EF2B09F445C193012A5F3F4F3C8B2B8B28
:10138000DC0111963C932E931496FC921F921F92AF
:10139000CE0101969F938F931F9282E18F9392E1EA
:1013A000892E912CA12CB12CCC24C394E12C06E0E5
:1013B00020E840E060E0F301838194810E94CB0F3C
:1013C000082FED89FE89D101ED93FC930F900F90CA
:1013D0000F900F900F900F90811106C129853A85CB
:1013E0008B859C852E35F4E03F0761F02D3A4BE16B
:1013F000340741F02E32A6E13A0721F02F363E4065
:1014000009F0EFC08F38E2E09E0709F4EAC08931A5
:10141000F7E09F0709F4E5C0813922E0920709F45B
:10142000E0C08E3832E0930781F0863140EF9407B8
:1014300061F08130A4E09A0741F08331B2E09B076C
:1014400021F08F3E9E4B09F0CCC0D201ED91FC9172
:101450000280F381E02D2F8940E06D2DC2010995B6
:10146000F3018583882309F4CDC098859783482F9D
:1014700060E0838194810E94D514082FD201ED9100
:10148000FC91D10114961C92882359F00480F581B7
:10149000E02DD30115966C91C2010995F3011582D7
:1014A000ABC00190F081E02DD30115966C91C20183
:1014B0000995009709F454CFFC01F482D3011596E5
:1014C0000C91159713968D919C911497EB89FC893B
:1014D000EF2B09F499C0602F0E94310CFC01892B7D
:1014E00009F481C002832B893C8931832083DD2468
:1014F000D394D382D3011996DC92199783E0F82E06
:1015000090E21A969C931A9784E01B968C931B97F3
:1015100022E01C962C931C971D969C931D971E965B
:101520008C931E9715960C911597602F13968D919D
:101530009C9114970E94310CFC01892B09F453C033
:1015400002832B893C8931832083F38268EC70E02D
:1015500080E090E00E9423081F921F921F921F922A
:101560001F921F92812C912CA12CB12CC12CEE2406
:10157000E39409E020E0D30116964C911697159656
:101580006C91159713968D919C9114970E94CB0F97
:10159000082F0F900F900F900F900F900F908111C8
:1015A00023C0D3011F96ED91FC915097309711F015
:1015B000099512C0E7E9F0E0E491B301685B7F4F61
:1015C000DB01DC921196FC921196EC5FEC9343E008
:1015D00050E0C3010E94530981E0F3018283818BB3
:1015E00015C001ED01C006EDD301ED91FC91048021
:1015F000F581E02DC3010995102F08C019ED06C033
:1016000017ED04C014ED02C008EDEECF812F6796F0
:101610000FB6F894DEBF0FBECDBFDF91CF911F9103
:101620000F91FF90EF90DF90CF90BF90AF909F9081
:101630008F907F906F905F904F903F902F90089584
:10164000DF92EF92FF920F931F93CF93DF93EC0102
:10165000E62EF12C85E0689FB0011124FE01E60F13
:10166000F71F8085182F177086FF21C001E085E0E5
:10167000D82E8FEF800F8F3008F001E0FE01D09E52
:10168000E00DF11D112480858695869586958770DD
:10169000811305C0602FCE010E94200BEACF0F5F9F
:1016A000003161F78D81811302C011501D8385E0E7
:1016B0008E9DF0018F9DF00D1124EC0FFD1F108603
:1016C00081E0818712862296D783C683DF91CF91EE
:1016D0001F910F91FF90EF90DF9008950F931F934C
:1016E000CF93DF93C82FD62F8A0180E591E00E9427
:1016F000E80E0E94DC0E8C2F82600E94E10ECD2F3E
:10170000D0E0209721F0BE01C8010E94BD0EC00F9D
:10171000D11F0E94DE0E0E94E00ECE01DF91CF911C
:101720001F910F9108951F93CF93DF9300D01F92C5
:10173000CDB7DEB7182F80E591E06B830E94E80EED
:101740000E94DC0E126019836B816A8362E070E094
:10175000CE0101960E94BD0E0E94DE0E0E94E00E98
:101760000F900F900F90DF91CF911F9108951F93CD
:10177000CF93DF931F92CDB7DEB7182F80E591E0AE
:101780000E94E80E0E94DC0E812F0E94E10E80E094
:101790000E94E10E89830E94DE0E0E94E00E898184
:1017A0000F90DF91CF911F910895CF93DF93FC01AC
:1017B000862F807809F051C0283008F04FC04423AC
:1017C00021F09581973009F449C0EF012D96A0E0F2
:1017D000B0E011969881911103C0662331F021C0C9
:1017E0002596AF30B105A9F739C085E08A9FE001A1
:1017F0008B9FD00D1124CE0FDF1F442331F081E4E5
:10180000888785818F5F858302C081E0888725E096
:101810002A9FC0012B9F900D1124E80FF91F80858E
:101820001DC06770660F660F660F442341F0606449
:1018300085818F5F85838770687F682B03C02770E1
:10184000687B622B25E02A9FC0012B9F900D1124FD
:10185000E80FF91F6087862F01C080E0DF91CF91EC
:101860000895611102C006960895FC013D9621E09D
:101870003081361307C035E0239F800D911D112460
:10188000069608952F5F3596203191F780E090E01D
:10189000089581E0089580E0089580E00895089516
:1018A00080E0089580E0089580E0089580E0089544
:1018B00080E008952091C3023091C40228173907AF
:1018C00071F49091C1028091C202981741F0E091A9
:1018D000C102F0E0ED51FE4F808190E008958FEF5E
:1018E0009FEF089508951F93CF93DF93DC015C96DB
:1018F0002D913C915D972115310539F481E090E0FF
:1019000013969C938E9312973DC05196ED91FC9146
:10191000529750969C915097892F80951FB75E964D
:101920004C915E9741FB772770F941FD6095F894E3
:101930004081772311F0492B01C048234083E901FE
:101940002197F1F748E0508160FF02C0592B01C098
:1019500058235083E9012197F1F76695415099F793
:10196000772321F090818923808303C08081982B85
:1019700090831FBF5C968D919C915D970197F1F7C5
:1019800021E030E0C901DF91CF911F9108952091AE
:10199000C3023091C4022817390771F48091C20242
:1019A0002091C10290E0805C9F4F821B910960E40E
:1019B00070E00E94CF1F089580E090E0089520918C
:1019C000C3023091C40228173907B9F49091C102BB
:1019D0008091C202981789F0E091C102F0E0ED51C8
:1019E000FE4F80812091C10230E02F5F3F4F2F7367
:1019F00033272093C10290E008958FEF9FEF089561
:101A0000089580E090E00895FC016134C1F43F96B0
:101A10009C01265A3F4F61E0AC014E5F5F4FDF01F2
:101A200012971C9211966C93108213974D935C93AE
:101A30003596E217F30799F7FC01158208953D9654
:101A400021E03081361303C0622F0C94200B2F5FEE
:101A500035962031B1F708958F929F92AF92BF9241
:101A6000CF92DF92EF92FF920F931F93CF93DF936A
:101A7000862E942E59010E945D086B017C0128E896
:101A8000C20E23E1D21EE11CF11C00E010E0D0E008
:101A9000C0E098280E945D08DC01CB018C199D09EB
:101AA000AE09BF09B7FF2DC0692D80EF0E94930BCF
:101AB0000E945D08DC01CB018C199D09AE09BF09AC
:101AC000B7FF09C088EC0E94B70B87FFF1CF60E831
:101AD00088EC0E94930B88EF0E94B70BC82FCF7041
:101AE000C43019F0CE3051F00CC00F5F1F4FA1145D
:101AF000B10481F20A151B0569F603C0DF5FD3301C
:101B000049F68C2FDF91CF911F910F91FF90EF90AD
:101B1000DF90CF90BF90AF909F908F9008950C94DE
:101B200092209F92AF92BF92CF92DF92EF92FF925C
:101B30000F931F93CF93DF937C01C42F122F99240F
:101B400093946C01C60ED11CC60ED11C86E5C80E3E
:101B5000D11CA42EB12CABE2AA0EB11CAA0CBB1C4A
:101B6000AE0CBF1CF60180819181DC01ED91FC91EE
:101B70000280F381E02D202F412F6C2F0995803EAC
:101B8000C9F4C1110BC061E088EE0E94930B66E6B8
:101B900070E080E090E00E94230816C0F50180818B
:101BA0009181DC01ED91FC910284F385E02D612FA0
:101BB00009950AC08D3031F49FEF990D933008F0EC
:101BC00040C016C081113DC0F60180819181DC01C9
:101BD000ED91FC910190F081E02D202F412F6C2F91
:101BE0000995D82F8D3061F48FEF890D833050F433
:101BF00064E670E080E090E00E9423089394B2CF06
:101C00008823F1F0C1110BC061E088EE0E94930BB4
:101C100066E670E080E090E00E94230811C0EC2F9F
:101C2000F0E0BB96EE0FFF1FEE0DFF1D808191814E
:101C3000DC01ED91FC910284F385E02D612F099583
:101C40008D2FDF91CF911F910F91FF90EF90DF903B
:101C5000CF90BF90AF909F9008951F920F920FB6B4
:101C60000F9211242F933F934F935F936F937F9322
:101C70008F939F93AF93BF93EF93FF93E091C30232
:101C8000F091C402309709F451C0968DA685B785AE
:101C9000858591FF04C09C91892329F447C09C91BC
:101CA000892309F043C0A389B4899C9185898095D3
:101CB00089238C93868997890197F1F7608D718DBF
:101CC000A685B785558538E020E0CB010197F1F76F
:101CD000822F90E095958795282F4C91452309F008
:101CE0002068315091F7868D81FD20958091C20248
:101CF00090E001968F7399273091C102381749F00F
:101D0000A091C202B0E0AD51BE4F2C938093C202AD
:101D100003C0868D8160868F828D938D0197F1F748
:101D2000A389B4899C918589892B8C93FF91EF912C
:101D3000BF91AF919F918F917F916F915F914F91E3
:101D40003F912F910F900FBE0F901F901895E0912B
:101D5000C302F091C402E817F90769F4A389B489B2
:101D60009C918589809589238C931092C40210924E
:101D7000C30281E0089580E00895FC0120812EBD1A
:101D8000DC0131969C01260F371FE217F30741F063
:101D900051910DB407FEFDCF4EB55EBD4D93F5CF0D
:101DA00061507109FC01E60FF71F0DB407FEFDCF6E
:101DB0008EB58083089508952A9808952A9A0895E3
:101DC00008958EBD00000DB407FEFDCF8EB50895B9
:101DD0008CBD9DBD08952F923F924F925F926F925E
:101DE0007F928F929F92AF92BF92CF92DF92EF92AB
:101DF000FF920F931F93CF93DF93CDB7DEB7299751
:101E00000FB6F894DEBF0FBECDBF1C01798768877F
:101E10005B834A836901D9018D909C901197FB01E6
:101E2000F181F9831D921C92DB0112968C9181FD48
:101E300002C060E101C060E288EE0E94930B8E2D2B
:101E400090E0A0E0B0E08C839D83AE83BF83482CFC
:101E50002A813B81A885B9854C9160E0C1010E942F
:101E60002C0DF82EB6E08B1316C088EF0E94B70B2E
:101E70008295817091E08927E885F985928180FBC0
:101E800091F9928391FD02C060E101C060E288EEA9
:101E90000E94930BDDCF811164C088EC0E94B70BC8
:101EA00082FF5DC080E30E94B70B582E90E0881639
:101EB000990608F4542CD6018D919C91652C712CB7
:101EC000F401E81BF90BCF01F7FF02C080E090E0BE
:101ED0005301861597050CF45C0180E591E00E94A2
:101EE000E80E0E94DC0E88E00E94E10EA50160E091
:101EF00070E0C8010E940222A114B10421F0B501D2
:101F0000C8010E94BD0E0A0D1B1D0E94DE0E64E07A
:101F100088EC0E94930BD6018D919C911197680ECD
:101F2000791E6D927C92B9815B1618F06814790461
:101F300060F088EF0E94B70B82958170E885F98583
:101F4000928180FB91F992830CC0EE2009F480CF3E
:101F50006C817D818E819F810E94230879CF80EFE3
:101F6000F82E8F2D29960FB6F894DEBF0FBECDBF89
:101F7000DF91CF911F910F91FF90EF90DF90CF9065
:101F8000BF90AF909F908F907F906F905F904F9099
:101F90003F902F9008952F923F924F925F926F92B1
:101FA0007F928F929F92AF92BF92CF92DF92EF92E9
:101FB000FF920F931F93CF93DF93CDB7DEB7689750
:101FC0000FB6F894DEBF0FBECDBF2C014B8B322E67
:101FD000202EFC2CCDA4DEA46FA478A81E861D861E
:101FE0001C861B868E01055F1F4F9E01235F3F4F9E
:101FF0000E945F14811159C139822A82EB82FC82CE
:10200000BE82AD8298868F82AE014F5F5F4F68E0DF
:1020100080E20E946E0B2B853C854B8960E1C201FA
:102020000E942C0D182F8111FCC0232C221C22246D
:10203000221C6114710409F4E5C0AD84BE84222021
:1020400009F456C0D50112968C91129782601296AF
:102050008C93540133243394A114B10409F444C083
:10206000DA86C9864B855C856D857E85E12C83018A
:102070009E01275F3F4FC2010E94EB0E182F863052
:1020800079F4ED84FE8488EF0E94B70B85FB8827E6
:1020900080F98325F701928180FB91F99283DCCF4F
:1020A0008111BFC029A93AA921153105A1F0D90193
:1020B000ED91FC9111970190F081E02DC4018A19F6
:1020C0009B09988B8F8769857A859E01215F3F4F99
:1020D000A301CD01099589859A85A81AB90A8C159D
:1020E0009D0508F0B9CF8EC0112309F490C099C0A6
:1020F000F501828181608283EB84FC8401818FEF12
:10210000800F803408F08BC00E945D089B01AC01F9
:1021100028573C4E4F4F5F4F2C8B3D8B4E8B5F8B28
:10212000D50112968C9180FD02C060E401C060E888
:1021300088EE0E94930B202F30E03A8B298BC1143C
:10214000D10409F44DC0460129893A892C153D0571
:1021500008F44901888EA301682D80E10E946E0B6E
:10216000682D88E30E94930BD5016C91606280EF2B
:102170000E94930B88EC0E94B70B87FFFBCF60E8AF
:1021800088EC0E94930B88EF0E94B70B182F1F70EA
:10219000212C312C00E0112371F00E945D08DC013C
:1021A000CB012C893D894E895F89821B930BA40B3F
:1021B000B50BB7FD05C0C818D908680C791CBFCF8E
:1021C000163089F11E3009F468C0143049F4BFEFAD
:1021D0002B1A3B0AE114F104F1F12E143F04D9F556
:1021E00088EF0E94B70B85FB882780F9D5011296EE
:1021F0009C91129780FB90F912969C93112309F4FD
:1022000050C00FC02B853C85211003C04CC02B85CE
:102210003C8560EA4B89C2010E942C0D46C08AEDC4
:1022200044C0812F42C088EF0E94B70B85FB8827EE
:1022300080F9E1E08E27D50112969C91129780FBE0
:1022400090F912969C9390FD02C060E401C060E892
:1022500088EE0E94930B60E088E30E94930BF301E9
:10226000608180E10E94930B688D88E30E94930B4C
:10227000D5016C91606280EF0E94930B88EC0E9404
:10228000B70B87FFFBCF60E888EC0E94930B88EFC9
:102290000E94B70B182F1F707ECF0F5F0330D9F647
:1022A0009FCF2B853C8560E8B5CF68960FB6F89434
:1022B000DEBF0FBECDBFDF91CF911F910F91FF9079
:1022C000EF90DF90CF90BF90AF909F908F907F90D6
:1022D0006F905F904F903F902F9008951F93CF93F2
:1022E000DF9300D01F92CDB7DEB7182F80E591E0C5
:1022F0006B830E94E80E0E94DC0E126019836B81D2
:102300006A8362E070E0CE0101960E94BD0E0E94D9
:10231000DE0E0F900F900F90DF91CF911F910895D7
:102320001F93CF93DF931F92CDB7DEB7182F80E5B1
:1023300091E00E94E80E0E94DC0E812F0E94E10EC7
:1023400080E00E94E10E89830E94DE0E89810F9059
:10235000DF91CF911F9108950F931F93CF93DF9338
:10236000CDB7DEB72A970FB6F894DEBF0FBECDBF4C
:1023700000E117E28091C6029091C702DC01ED9165
:10238000FC910084F185E02D0995892B61F0809105
:10239000C6029091C702DC01ED91FC910284F385A5
:1023A000E02D099519C00150110921F765EC71E084
:1023B000CE0101960E941318CE0107960E94E908EB
:1023C000BE016F5F7F4FCE0107960E94B408CE0119
:1023D00001960E948C178FEF2A960FB6F894DEBFF5
:1023E0000FBECDBFDF91CF911F910F910895CF9276
:1023F000DF92EF92FF920F931F93CF93DF93CDB7AE
:10240000DEB7CF5FD1090FB6F894DEBF0FBECDBFE8
:102410000E94AC118E010F5F1F4F9FEFF8011192C8
:102420009A95E9F76801E82EF12CC601801B910B03
:102430008E159F0534F40E94AC11F60181936F0153
:10244000F4CF0E94AC110E94AC1164ED71E0C801A0
:102450000E94092221E0892B09F020E0822FC1503F
:10246000DF4F0FB6F894DEBF0FBECDBFDF91CF9127
:102470001F910F91FF90EF90DF90CF9008950F93F1
:102480001F93CF93DF93CDB7DEB7C857D1090FB6EF
:10249000F894DEBF0FBECDBF8E010F5F1F4F88E7E0
:1024A000D8011D928A95E9F79E012D573F4F41E9CA
:1024B00051E068E770E0C8010E941922F8018081AC
:1024C000882329F18A3081F4C158DF4FE881F981EE
:1024D000CF57D04082819381DC01ED91FC91019036
:1024E000F081E02D6DE00995C158DF4FE881F98159
:1024F000CF57D04082819381DC01ED91FC91019016
:10250000F081E02DD8016D918D010995D7CFC85884
:10251000DF4F0FB6F894DEBF0FBECDBFDF91CF9176
:102520001F910F91089588EF0E949011807C803454
:10253000A1F018F4882301F10895803819F0803C47
:10254000B9F0089588ED0E94901181FD0BC069ECEF
:1025500088ED0E946E1182E00CC088ED0E949011FF
:1025600081FDF5CF6BEC88ED0E946E1183E001C018
:1025700081E080932302089561ED88ED0E946E1141
:102580001092230208954F925F926F927F928F92E2
:102590009F92AF92BF92CF92DF92EF92FF920F93F2
:1025A0001F93CF93DF935C01162FC62ED12CC6014B
:1025B00001960E94FD1F7C018091C6029091C70286
:1025C000DC01ED91FC910190F081E02D612F0995E6
:1025D000CE2DDF2D19938501C8018A199B098C1511
:1025E0009D059CF48091C6029091C7024801DC01D0
:1025F000ED91FC910190F081E02DD8016D918D015C
:102600000995F40180818993E7CFC601B7010FEFE7
:102610001FEFDC011196FB019B0123703327232B55
:10262000D1F08F3F2FEF920791F0A12FBB276F5F63
:102630007F4F2081F801FF27E227EE0FFF1FE751B0
:10264000FF4F059114910A271B270197E2CFEB0159
:10265000A0E0B0E001C0EB01CD018031910508F4AC
:10266000DAC0409788809980AA80BB800825192508
:10267000F801FF27EE0FFF1FE751F94F2591349125
:10268000E12FFF27EE0FFF1FE751FB4F059114913C
:102690004A2C512C612C712C4FEF541A640A740A85
:1026A000F201EE0FFF1FE751FF4F459154918B2C24
:1026B0009924AA24BB24F401EE0FFF1FE751FF4F1A
:1026C000C590D4908C809D80AE80BF80202731271C
:1026D00028253925242735272C253D25F901FF27D5
:1026E000EE0FFF1FE751F94F45915491E32FFF275C
:1026F000EE0FFF1FE751FB4F059114914A2C512C0F
:10270000612C712CEFEF5E1A6E0A7E0AF201EE0F59
:10271000FF1FE751FF4F259134918B2C9924AA2458
:10272000BB24F401EE0FFF1FE751FF4FC590D4907B
:1027300088849984AA84BB84402751274825592539
:10274000242735272C253D25F901FF27EE0FFF1FF4
:10275000E751F94FC590D490E32FFF27EE0FFF1FED
:10276000E751FB4F459154910A2D10E020E030E0F5
:102770001F5F2F4F3F4FF801EE0FFF1FE751FF4F35
:10278000259134918B2C9924AA24BB24F401EE0FBB
:10279000FF1FE751FF4F059114918C849D84AE84F7
:1027A000BF84C426D526C824D9242C253D2520271E
:1027B0003127F901FF27EE0FFF1FE751F94F059170
:1027C0001491E32FFF27EE0FFF1FE751FB4F4591B9
:1027D00054914A2C512C612C712CFFEF5F1A6F0A17
:1027E0007F0AF201EE0FFF1FE751FF4F2591349151
:1027F0008B2C9924AA24BB24F401EE0FFF1FE75170
:10280000FF4FC590D49004271527022713270C25C6
:102810001D25609622CFED01C07FC60FD71FAF7078
:10282000BB27AC0FBD1FCA17DB0779F0812F992793
:102830002991F801FF27E227EE0FFF1FE751FF4F15
:102840000591149108271927EECF1093C902009320
:10285000C8028091C6029091C702DC01ED91FC9103
:102860000190F081E02D602F09958091C602909132
:10287000C702DC01ED91FC910190F081E02D612F08
:102880000995C701DF91CF911F910F91FF90EF90B4
:10289000DF90CF90BF90AF909F908F907F906F9080
:1028A0005F904F900C949220CF930E94F711C82F05
:1028B0000E94F711C11101C080E0CF9108958F925D
:1028C0009F92BF92CF92DF92EF92FF920F931F934E
:1028D000CF93DF931F92CDB7DEB74C01B62E6901BF
:1028E00049830E94310C7C014981009709F44BC057
:1028F000DC01ED91FC911197309709F446C01396D5
:102900009C9180E0891731F02081241729F03396BB
:102910008F5FF8CFE0E0F0E0D601ED93FC933097C5
:10292000B1F122812695269530E02031310514F051
:102930002FE030E081E090E0A0E0B0E004C0880F3C
:10294000991FAA1FBB1F2A95D2F70197F8019183FF
:1029500080836B2D80EE0E94930B88ED0E94B70B55
:10296000682FD70114968C91882339F0F401EA5826
:10297000FF4F80818260682B01C0697F88ED0E94D3
:10298000930B80E005C086ED03C087ED01C08BEDA1
:102990000F90DF91CF911F910F91FF90EF90DF90FB
:1029A000CF90BF909F908F9008958F929F92AF92FB
:1029B000BF92CF92EF920F93CF931F921F921F92CD
:1029C0001F921F921F92812C912CA12CB12CC12CF3
:1029D000E42E05E020E040E00E94CB0FC82F6CE21F
:1029E00071E080E090E00E9423080F900F900F901C
:1029F0000F900F900F908C2FCF910F91EF90CF9061
:102A0000BF90AF909F908F900895CF92DF92EF92FA
:102A1000FF920F931F93CF93DF936C017A018B0189
:102A2000C0E0D0E0CE15DF0589F0D8016D918D01B1
:102A3000D601ED91FC910190F081E02DC601099540
:102A4000892B11F47E0102C02196ECCFC701DF91E2
:102A5000CF911F910F91FF90EF90DF90CF9008954D
:102A60000F931F93CF93DF93EC0188819981009797
:102A700029F02A813B812617370788F48B016F5F85
:102A80007F4F0E942A21009761F0998388831B83DE
:102A90000A832C813D81232B11F4FC01108281E0FB
:102AA00001C080E0DF91CF911F910F910895CF93E6
:102AB000DF93EC0188819981009711F00E949220A8
:102AC000198218821D821C821B821A82DF91CF918B
:102AD00008954F925F926F927F928F929F92AF92E2
:102AE000BF92CF92DF92EF92FF920F931F93CF93FB
:102AF000DF93CDB7DEB765970FB6F894DEBF0FBE94
:102B0000CDBF19990DC088EC0E94B70B85FF04C09A
:102B10000E94931260E201C060E088EC0E94930B77
:102B200080912302813039F040F0823079F0833097
:102B300039F511E00CC083E106C08091C502807FA9
:102B40008031F1F081E18093C5021AC010E08091DC
:102B5000C502807F8031A9F40E945D08DC01CB01B1
:102B600088539F4FAF4FBF4F8093B1039093B203F1
:102B7000A093B303B093B40380E28093C50201C075
:102B800010E02FE8622E23E0722E7301D7018D91A1
:102B90009D917D01009739F0DC01ED91FC9106805B
:102BA000F781E02D0995BFEAEB16B3E0FB0671F75C
:102BB0008091C502803409F444C050F4803231F170
:102BC0008033C9F1813109F090C11092AF030AC07E
:102BD000813509F45DC0803809F46FC0803509F093
:102BE00084C13EC0F301819191913F01009739F07A
:102BF000DC01ED91FC910480F581E02D0995BFEA9F
:102C00006B16B3E07B0671F782E15FC10E945D083D
:102C1000C090B103D090B203E090B303F090B4033E
:102C2000DC01CB018C199D09AE09BF09B7FD5DC15F
:102C300080E38093C50261E088EE0E94930B80E4FC
:102C400044C188EE0E94B70B80FD4FC188ED0E9401
:102C5000B70B682F686088ED0E94930B80E535C143
:102C600088EC0E94B70B86FF40C181E58093C502C6
:102C70000E945D08DC01CB014496A11DB11D80932B
:102C8000B1039093B203A093B303B093B4032DC1E7
:102C90000E945D08C090B103D090B203E090B303EE
:102CA000F090B403DC01CB018C199D09AE09BF097A
:102CB000B7FD1BC180E88093C5021B8A88E08C8B1E
:102CC0008CE38D8B8FE393E0892B11F486EDF8C0B4
:102CD00040903F0350904003CE01439690934003B1
:102CE00080933F03109343031F921F9242979F9339
:102CF0008F931F9282E18F9392E1892E912CA12CC8
:102D0000B12CCC24C394E12C06E020E840E060E044
:102D100089E393E00E94CB0F5092400340923F031F
:102D20000F900F900F900F900F900F908111C4C0D3
:102D3000E984FA84CB84DC848D805E808FE8A82EC1
:102D400083E0B82E912CF50180819181009789F163
:102D5000DC01ED91FC910084F185E02D0995811154
:102D600028C0F50180819181DC01ED91FC91008802
:102D7000F189E02D652D09958823D9F0F501808131
:102D80009181DC01ED91FC910484F585E02DA60193
:102D9000B7010995811185C0F50180819181DC0120
:102DA000ED91FC910684F785E02D682D0995811140
:102DB00078C09394B2E0AB0EB11CE0E19E12C3CF99
:102DC000B12CD3018D919C91009799F1DC01ED918B
:102DD000FC910084F185E02D099581112AC0F30151
:102DE00080819181DC01ED91FC910088F189E02DD9
:102DF000652D0995882309F46BC0F30180819181C9
:102E0000DC01ED91FC910484F585E02DA601B7016C
:102E1000099581110EC0F30180819181DC01ED9152
:102E2000FC910684F785E02D682D0995882309F427
:102E30004FC0B394B2E06B0E711CE0E1BE12C1CF83
:102E400080913F0390914003892B39F11093430304
:102E500020E040E060E089E393E00E94D50BF82E8B
:102E60008823E9F0682F89E393E00E94310C0097F2
:102E700009F42CCFDC0114961C934F2D60E089E3FC
:102E800093E00E94D514182F8823F1F06F2D89E369
:102E900093E00E94040D812F0FC087ED11C084EDD7
:102EA0000FC0012F20E040E0692D89E393E00E94EC
:102EB000910D813D09F47DCF882331F0823DA9F049
:102EC0008093B00380EA01C080E98093C5020DC001
:102ED000012F20E040E06B2D89E393E00E94910DEB
:102EE000982F977F913D41F7A4CF65960FB6F89440
:102EF000DEBF0FBECDBFDF91CF911F910F91FF902D
:102F0000EF90DF90CF90BF90AF909F908F907F9089
:102F10006F905F904F900895FC01808191810C9497
:102F20009220CF92DF92EF92FF920F931F93CF9355
:102F3000DF93CDB7DEB762970FB6F894DEBF0FBE52
:102F4000CDBF8C01CB01F801118210821382128255
:102F50001582148250E09E012F5F3F4F6901B90135
:102F60000E94B01DF60101900020E9F731977F0122
:102F7000EC18FD08B701C8010E943015811104C08A
:102F8000C8010E94571508C0F801F582E482B60115
:102F9000808191810E94122262960FB6F894DEBF62
:102FA0000FBECDBFDF91CF911F910F91FF90EF909A
:102FB000DF90CF900895EF92FF920F931F93CF93DE
:102FC000DF93EC01198218821B821A821D821C82F7
:102FD0006115710509F18B01CB010E94A71D7C01D0
:102FE000BC01CE010E943015811109C0CE01DF91D4
:102FF000CF911F910F91FF90EF900C945715FD8288
:10300000EC82B80188819981DF91CF911F910F9156
:10301000FF90EF900C94A01DDF91CF911F910F9125
:10302000FF90EF900895EF92FF920F931F93CF932D
:10303000DF93EC01198218821B821A821D821C8286
:103040006115710521F18B01FB0101900020E9F769
:1030500031977F01E61AF70AB7010E9430158111F6
:1030600009C0CE01DF91CF911F910F91FF90EF909A
:103070000C945715FD82EC82B80188819981DF910B
:10308000CF911F910F91FF90EF900C941222DF913E
:10309000CF911F910F91FF90EF9008950F931F9381
:1030A000CF93DF93EC010E945D08688779878A8758
:1030B0009B87E881F9810284F385E02DCE01099593
:1030C00097FF17C00E945D08088519852A853B85F2
:1030D000DC01CB01801B910BA20BB30B0C811D817A
:1030E0002E813F8180179107A207B30710F38FEF5E
:1030F0009FEFDF91CF911F910F910895CF93DF93B1
:10310000CDB7DEB72A970FB6F894DEBF0FBECDBF9E
:10311000789484B5826084BD84B5816084BD85B5B2
:10312000826085BD85B5816085BD80916E008160BE
:1031300080936E0010928100809181008260809364
:103140008100809181008160809381008091800066
:103150008160809380008091B10084608093B10091
:103160008091B00081608093B00080917A0084608B
:1031700080937A0080917A00826080937A008091B7
:103180007A00816080937A0080917A0080688093D1
:103190007A001092C100229A0E94DE0E1FB7F894A6
:1031A0008091D801811127C0E7E0F9E08491EBE13B
:1031B000F9E09491E82FF0E0EE0FFF1FE859FF4F80
:1031C000A591B491EC91E92321F461E08AE00E9499
:1031D0009B0761E08AE00E94E7078CB580618CBDA7
:1031E0008CB580648CBD61E08DE00E94E70761E0F2
:1031F0008BE00E94E7078091D8018F5F8093D80110
:103200001FBF229A0E94DE0E219868E188E80E9482
:103210006E1160E288E70E946E1160E088E70E940C
:103220006E1101E010E00115110509F4F4C288E601
:103230000E9490110F5F1F4F80FFF5CF61EC88ED6A
:103240000E946E1160E680ED0E946E1164E088EECF
:103250000E946E1188EE0E94901182FFFBCF0E94A7
:10326000931260E288EC0E946E1161E080E80E9497
:103270006E118E010F5F1F4FC8010E94E90881E99E
:1032800091E09F938F931F930F930E943F120F9093
:103290000F900F900F9088E0482E9CE7C92E90E089
:1032A000D92E2AE7A22E20E0B22E3BE9632E30E091
:1032B000732E9924939443E0842E5DE0552E0E9452
:1032C00069158091EB02882309F456C210923103EC
:1032D000409232031092330310923403109235035C
:1032E00010923603109237031092380348E050E0F2
:1032F00061E373E089EE92E00E945309F601459183
:10330000549180910303909104039A012095309584
:103310002823392330930403209303038423952324
:10332000892B31F190923103809232035092330312
:1033300043E050E061E373E089EE92E00E945309BC
:103340006FEC70E0C8010E94DB17CE0107960E9467
:10335000E908B801CE0107960E94B408C8010E948E
:103360008C1763E080E091E00E94C3120E94541425
:10337000F5014591549180910303909104039A01C2
:103380002095309528233923309304032093030399
:1033900084239523892B41F1F30184919092310389
:1033A000809232038093330343E050E061E373E0A3
:1033B00089EE92E00E9453096AEC70E0C8010E9415
:1033C000DB17CE0107960E94E908B801CE010796E7
:1033D0000E94B408C8010E948C1762E083E091E06B
:1033E0000E94C3120E9454140E9469158091050323
:1033F00090910603845B924E89399A43F8F4809148
:10340000070390910803845B924E89399A4308F030
:1034100076C08091090390910A03845B924E8939AA
:103420009A4308F06CC080910B0390910C03845B6D
:10343000924E89399A4308F062C09EC16FEB70E0EA
:10344000C8010E94DB17CE0107960E94E908B80167
:10345000CE0107960E94D608C8010E948C17E09002
:103460000503F09006031E141F040CF08EC12CE41B
:10347000E21A2DE1F20AB7010F2C000C880B990B10
:103480000E94F21D20E036E645EC56E40E94221F21
:1034900020E030E04FE753E40E942D1E0E94941F6D
:1034A000462F65E085E091E00E943B0965E085E0FC
:1034B00091E00E94C3120E9454144AE0B701C8016F
:1034C0000E949117CE0107960E94E908B801CE012B
:1034D00007960E94D608C8010E948C176CEA71E01A
:1034E000C8010E941318CE0107960E94E908B8018E
:1034F000CE0107960E94D608C8010E948C170E9430
:1035000069158091070390910803845B924E893975
:103510009A4308F461C064EB70E0C8010E94DB17B5
:10352000CE0107960E94E908B801CE0107960E94D5
:10353000D608C8010E948C17E0900703F09008039A
:103540001E141F040CF044C1FCE4EF1AFDE1FF0A55
:10355000B7010F2C000C880B990B0E94F21D20E084
:1035600036E645EC56E40E94221F20E030E04FE7AB
:1035700053E40E942D1E0E94941F462F65E080E1B7
:1035800091E00E943B0965E080E191E00E94C31256
:103590000E9454144AE0B701C8010E949117CE015D
:1035A00007960E94E908B801CE0107960E94D60846
:1035B000C8010E948C176CEA71E0C8010E941318C0
:1035C000CE0107960E94E908B801CE0107960E9435
:1035D000D608C8010E948C170E94691580910903C2
:1035E00090910A03845B924E89399A4308F45CC037
:1035F00068EA70E0C8010E94DB17CE0107960E94BE
:10360000E908B801CE0107960E94D608C8010E94B9
:103610008C17E0900903F0900A031E141F0414F5A0
:10362000B7010F2C000C880B990B0E94F21D20E0B3
:1036300030E040E058E30E942D1E20E030E044E3FB
:1036400053E40E942D1E0E94941F462F67E08BE1D9
:1036500091E00E943B0967E08BE191E00E94C31278
:103660000E9454144AE0B701C8010E949117CE018C
:1036700007960E94E908B801CE0107960E94D60875
:10368000C8010E948C176CEA71E0C8010E941318EF
:10369000CE0107960E94E908B801CE0107960E9464
:1036A000D608C8010E948C170E94691580910B03EF
:1036B00090910C03845B924E89399A4308F44BC075
:1036C0006CE970E0C8010E94DB17CE0107960E94EA
:1036D000E908B801CE0107960E94D608C8010E94E9
:1036E0008C17E0900B03F0900C031E141F0414F5CC
:1036F000B7010F2C000C880B990B0E94F21D20E0E3
:1037000030E040E058E30E942D1E20E030E044E32A
:1037100053E40E942D1E0E94941F462F67E082E210
:1037200091E00E943B0967E082E291E00E94C312AF
:103730000E9454144AE0B701C8010E949117CE01BB
:1037400007960E94E908B801CE0107960E94D608A4
:10375000C8010E948C176DEA71E0C8010E9413181D
:10376000CE0107960E94E908B801CE0107960E9493
:10377000B408C8010E948C1761E070E080E090E01E
:103780000E9423080E94C7059ACD84EBE81A82EEB6
:10379000F80AB7010F2C000C880B990B0E94F21D40
:1037A00020E038E645EC56EC0E94221F20E030E095
:1037B0004FE753E40E942D1E0E94941F462F66E09F
:1037C0008AE091E00E943B0966E08AE091E071CED8
:1037D00024EBE21A22EEF20AB7010F2C000C880B40
:1037E000990B0E94F21D20E038E645EC56EC0E9451
:1037F000221F20E030E04FE753E40E942D1E0E947C
:10380000941F462F66E085E191E00E943B0966E047
:1038100085E191E0BBCE6EEA71E0CE0101960E9497
:103820001318CE0107960E94E908BE016F5F7F4F13
:10383000CE0107960E94D608CE0101960E948C17F1
:10384000FFCF8091C6029091C7020E94A70E81E629
:1038500091E09093CB028093CA028AEC92E00C94A0
:10386000A70E109227021092260288EE93E0A0E0A5
:10387000B0E08093280290932902A0932A02B0938B
:103880002B028FE491E0909325028093240285EC33
:1038900090E0909331028093300284EC90E090931A
:1038A00033028093320280EC90E090933502809353
:1038B000340281EC90E0909337028093360282ECE0
:1038C00090E0909339028093380286EC90E09093D8
:1038D0003B0280933A0210923D0210923E021092F7
:1038E0003F02109240028BE891E090933A0380935C
:1038F000390310923E031092410381E0809342030A
:10390000109243038BE393E09093400380933F0333
:1039100010923B0388E080933C038CE380933D034B
:1039200080E090E041E02BE333E0FC01E75CFC4FFA
:103930001586468717863487238705968B3491052D
:10394000A1F71092AF0381E18093C50283E791E074
:103950009093EA028093E90289E393E09093ED0269
:103960008093EC021092EE021092FA021092EF0293
:1039700088E08093F0028CE38093F1021092F202CF
:103980001092F30284E08093F4021092F5021092F8
:10399000F6028093F702EFE8F3E080E090E02191F7
:1039A0003191232B51F4880F991FFC01E157FC4FF3
:1039B00089EE92E09183808304C001968031910565
:1039C00071F71092CD021092CC0288EE93E0A0E045
:1039D000B0E08093CE029093CF02A093D002B09338
:1039E000D10281E691E09093CB028093CA021092BB
:1039F000E1021092E0021092E3021092E2021092B1
:103A0000E5021092E4021092E7021092E602609141
:103A1000E8026E7F6D7F6093E8026695617081E0D9
:103A2000682783E00E949B0761E083E00E94E7072C
:103A3000E4E1F9E0E491E093DA02E0E0F9E0E49116
:103A4000F0E0EE0FFF1FE751F74F859194919093AF
:103A5000DC028093DB0260E082E00E94E707809155
:103A6000E80281FD04C061E082E00E949B0782E0E1
:103A70008093D602E3E1F9E0E491E093D702EFEF1F
:103A8000F8E0E491F0E0EE0FFF1FED50F74F859165
:103A900094919093D9028093D8028AEC92E090930B
:103AA000C7028093C6028DE991E09093E70280936C
:103AB000E6022DEB30E03093E1022093E0022BE9A7
:103AC00031E03093E3022093E2022CE231E03093C4
:103AD000E5022093E40220916800246020936800AE
:103AE0002DE630E03093DE022093DD0224E02093C7
:103AF000DF020197F1F78091C3029091C40222E0A6
:103B00008A3C9207E1F0009711F00E94A70E809185
:103B1000E8028E7F8093E8021092C2021092C102E6
:103B20008AEC92E09093C4028093C302E091DD029C
:103B3000F091DE0290818091DF02892B80830895CD
:103B4000FB01DC0105900D920020E1F70895FC01D6
:103B500005900020E9F7809590958E0F9F1F08959E
:103B60004532510520F4423010F00C94BB1DFB018E
:103B70001082CB010895BB274A3031F4992322F4F7
:103B8000BDE2909581959F4F0C94C71DBB27FB010B
:103B90005527AA27880F991FAA1FA41710F0A41B46
:103BA00083955051B9F7A05DAA3308F0A95DA193A0
:103BB000009779F7B111B1931192CB010C94E01DEC
:103BC000DC01FC01672F71917723E1F7329704C084
:103BD0007C916D9370836291AE17BF07C8F308950F
:103BE000E89409C097FB3EF4909580957095619597
:103BF0007F4F8F4F9F4F9923A9F0F92F96E9BB274D
:103C00009395F695879577956795B795F111F8CFC8
:103C1000FAF4BB0F11F460FF1BC06F5F7F4F8F4F33
:103C20009F4F16C0882311F096E911C0772321F029
:103C30009EE8872F762F05C0662371F096E8862FC1
:103C400070E060E02AF09A95660F771F881FDAF718
:103C5000880F9695879597F908950E94401E0C94B9
:103C6000B11E0E94A31E38F00E94AA1E20F09523C8
:103C700011F00C949A1E0C94A01E11240C94E51EB5
:103C80000E94C21E70F3959FC1F3950F50E0551F1F
:103C9000629FF001729FBB27F00DB11D639FAA27A1
:103CA000F00DB11DAA1F649F6627B00DA11D661FF0
:103CB000829F2227B00DA11D621F739FB00DA11D11
:103CC000621F839FA00D611D221F749F3327A00DCB
:103CD000611D231F849F600D211D822F762F6A2F67
:103CE00011249F5750409AF0F1F088234AF0EE0FCC
:103CF000FF1FBB1F661F771F881F91505040A9F7F9
:103D00009E3F510580F00C949A1E0C94E51E5F3F77
:103D1000E4F3983ED4F3869577956795B795F79534
:103D2000E7959F5FC1F7FE2B880F911D96958795AC
:103D300097F9089597F99F6780E870E060E008952B
:103D40009FEF80EC089500240A94161617061806B3
:103D50000906089500240A9412161306140605068F
:103D60000895092E0394000C11F4882352F0BB0F20
:103D700040F4BF2B11F460FF04C06F5F7F4F8F4F83
:103D80009F4F089557FD9058440F551F59F05F3FBE
:103D900071F04795880F97FB991F61F09F3F79F06D
:103DA00087950895121613061406551FF2CF4695EF
:103DB000F1DF08C0161617061806991FF1CF869571
:103DC0007105610508940895E894BB276627772755
:103DD000CB0197F908952F923F924F925F926F9285
:103DE0007F928F929F92AF92BF92CF92DF92EF928B
:103DF000FF920F931F93CF93DF93CDB7DEB7CA1B0C
:103E0000DB0B0FB6F894DEBF0FBECDBF09942A8836
:103E1000398848885F846E847D848C849B84AA84DE
:103E2000B984C884DF80EE80FD800C811B81AA816B
:103E3000B981CE0FD11D0FB6F894DEBF0FBECDBF36
:103E4000ED0108950E94361F0C94B11E0E94AA1E17
:103E500058F00E94A31E40F029F45F3F29F00C9413
:103E60009A1E51110C94E51E0C94A01E0E94C21EB5
:103E700068F39923B1F3552391F3951B550BBB2799
:103E8000AA2762177307840738F09F5F5F4F220FDE
:103E9000331F441FAA1FA9F335D00E2E3AF0E0E8D5
:103EA00032D091505040E695001CCAF72BD0FE2F1F
:103EB00029D0660F771F881FBB1F261737074807B3
:103EC000AB07B0E809F0BB0B802DBF01FF2793586B
:103ED0005F4F3AF09E3F510578F00C949A1E0C9477
:103EE000E51E5F3FE4F3983ED4F38695779567959A
:103EF000B795F7959F5FC9F7880F911D96958795A0
:103F000097F90895E1E0660F771F881FBB1F6217BE
:103F100073078407BA0720F0621B730B840BBA0B7C
:103F2000EE1F88F7E09508950E94CA1E88F09F57FB
:103F300098F0B92F9927B751B0F0E1F0660F771FCD
:103F4000881F991F1AF0BA95C9F714C0B13091F0C3
:103F50000E94E41EB1E008950C94E41E672F782FB0
:103F60008827B85F39F0B93FCCF386957795679588
:103F7000B395D9F73EF490958095709561957F4FF4
:103F80008F4F9F4F0895991B79E004C0991F961792
:103F900008F0961B881F7A95C9F78095089597FBBE
:103FA000072E16F4009407D077FD09D00E94E31F76
:103FB00007FC05D03EF4909581959F4F089570952C
:103FC00061957F4F0895AA1BBB1B51E107C0AA1F33
:103FD000BB1FA617B70710F0A61BB70B881F991FAA
:103FE0005A95A9F780959095BC01CD010895EE0FE3
:103FF000FF1F0590F491E02D0994CF93DF93823059
:10400000910510F482E090E0E091B703F091B803DD
:1040100020E030E0C0E0D0E0309711F140815181E4
:1040200048175907C0F04817590761F482819381F6
:10403000209719F09B838A832BC09093B8038093B9
:10404000B70326C02115310519F04217530718F49C
:104050009A01BE01DF01EF010280F381E02DDCCF88
:104060002115310509F1281B390B2430310590F455
:1040700012968D919C9113976115710521F0FB01AA
:104080009383828304C09093B8038093B703FD01A8
:10409000329644C0FD01E20FF31F819391932250A9
:1040A00031092D933C933AC02091B5033091B6036A
:1040B000232B41F420912B0130912C013093B60336
:1040C0002093B5032091290130912A012115310552
:1040D00041F42DB73EB740912D0150912E01241B84
:1040E000350BE091B503F091B603E217F307A0F4A6
:1040F0002E1B3F0B2817390778F0AC014E5F5F4F3E
:104100002417350748F04E0F5F1F5093B6034093B6
:10411000B5038193919302C0E0E0F0E0CF01DF911D
:10412000CF9108950F931F93CF93DF93009709F4D6
:104130008CC0FC013297138212820091B703109158
:10414000B8030115110581F420813181820F931F7D
:104150002091B5033091B6032817390779F5F0930C
:10416000B603E093B50371C0D80140E050E0AE174C
:10417000BF0750F412962D913C911397AD01211574
:10418000310509F1D901F3CF9D01DA01338322838F
:1041900060817181860F971F8217930769F4EC0184
:1041A00028813981260F371F2E5F3F4F31832083AF
:1041B0008A819B8193838283452B29F4F093B803F2
:1041C000E093B70342C01396FC93EE931297ED0170
:1041D000499159919E01240F351FE217F30771F49D
:1041E00080819181840F951F029611969C938E93E6
:1041F0008281938113969C938E931297E0E0F0E076
:10420000D80112968D919C911397009719F0F8019F
:104210008C01F6CF8D919C9198012E5F3F4F820FBC
:10422000931F2091B5033091B6032817390769F41D
:10423000309729F41092B8031092B70302C013828A
:1042400012821093B6030093B503DF91CF911F91B3
:104250000F910895A0E0B0E0E0E3F1E20C94EF1ECE
:10426000EC01009721F4CB010E94FD1FB8C0FC01B6
:10427000E60FF71F9C0122503109E217F30708F4FB
:10428000ACC0D9010D911C91119706171707B0F01A
:104290000530110508F49FC0C801049786179707D9
:1042A00008F499C002501109061B170B01931193D2
:1042B0006D937C93CF010E9492208DC05B01A01A68
:1042C000B10A4C01800E911EA091B703B091B803C2
:1042D00040E050E0E12CF12C109709F44AC0A815F9
:1042E000B905D1F56D907C901197630182E0C80EFD
:1042F000D11CCA14DB0480F1A3014A195B096A01CD
:1043000082E0C80ED11C1296BC9012971396AC9105
:10431000B5E0CB16D10440F0B282A3835183408331
:10432000D9016D937C930AC00E5F1F4FC301800FAC
:10433000911FF90191838083EB2DFA2FE114F10491
:1043400031F0D7011396FC93EE93129744C0F0938B
:10435000B803E093B7033FC08D919C911197481724
:10436000590708F4AC017D0112960D90BC91A02D67
:10437000B3CF8091B5039091B60388159905E1F408
:1043800046175707C8F48091290190912A01009798
:1043900041F48DB79EB740912D0150912E01841BA1
:1043A000950BE817F907C8F4F093B603E093B5034B
:1043B000F901718360830FC0CB010E94FD1F7C0156
:1043C000009759F0A801BE010E94F921CE010E9478
:1043D0009220C70104C0CE0102C080E090E0CDB7BA
:1043E000DEB7EEE00C940B1F81E090E0F8940C94A3
:1043F000C324FB01DC0102C001900D9241505040EA
:10440000D8F70895DC0101C06D9341505040E0F7AA
:104410000895FB01DC018D91019080190110D9F301
:10442000990B0895FB01DC0101900D920020E1F74A
:104430000895AEE0B0E0EFE1F2E20C94F91E8C01D9
:10444000CA0146E04C831A83098377FF02C060E00B
:1044500070E8FB013197FE83ED83A901BC01CE0119
:1044600001960E9445224D815E8157FD0AC02F8131
:104470003885421753070CF49A01F801E20FF31F35
:1044800010822E96E4E00C94151FACE0B0E0EBE453
:10449000F2E20C94EB1E7C016B018A01FC01178295
:1044A0001682838181FFBDC1CE0101964C01F701C7
:1044B0009381F60193FD859193FF81916F0188238C
:1044C00009F4ABC1853239F493FD859193FF819155
:1044D0006F01853229F4B70190E00E942D24E7CFC7
:1044E000512C312C20E02032A0F48B3269F030F4D2
:1044F000803259F0833269F420612CC08D3239F05A
:10450000803339F4216026C02260246023C02860F3
:1045100021C027FD27C030ED380F3A3078F426FF50
:1045200006C0FAE05F9E300D1124532E13C08AE0BE
:10453000389E300D1124332E20620CC08E3221F4AF
:1045400026FD6BC1206406C08C3611F4206802C0C1
:10455000883641F4F60193FD859193FF81916F01B7
:104560008111C1CF982F9F7D9554933028F40C5F13
:104570001F4FFFE3F9830DC0833631F0833771F0AD
:10458000833509F05BC022C0F801808189830E5F0A
:104590001F4F44244394512C540115C03801F2E0BC
:1045A0006F0E711CF801A080B18026FF03C0652D3D
:1045B00070E002C06FEF7FEFC5012C870E942224BC
:1045C0002C0183012C852F77222E17C03801F2E0B1
:1045D0006F0E711CF801A080B18026FF03C0652D0D
:1045E00070E002C06FEF7FEFC5012C870E94172497
:1045F0002C012C852068222E830123FC1BC0832DD7
:1046000090E048165906B0F4B70180E290E00E94AD
:104610002D243A94F4CFF50127FC859127FE819152
:104620005F01B70190E00E942D2431103A94F1E02F
:104630004F1A51084114510471F7E5C0843611F046
:10464000893639F5F80127FF07C0608171818281C1
:1046500093810C5F1F4F08C060817181072E000C91
:10466000880B990B0E5F1F4F2F76722E97FF09C094
:1046700090958095709561957F4F8F4F9F4F2068E3
:10468000722E2AE030E0A4010E946524A82EA8180A
:1046900044C0853729F42F7EB22E2AE030E025C0B1
:1046A000F22FF97FBF2E8F36C1F018F4883579F0DC
:1046B000B4C0803719F0883721F0AFC02F2F2061A8
:1046C000B22EB4FE0DC08B2D8460B82E09C024FF1D
:1046D0000AC09F2F9660B92E06C028E030E005C0C2
:1046E00020E130E002C020E132E0F801B7FE07C06F
:1046F00060817181828193810C5F1F4F06C0608150
:10470000718180E090E00E5F1F4FA4010E9465243C
:10471000A82EA818FB2DFF777F2E76FE0BC0372D15
:104720003E7FA51450F474FE0AC072FC08C0372DF9
:104730003E7E05C0BA2C372D03C0BA2C01C0B52C63
:1047400034FF0DC0FE01EA0DF11D8081803311F4AC
:10475000397E09C032FF06C0B394B39404C0832FDE
:10476000867809F0B39433FD13C030FF06C05A2C8D
:10477000B31418F4530C5B18B32CB31468F4B701DA
:1047800080E290E03C870E942D24B3943C85F5CFD5
:10479000B31410F43B1801C0312C34FF12C0B70120
:1047A00080E390E03C870E942D243C8532FF17C0B7
:1047B00031FD03C088E790E002C088E590E0B701D2
:1047C0000CC0832F867859F031FF02C08BE201C004
:1047D00080E237FD8DE2B70190E00E942D24A51400
:1047E00038F4B70180E390E00E942D245A94F7CF6B
:1047F000AA94F401EA0DF11D8081B70190E00E94B6
:104800002D24A110F5CF332009F451CEB70180E259
:1048100090E00E942D243A94F6CFF701868197818B
:1048200002C08FEF9FEF2C96E2E10C94071FFC0172
:104830000590615070400110D8F7809590958E0FCB
:104840009F1F0895FC016150704001900110D8F73E
:10485000809590958E0F9F1F08950F931F93CF9370
:10486000DF93FB01238121FD03C08FEF9FEF28C061
:1048700022FF16C046815781248135814217530794
:1048800044F4A081B1819D012F5F3F4F318320838C
:104890008C93268137812F5F3F4F3783268310C04B
:1048A000EB01092F182F0084F185E02D0995892B44
:1048B000E1F68E819F8101969F838E83812F902FB9
:1048C000DF91CF911F910F910895FA01AA27283007
:1048D00051F1203181F1E8946F936E7F6E5F7F4FCD
:1048E0008F4F9F4FAF4FB1E03ED0B4E03CD0670F49
:1048F000781F891F9A1FA11D680F791F8A1F911D9C
:10490000A11D6A0F711D811D911DA11D20D009F4EB
:1049100068943F912AE0269F11243019305D31932D
:10492000DEF6CF010895462F4770405D4193B3E016
:104930000FD0C9F7F6CF462F4F70405D4A3318F0BD
:10494000495D31FD4052419302D0A9F7EACFB4E06E
:10495000A6959795879577956795BA95C9F7009726
:104960006105710508959B01AC010A2E06945795C7
:10497000479537952795BA95C9F7620F731F841F1E
:10498000951FA01D089514E0C4E9D4E004C0FE0101
:104990000E94F71F2196C539D107C9F7F894FFCFB8
:1049A0000401040402010A000000010A2D000000B5
:1049B000010600000001062D0000000305313B0048
:1049C00000000305323B0000000000B90380000036
:1049D000000000B3087706F6057906080600000017
:1049E00000DB0E8F0DF6057906310600000000FA97
:1049F000040515BF044105BB05CE04E20400000018
:104A000000730C0515010D720CC70CDF0C5A0C005D
:104A10000000007D09560C3306BA0672064F0C479B
:104A2000064B0C490C6F0600000000310CD50B043E
:104A30000D0D0A58424F5820555342204C6962725E
:104A400061727920537461727465640009000D0A03
:104A50004F534320646964206E6F742073746172D5
:104A600074000D0A00526561642074696D65206FE1
:084A700075742E004F4B00008D
:107E0000112484B714BE81FFF0D085E080938100F7
:107E100082E08093C00088E18093C10086E0809377
:107E2000C20080E18093C4008EE0C9D0259A86E02C
:107E300020E33CEF91E0309385002093840096BBD3
:107E4000B09BFECF1D9AA8958150A9F7CC24DD24C4
:107E500088248394B5E0AB2EA1E19A2EF3E0BF2EE7
:107E6000A2D0813461F49FD0082FAFD0023811F036
:107E7000013811F484E001C083E08DD089C08234E0
:107E800011F484E103C0853419F485E0A6D080C0E4
:107E9000853579F488D0E82EFF2485D0082F10E0AE
:107EA000102F00270E291F29000F111F8ED06801E7
:107EB0006FC0863521F484E090D080E0DECF843638
:107EC00009F040C070D06FD0082F6DD080E0C81688
:107ED00080E7D80618F4F601B7BEE895C0E0D1E017
:107EE00062D089930C17E1F7F0E0CF16F0E7DF06D8
:107EF00018F0F601B7BEE89568D007B600FCFDCFD4
:107F0000A601A0E0B1E02C9130E011968C91119780
:107F100090E0982F8827822B932B1296FA010C0160
:107F200087BEE89511244E5F5F4FF1E0A038BF0790
:107F300051F7F601A7BEE89507B600FCFDCF97BE46
:107F4000E89526C08437B1F42ED02DD0F82E2BD052
:107F50003CD0F601EF2C8F010F5F1F4F84911BD097
:107F6000EA94F801C1F70894C11CD11CFA94CF0C13
:107F7000D11C0EC0853739F428D08EE10CD085E9AC
:107F80000AD08FE07ACF813511F488E018D01DD067
:107F900080E101D065CF982F8091C00085FFFCCF94
:107FA0009093C60008958091C00087FFFCCF809118
:107FB000C00084FD01C0A8958091C6000895E0E648
:107FC000F0E098E1908380830895EDDF803219F02E
:107FD00088E0F5DFFFCF84E1DECF1F93182FE3DFCA
:107FE0001150E9F7F2DF1F91089580E0E8DFEE27F6
:047FF000FF270994CA
:027FFE00040479
:0400000300007E007B
:00000001FF